:10000000D7EF21F00000000000EF00F0000000003A
:0A0010000000000000000000F3D71C
:10001C000B820BAE18EF00F00368026801680068F1
:08002C000A360232FF0E120039
:0E003400026A016A006A086A036A000E12007E
:100042000B840BAE2CEF00F0010E036E026A016A04
:0A005200006A0A360232FF0E1200A7
:08005C000AAE029E000E120024
:100064000CB074EF00F00CA21AEF01F00E6A000E4F
:1000740002648BEF00F0F00E0214D8A456EF00F0E7
:10008400023A01380F0B02260138F00B016E0038DA
:100094000F0B01260038F00B006E08380F0B0026FA
:1000A4000838F00B086E0E84D89002BE6FEF00F093
:1000B40008360036013602360E2A02BE6FEF00F013
:1000C40008360036013602360E2A02BE6FEF00F003
:1000D40008360036013602360E2A0E50036410EF3D
:1000E40001F0035E0BBC08AE15EF01F0D880800E62
:1000F40008640030000E002201220222D8A015EF6D
:1001040001F0023201320032034A1AEF01F015EF16
:1001140001F001C002F000C001F008C000F0086A5C
:10012400000E0E860264C2EF00F0F00E0214D8A492
:10013400AAEF00F0023A01380F0B02260138F00B47
:10014400016E00380F0B01260038F00B006E0E8490
:10015400D89002BE6FEF00F00036013602360E2A48
:1001640002BE6FEF00F00036013602360E2A02BEE0
:100174006FEF00F00036013602360E2A6FEF00F002
:1001840001C002F000C001F0006A000E0E960E8855
:100194000264EFEF00F0F00E0214D8A4DAEF00F0DE
:1001A400023A01380F0B02260138F00B016E0E845F
:1001B400D89002BE6FEF00F0013602360E2A02BE5E
:1001C4006FEF00F0013602360E2A02BE6FEF00F028
:1001D400013602360E2A6FEF00F001C002F0016A08
:1001E400000E0E8602641FEF01F0F00E0214D8A474
:1001F400FEEF00F0023A0E84D89002BE6FEF00F0DA
:1002040002360E2A02BE6FEF00F002360E2A02BE3C
:100214006FEF00F002360E2A6FEF00F0010E0C6E45
:100224000EDF22EF01F0020E0C6E16DF22EF01F05A
:10023400040E0C6EF1DE22EF01F0080E0C6EF8DEF7
:020244001200A6
:080246000B6A0B86FF0E12008B
:10024E00086A096A000E07620364ACEF01F00250FF
:10025E0006180A6E075003267E0ED8A03DEF01F059
:10026E00035ED8B0B0EF01F041EF01F0035ED8A00D
:10027E00B4EF01F0028E068E02C00EF001C00BF03C
:10028E0000C00DF000500402F4CF0CF00150050236
:10029E00F4CF00F0F3CF08F00402F3500C26F45024
:1002AE000822000E00220D500502F3500C26F450C9
:1002BE000822000E002202500402F3500826F450C9
:1002CE00002202500502016A000E0122F3500026A0
:1002DE00F45001220D500602F3500826F45000226D
:1002EE00026A000E012202220B500602F350002673
:1002FE00F4500122000E02220E500602F350012687
:10030E00F450022202BE94EF01F008360036013698
:10031E0002360306D8B4B4EF01F0A7EF01F0D8808F
:10032E00800E08640030000E002201220222D8A0A6
:10033E00A7EF01F0023201320032034AB0EF01F0B2
:10034E000AAE029E000EB6EF01F0010E6CDEB6EFA5
:10035E0001F0020E5CDEB6EF01F0040E6BDE120051
:10036E000D6A086A0050D8B4000C04180A6E0ABE52
:10037E000D1E0B6A04AE02D0041E042A00A002D089
:10038E00001E002A005004100A6E0ABE1FD0045030
:10039E00085E003600340836045008260036060E75
:1003AE000C6E00340836045000B0085E00A008261B
:1003BE0000360C2EF6D700A008260BB015D00DAEC9
:1003CE00000C001E002A081E082A000C04AE09D0DC
:1003DE0000BE04D00050086E006AF1D7006A002AF1
:1003EE00000C001E0B2AD3D7082A0450085CD8A490
:0E03FE00E6D7086A002A00AEE2D7FF0C120014
:10040C00025006180E6E086A096A0B6A03500764DC
:10041C00F9EF02F006500A6E068E028E03500B6E38
:10042C000750036E000E0B6449EF02F00B50075E91
:10043C00D8B4EAEF02F0070E0764B8EF02F0075EDB
:10044C0000C008F001C000F002C001F0026A074EC3
:10045C00EAEF02F007648DEF02F0075E00C008F0CF
:10046C0001C000F0016A074EEAEF02F007646BEF7F
:10047C0002F0075E00C008F0006A074EEAEF02F0D7
:10048C00076452EF02F00AC002F005C001F004C08C
:10049C0000F0086A14EF04F0030E07645DEF02F03D
:1004AC00075E08380F0B086E074EEAEF02F0D89083
:1004BC000832074EEAEF02F0D8900832074EEAEF06
:1004CC0002F0D8900832EAEF02F0030E07647CEFDA
:1004DC0002F0075E08380F0B086E0038F00B082688
:1004EC0000380F0B006E074EEAEF02F0D890003286
:1004FC000832074EEAEF02F0D89000320832074E6D
:10050C00EAEF02F0D89000320832EAEF02F0030E64
:10051C000764A4EF02F0075E08380F0B086E003872
:10052C00F00B082600380F0B006E0138F00B00267C
:10053C0001380F0B016E074EEAEF02F0D890013232
:10054C0000320832074EEAEF02F0D8900132003246
:10055C000832074EEAEF02F0D8900132003208322E
:10056C00EAEF02F0030E0764D5EF02F0075E0838DD
:10057C000F0B086E0038F00B082600380F0B006EBE
:10058C000138F00B002601380F0B016E0238F00B0E
:10059C00012602380F0B026E074EEAEF02F0D890DC
:1005AC000232013200320832074EEAEF02F0D890E4
:1005BC000232013200320832074EEAEF02F0D890D4
:1005CC000232013200320832096A000E0EAEDEEF42
:1005DC0003F0081E001E011E021E082A0022012222
:1005EC000222DEEF03F00750D8A4FFEF02F014EF65
:1005FC0004F0096A02C00AF0028E068E0750035CF2
:10060C00076ED8B4D1EF03F0070E07649FEF03F029
:10061C00075E0450096E0550046E0650056E066A9E
:10062C00074ED1EF03F0070E076474EF03F0075E7B
:10063C000450096E0550046E056A074ED1EF03F0A5
:10064C00070E076452EF03F0075E0450096E046A4C
:10065C00074ED1EF03F0070E076439EF03F00AC021
:10066C0002F014EF04F0030E076444EF03F0075E8E
:10067C0009380F0B096E074ED1EF03F0D8900932F1
:10068C00074ED1EF03F0D8900932074ED1EF03F0AB
:10069C00D8900932D1EF03F0030E076463EF03F037
:1006AC00075E09380F0B096E0438F00B0926043865
:1006BC000F0B046E074ED1EF03F0D89004320932C1
:1006CC00074ED1EF03F0D89004320932074ED1EF28
:1006DC0003F0D89004320932D1EF03F0030E076413
:1006EC008BEF03F0075E09380F0B096E0438F00B23
:1006FC00092604380F0B046E0538F00B0426053858
:10070C000F0B056E074ED1EF03F0D8900532043273
:10071C000932074ED1EF03F0D8900532043209327A
:10072C00074ED1EF03F0D890053204320932D1EFE5
:10073C0003F0030E0764BCEF03F0075E09380F0BE0
:10074C00096E0438F00B092604380F0B046E0538BB
:10075C00F00B042605380F0B056E0638F00B05263A
:10076C0006380F0B066E074ED1EF03F0D890063209
:10077C00053204320932074ED1EF03F0D89006321D
:10078C00053204320932074ED1EF03F0D89006320D
:10079C00053204320932086A000E0EAEDEEF03F0A9
:1007AC00091E041E051E061E092A04220522062205
:1007BC00095008260450002205500122065002223E
:1007CC000EBEF5EF03F0D8A004EF04F002320132B4
:1007DC0000320832033E04EF04F00EEF04F0D8B000
:1007EC0009EF04F0000E081E001E011E021E082A4E
:1007FC000022012202220A7E09EF04F0010E0C6E87
:10080C002BDC16EF04F0020E0C6E26DC16EF04F057
:10081C00040E0C6E0EEC00F016EF04F0000E0C6ED5
:02082C001200B8
:10082E00086A080E0C6E003408360450085ED8B004
:0E083E0002D00826D89000360C2EF5D71200F6
:10084C000B800BAE32EF04F0026A0AAEFF0E026EA2
:0C085C00016E006E0A360232FF0E120020
:100868000134083609360450085E0550D8A0053C06
:10087800095E003601360F0E0C6E01340836093653
:10088800045000A006D0085E0550D8A0053C095EBB
:1008980005D008260550D8B0053C09260036013693
:1008A8000C2EEBD700B006D0045008260550D8B05F
:0808B800053C092600001200B6
:1008C0000B6A0C6A086A0350D8B4E4EF04F002C063
:1008D0000AF0028E9E0E035E03AED4EF04F0036CAA
:1008E000080E035CD8A0A1EF04F0036E083600C028
:1008F00008F001C000F002C001F0026A080E035CBB
:10090000D8A0A1EF04F0036E083600C008F001C0C3
:1009100000F0016A080E035CD8A0A1EF04F0036E9A
:10092000083600C008F0006A080E035CD8A0A1EFEA
:1009300004F0036E0836086A0350D8A4D890ADEFCF
:1009400004F00350D8B4ADEF04F0D8900232013275
:1009500000320832032EA5EF04F00BBC08A0BEEF56
:1009600004F0D8A0BEEF04F0082AD8B4002AD8B406
:10097000012AD8B4022A02BEE8EF04F00AAEE4EF7E
:1009800004F0021E011E001E081E082AD8B4002A08
:10099000D8B4012AD8B4022AE4EF04F0026A016A4A
:1009A000006A086AE4EF04F00B800BAEEEEF04F08F
:1009B000026A0AAEEEEF04F0026E016E006E086E7F
:1009C0000A360232EEEF04F00C6A000EEFEF04F08C
:1009D000010E0C6E000E3ADFEFEF04F0FF0E025036
:1009E000036E0150026E0050016E0850006E12003E
:0609F000067E0CDD120082
:1009F6000050086E0150006E0250016E0350026EE8
:100A0600036A0B6A0C6A9E0E036E0A6A020E0C6E6D
:060A160032EC00F01200BA
:100A1C000B6A0A6A096A086A0E6A033408360450BB
:100A2C00085E0550D8A0053C095E0650D8A0063CCF
:100A3C000A5E0750D8A0073C0B5EE86AD8A0010EEE
:100A4C000E5E0336070E0C6E0334083609360A3672
:100A5C000B360E36045003A012D0085E0550D8A0F9
:100A6C00053C095E0650D8A0063C0A5E0750D8A08B
:100A7C00073C0B5EE86AD8A0010E0E5E11D008266A
:100A8C000550D8B0053C09260650D8B0063C0A26BD
:100A9C000750D8B0073C0B26E86AD8B0010E0E26DA
:100AAC0003360C2ED1D70234083609360A360B36EB
:100ABC000E36045003A012D0085E0550D8A0053C99
:100ACC00095E0650D8A0063C0A5E0750D8A0073C29
:100ADC000B5EE86AD8A0010E0E5E11D008260550F8
:100AEC00D8B0053C09260650D8B0063C0A2607505B
:100AFC00D8B0073C0B26E86AD8B0010E0E26023699
:100B0C00070E0C6E0234083609360A360B360E36D2
:100B1C00045002A012D0085E0550D8A0053C095E16
:100B2C000650D8A0063C0A5E0750D8A0073C0B5EC6
:100B3C00E86AD8A0010E0E5E11D008260550D8B078
:100B4C00053C09260650D8B0063C0A260750D8B0FA
:100B5C00073C0B26E86AD8B0010E0E2602360C2E86
:100B6C00D1D70134083609360A360B360E36045006
:100B7C0002A012D0085E0550D8A0053C095E0650B4
:100B8C00D8A0063C0A5E0750D8A0073C0B5EE86A6A
:100B9C00D8A0010E0E5E11D008260550D8B0053C29
:100BAC0009260650D8B0063C0A260750D8B0073C98
:100BBC000B26E86AD8B0010E0E260136070E0C6E15
:100BCC000134083609360A360B360E36045001A0AD
:100BDC0012D0085E0550D8A0053C095E0650D8A07E
:100BEC00063C0A5E0750D8A0073C0B5EE86AD8A00A
:100BFC00010E0E5E11D008260550D8B0053C092612
:100C0C000650D8B0063C0A260750D8B0073C0B2635
:100C1C00E86AD8B0010E0E2601360C2ED1D700345E
:100C2C00083609360A360B360E36045001A012D09F
:100C3C00085E0550D8A0053C095E0650D8A0063CBD
:100C4C000A5E0750D8A0073C0B5EE86AD8A0010EDC
:100C5C000E5E11D008260550D8B0053C092606506A
:100C6C00D8B0063C0A260750D8B0073C0B26E86AD9
:100C7C00D8B0010E0E260036070E0C6E0034083666
:100C8C0009360A360B360E36045000A012D0085E18
:100C9C000550D8A0053C095E0650D8A0063C0A5E5B
:100CAC000750D8A0073C0B5EE86AD8A0010E0E5E78
:100CBC0011D008260550D8B0053C09260650D8B0EE
:100CCC00063C0A260750D8B0073C0B26E86AD8B079
:100CDC00010E0E2600360C2ED1D700B00ED00450CB
:100CEC0008260550D8B0053C09260650D8B0063C5D
:0C0CFC000A260750D8B0073C0B26120057
:100D08006E0E0401D25DD8A0C6D0640E046ED2C4A3
:100D180000F089DD120E0024056E066A000E062218
:100D280005C000F006C001F0000E06BEFF0E026E00
:100D3800036E003600900136023603360036009006
:100D48000136023603368A0E0024F66E480E01205C
:100D5800F76E000E0220F86E0900F5CF00F00900CA
:100D6800F5CF01F00900F5CF02F00900F5CF03F047
:100D7800000E046E000E056E000E066E7E0E076EE7
:100D880027EC01F000C0D3F401C0D4F402C0D5F4BC
:100D980003C0D6F4640E046ED2C400F044DD08C06B
:100DA80000F00A0E046E3FDD090E0024056E066A87
:100DB800000E062205C000F006C001F0000E06BEB7
:100DC800FF0E026E036E00360090013602360336BF
:100DD800003600900136023603368A0E0024F66E7D
:100DE800480E0120F76E000E0220F86E0900F5CFBC
:100DF80000F00900F5CF01F00900F5CF02F0090075
:100E0800F5CF03F0D3C404F0D4C405F0D5C406F07C
:100E1800D6C407F027EC01F000C0D3F401C0D4F425
:100E280002C0D5F403C0D6F40A0E046ED2C400F092
:100E3800FADC08C000F000C001F0000E026E036E7C
:100E4800046E0136019002360336043601360190ED
:100E58000236033604368A0E0124F66E480E022046
:100E6800F76E000E0320F86E0900F5CF00F00900B8
:100E7800F5CF01F00900F5CF02F00900F5CF03F036
:100E8800D3C404F0D4C405F0D5C406F0D6C407F022
:100E980027EC01F01200D2510A087CE20A0E046E17
:100EA800D2C400F0C0DC090E0024056E066A000EEC
:100EB800062205C000F006C001F0000E06BEFF0EB7
:100EC800026E036E00360090013602360336003695
:100ED80000900136023603368A0E0024F66E480E5C
:100EE8000120F76E000E0220F86E0900F5CF00F021
:100EF8000900F5CF01F00900F5CF02F00900F5CFA0
:100F080003F0000E046E000E056E000E066E7E0ED7
:100F1800076E27EC01F000C0D3F401C0D4F402C07E
:100F2800D5F403C0D6F40A0E046ED2C400F07BDCFC
:100F380008C000F000C001F0000E026E036E046EDF
:100F48000136019002360336043601360190023626
:100F5800033604368A0E0124F66E480E0220F76E18
:100F6800000E0320F86E0900F5CF00F00900F5CF58
:100F780001F00900F5CF02F00900F5CF03F0D3C462
:100F880004F0D4C405F0D5C406F0D6C407F027ECA5
:100F980001F01200D2C400F0000E016E026E036E62
:100FA80000360090013602360336003600900136CE
:100FB800023603368A0E0024F66E480E0120F76EBC
:100FC800000E0220F86E0900F5CF00F00900F5CFF9
:100FD80001F00900F5CF02F00900F5CF03F0000E8B
:100FE800046E000E056E000E066E7E0E076E27EC70
:040FF80001F01200F2
:100FFC000B6A0A6A096A00500402F4CF09F0F3CFB5
:10100C0008F001500502F4CF0BF0F3CF0AF00050BA
:10101C000502F3500926F4500A22E86A0B2201500B
:10102C000402F3500926F4500A22E86A0B2208C085
:10103C0000F009C001F00AC002F00BC003F012006E
:10104C000450000A12E10550000A0FE10650000A94
:10105C000CE10750000A09E1FF0E006EFF0E016E55
:10106C007F0E026EFF0E036E1200086A096A0750AB
:10107C00D8B4D1EF08F00350D8B4D6EF08F0025032
:10108C0006180A6E028E068E0E6A02C008F001C0A7
:10109C000CF000C00DF004500D5E0550D8A0053CBE
:1010AC000C5E0650D8A0063C085E086A0C6A0D6AF5
:1010BC00D8A068EF08F0D890023201320032083222
:1010CC00010E0E6E0750035ED8A075EF08F07E0E71
:1010DC000E240326D8B0DBEF08F07BEF08F07E0E71
:1010EC000E240326D8A0E0EF08F0180E0B6E0D3678
:1010FC000C3608360036013602360E360450005EC9
:10110C000550D8A0053C015E0650D8A0063C025EF6
:10111C0006340E120EA096EF08F00D80A1EF08F029
:10112C00045000260550D8B0053C01260650D8B016
:10113C00062802260D900B2E7DEF08F0C7EF08F065
:10114C00D8900036013602360E360450005E05503B
:10115C00D8A0053C015E0650D8A0063C025E0634C1
:10116C000E10010B0D26D8B00C2AD8B4082AD8A41E
:10117C00C7EF08F008320C320D32032AD8B4DBEF7B
:10118C0008F00AAE089E0850026E0C50016E0D500D
:10119C00006EE3EF08F0010E23EC01F0E3EF08F032
:1011AC00020E1AEC00F0E3EF08F0040E0EEC00F067
:0C11BC00E3EF08F0080E21EC00F0120038
:1011C8000450000A08E10550000A05E1FF0E006E10
:1011D8007F0E016E12000D6A096A086A015000103C
:1011E800D8B4000C015005180A6E0ABE0D1E0B6A11
:1011F80005AE05D0041E051E042AD8B4052A01AE82
:1012080005D0001E011E002AD8B4012A015005107D
:101218000A6E0ABE10D034EC04F00BB020D00DAE2C
:10122800000C001E011E002AD8B4012A081E091E3F
:10123800082AD8B4092A000C05AE0DD001BE07D083
:101248000150096E0050086E016A006AE8D7016A09
:10125800006A002A000C011E001E0B2ADDD7082A8E
:10126800D8B4092A0450085CD8A4D9D70550095C19
:10127800D8A4D5D7096A086A002AD8B4012A01AEC9
:08128800CED70000FF0C12009C
:10129000800E0401D219006E800E000A005CD8B0E6
:1012A0006DD1D2510008016E01C0D2F4800E011838
:1012B000006E800E6E0A005CD8A0C0D0640E046E72
:1012C000D2C400F0B7EC01F0120E0024056E000E3F
:1012D00000BEFF0E066E000E062205C000F006C01E
:1012E00001F0000E06BEFF0E026E036E0036009087
:1012F00001360236033600360090013602360336D8
:101300008A0E0024F66E480E0120F76E000E0220B1
:10131000F86E0900F5CFD3F40900F5CFD4F4090035
:10132000F5CFD5F40900F5CFD6F4640E046ED2C41F
:1013300000F0B7EC01F008C000F00A0E046EB7EC44
:1013400001F0090E0024056E000E00BEFF0E066EB1
:10135000000E062205C000F006C001F0000E06BE19
:10136000FF0E026E036E0036009001360236033621
:10137000003600900136023603368A0E0024F66EDF
:10138000480E0120F76E000E0220F86E0900F5CF1E
:1013900000F00900F5CF01F00900F5CF02F00900D7
:1013A000F5CF03F0D3C404F0D4C405F0D5C406F0DF
:1013B000D6C407F027EC01F000C0D3F401C0D4F488
:1013C00002C0D5F403C0D6F40A0E046ED2C400F0F5
:1013D000B7EC01F008C000F000C001F0000E00BE44
:1013E000FF0E026E036E046E013601900236033664
:1013F0000436013601900236033604368A0E012483
:10140000F66E480E0220F76E000E0320F86E0900FB
:10141000F5CF00F00900F5CF01F00900F5CF02F09B
:101420000900F5CF03F0D3C404F0D4C405F0D5C44B
:1014300006F0D6C407F027EC01F01200800E0A0A6D
:10144000006E800ED219005C71E20A0E046ED2C4E6
:1014500000F0B7EC01F0090E0024056E000E00BE8E
:10146000FF0E066E000E062205C000F006C001F059
:10147000000E06BEFF0E026E036E003600900136AF
:1014800002360336003600900136023603368A0EE5
:101490000024F66E480E0120F76E000E0220F86E52
:1014A0000900F5CFD3F40900F5CFD4F40900F5CF46
:1014B000D5F40900F5CFD6F40A0E046ED2C400F0BC
:1014C000B7EC01F008C000F000C001F0000E00BE53
:1014D000FF0E026E036E046E013601900236033673
:1014E0000436013601900236033604368A0E012492
:1014F000F66E480E0220F76E000E0320F86E09000B
:10150000F5CF00F00900F5CF01F00900F5CF02F0AA
:101510000900F5CF03F0D3C404F0D4C405F0D5C45A
:1015200006F0D6C407F027EC01F01200D2C400F098
:10153000000ED2BFFF0E016E026E036E00360090E9
:101540000136023603360036009001360236033685
:101550008A0E0024F66E480E0120F76E000E02205F
:10156000F86E0900F5CF00F00900F5CF01F0090091
:10157000F5CF02F00900F5CF03F01200800ED2196A
:10158000006E800E6E0A005CD8A0C0D0640E046E9F
:10159000D2C400F0B7EC01F0120E0024056E000E6C
:1015A00000BEFF0E066E000E062205C000F006C04B
:1015B00001F0000E06BEFF0E026E036E00360090B4
:1015C0000136023603360036009001360236033605
:1015D000BE0E0024F66E480E0120F76E000E0220AB
:1015E000F86E0900F5CFD3F40900F5CFD4F4090063
:1015F000F5CFD5F40900F5CFD6F4640E046ED2C44D
:1016000000F0B7EC01F008C000F00A0E046EB7EC71
:1016100001F0090E0024056E000E00BEFF0E066EDE
:10162000000E062205C000F006C001F0000E06BE46
:10163000FF0E026E036E003600900136023603364E
:1016400000360090013602360336BE0E0024F66ED8
:10165000480E0120F76E000E0220F86E0900F5CF4B
:1016600000F00900F5CF01F00900F5CF02F0090004
:10167000F5CF03F0D3C404F0D4C405F0D5C406F00C
:10168000D6C407F027EC01F000C0D3F401C0D4F4B5
:1016900002C0D5F403C0D6F40A0E046ED2C400F022
:1016A000B7EC01F008C000F000C001F0000E00BE71
:1016B000FF0E026E036E046E013601900236033691
:1016C000043601360190023603360436BE0E01247C
:1016D000F66E480E0220F76E000E0320F86E090029
:1016E000F5CF00F00900F5CF01F00900F5CF02F0C9
:1016F0000900F5CF03F0D3C404F0D4C405F0D5C479
:1017000006F0D6C407F027EC01F01200800E0A0A9A
:10171000006E800ED219005C71E20A0E046ED2C413
:1017200000F0B7EC01F0090E0024056E000E00BEBB
:10173000FF0E066E000E062205C000F006C001F086
:10174000000E06BEFF0E026E036E003600900136DC
:101750000236033600360090013602360336BE0EDE
:101760000024F66E480E0120F76E000E0220F86E7F
:101770000900F5CFD3F40900F5CFD4F40900F5CF73
:10178000D5F40900F5CFD6F40A0E046ED2C400F0E9
:10179000B7EC01F008C000F000C001F0000E00BE80
:1017A000FF0E026E036E046E0136019002360336A0
:1017B000043601360190023603360436BE0E01248B
:1017C000F66E480E0220F76E000E0320F86E090038
:1017D000F5CF00F00900F5CF01F00900F5CF02F0D8
:1017E0000900F5CF03F0D3C404F0D4C405F0D5C488
:1017F00006F0D6C407F027EC01F01200D2C400F0C6
:10180000000ED2BFFF0E016E026E036E0036009016
:1018100001360236033600360090013602360336B2
:10182000BE0E0024F66E480E0120F76E000E022058
:10183000F86E0900F5CF00F00900F5CF01F00900BE
:0C184000F5CF02F00900F5CF03F0120014
:10184C000A6A0350D8A40A800750D8A40A820A5006
:10185C00D8B489EF0CF0030AD8B442EF0CF00AB0FC
:10186C003DEF0CF006AE87EF0CF085EF0CF002AEFE
:10187C0085EF0CF087EF0CF00250800B0A6E029E85
:10188C000650800B069E0A18D8B453EF0CF00A5081
:10189C00D8B485EF0CF087EF0CF00750035CD8B48C
:1018AC005DEF0CF0D8A079EF0CF07FEF0CF0065048
:1018BC00025CD8B467EF0CF0D8A079EF0CF07FEF96
:1018CC000CF00550015CD8B471EF0CF0D8A079EF96
:1018DC000CF07FEF0CF00450005CD8B489EF0CF0E6
:1018EC00D8B07FEF0CF00A52D8B487EF0CF085EF2C
:1018FC000CF00A52D8B485EF0CF087EF0CF0D880BE
:0E190C001200D8901200D880D8841200120069
:10191A000B6A0C6A0A6A086A0350D8B415EF0DF00C
:10192A00028E9E0E035E03BEA0EF0CF0D8B4A0EFA9
:10193A000CF005EF0DF0036C080E035CD8A0D2EF93
:10194A000CF0036E083600C008F001C000F002C0B7
:10195A0001F0026A080E035CD8A0D2EF0CF0036E05
:10196A00083600C008F001C000F0016A080E035CE6
:10197A00D8A0D2EF0CF0036E083600C008F0006A57
:10198A00080E035CD8A0D2EF0CF0036E0836086A82
:10199A000350D8A4D890DEEF0CF00350D8B4DEEF91
:1019AA000CF0D8900232013200320832032ED6EF00
:1019BA000CF00BBC08A0EFEF0CF0D8A0EFEF0CF086
:1019CA00082AD8B4002AD8B4012AD8B4022A02BEF6
:1019DA0019EF0DF00AAE15EF0DF0021E011E001EE2
:1019EA00081E082AD8B4002AD8B4012AD8B4022A70
:1019FA0015EF0DF0026A016A006A086A15EF0DF028
:101A0A000B800BAE1FEF0DF0026A0AAE1FEF0DF04E
:101A1A00026E016E006E086E0A3602321FEF0DF07A
:101A2A00000E0C6A20EF0DF0010E0C6E26EC04F08D
:101A3A0020EF0DF0FF0E0250036E0150026E0050AF
:081A4A00016E0850006E12004D
:101A520003500718D8A43DEF0DF002500618D8A481
:101A62003DEF0DF001500518D8A43DEF0DF00050E8
:0E1A72000418D8B4D8841200D89412001200C0
:101A80000401D251390806E3300ED25D03E3010EA2
:081A9000006E01D0006A120093
:101A98000401CA6BCB6BBE6BBF6BB4C400F0B5C49A
:101AA80001F0B6C402F0010EB427000EB523B62328
:101AB80000C0F6FF01C0F7FF02C0F8FF0900F5CF2C
:101AC80000F000C0BBF40052D8B481EF1DF0BB5148
:101AD800250A0BE0B2C4E1FFB3C4E2FFBBC4E6FFD2
:101AE800B24BB32BCA4BCB2BD8D7BC6BBD6BBE6BE1
:101AF800BF6B23D0BE87010EB427000EB523B623D3
:101B080059D0BE81010EB427000EB523B62352D09A
:101B1800BE83010EB427000EB523B6234BD0BF8772
:101B2800010EB427000EB523B62344D0BE85010E9E
:101B3800B427000EB523B6233DD0B4C4F6FFB5C410
:101B4800F7FFB6C4F8FF0900F5CF01F001502D0AE0
:101B5800D1E0B4C4F6FFB5C4F7FFB6C4F8FF090076
:101B6800F5CF01F00150200ACCE0B4C4F6FFB5C4AB
:101B7800F7FFB6C4F8FF0900F5CF01F001502B0AB2
:101B8800C7E0B4C4F6FFB5C4F7FFB6C4F8FF090050
:101B9800F5CF01F00150230AC2E0B4C4F6FFB5C482
:101BA800F7FFB6C4F8FF0900F5CF01F00150300A7D
:101BB800BDE001D09ED7BEA301D0BE91BEA701D083
:101BC800BE95B4C4F6FFB5C4F7FFB6C4F8FF090064
:101BD800F5CF00F0000E016E00C0D2F44DDF0052C8
:101BE80035E0BC6BBD6BBCC400F0BDC401F00A0E8F
:101BF800046E000E056EFEEC07F0B4C4F6FFB5C423
:101C0800F7FFB6C4F8FF0900F5CF02F00250002430
:101C1800BC6F000E0120BD6F300EBC5F000EBD5BB7
:101C2800010EB427000EB523B623B4C4F6FFB5C41D
:101C3800F7FFB6C4F8FF0900F5CF00F0000E016EFB
:101C480000C0D2F419DF0052CEE135D0B4C4F6FF9B
:101C5800B5C4F7FFB6C4F8FF0900F5CF01F001508D
:101C68002A0A29E1B7C4E9FFB8C4EAFFEECF00F0B9
:101C7800EECF01F000C0E9FF01C0EAFFEECFBCF4EF
:101C8800EECFBDF4B7C4E9FFB8C4EAFFEECF00F069
:101C9800EECF01F0020E0026000E0122B7C4E1FFCC
:101CA800B8C4E2FF00C0E6FF01C0E6FF010EB4279A
:101CB800000EB523B623B4C4F6FFB5C4F7FFB6C407
:101CC800F8FF0900F5CF01F001502E0A71E1010E6D
:101CD800B427000EB523B623B4C4F6FFB5C4F7FF86
:101CE800B6C4F8FF0900F5CF01F001502A0A2AE12D
:101CF800B7C4E9FFB8C4EAFFEECF00F0EECF01F0B9
:101D080000C0E9FF01C0EAFFEECFB9F4EECFBAF4A4
:101D1800B7C4E9FFB8C4EAFFEECF00F0EECF01F098
:101D2800020E0026000E0122B7C4E1FFB8C4E2FF8C
:101D380000C0E6FF01C0E6FF010EB427000EB52380
:101D4800B62335D0B96BBA6BB4C4F6FFB5C4F7FF88
:101D5800B6C4F8FF0900F5CF00F0000E016E00C010
:101D6800D2F48ADE005223E0B9C400F0BAC401F00C
:101D78000A0E046E000E056EFEEC07F0B4C4F6FF02
:101D8800B5C4F7FFB6C4F8FF0900F5CF02F002505A
:101D98000024B96F000E0120BA6F300EB95F000E33
:101DA800BA5B010EB427000EB523B623CDD703D0F6
:101DB800B96BBA6BBF89B4C400F0B5C401F0B6C43E
:101DC80002F0010EB427000EB523B62300C0F6FFBB
:101DD80001C0F7FF02C0F8FF0900F5CFBBF400D13E
:101DE800CAC400F0CBC401F01200BE89E4D7BF8595
:101DF80036D1BE8BBF8133D1BF8331D1BE8D2FD1B8
:101E08002ED1BE8BBE8F2BD1B7C4E9FFB8C4EAFF71
:101E1800EECF00F0EECF01F000C0E9FF01C0EAFF0D
:101E2800EECF00F0EECF01F000C0C6F401C0C7F459
:101E3800B7C4E9FFB8C4EAFFEECF00F0EECF01F077
:101E4800020E0026000E0122B7C4E1FFB8C4E2FF6B
:101E580000C0E6FF01C0E6FF000EC71902E1000E50
:101E6800C61904E1340EC66F000EC76FC86BC96B84
:101E7800C851C625E96EC951C721EA6EEE520BE07A
:101E8800010EC825006E000EC921016E00C0C8F4FD
:101E980001C0C9F4EDD7B951BA110AE0C951BA5D08
:101EA80002E1C851B95D04E2B9C4C8F4BAC4C9F4BE
:101EB800BD51C95D02E1BC51C85D05E2C851BC5FB6
:101EC800C951BD5B02D0BC6BBD6BBEB716D0BCC4DC
:101ED80000F0BDC401F0010EBC5F000EBD5B0050F8
:101EE80001100BE0B2C4E1FFB3C4E2FF200EE66EBE
:101EF800B24BB32BCA4BCB2BEAD7C8C402F0C9C428
:101F080003F0010EC85D006E000EC959016E00C0D5
:101F1800C8F401C0C9F40250031019E0C6C4E9FFAF
:101F2800C7C4EAFFB2C4E1FFB3C4E2FFEECFE6FFE5
:101F3800B24BB32B010EC625006E000EC721016EF1
:101F480000C0C6F401C0C7F4CA4BCB2BD6D7BEA776
:101F580016D0BCC400F0BDC401F0010EBC5F000E79
:101F6800BD5B005001100BE0B2C4E1FFB3C4E2FF57
:101F7800200EE66EB24BB32BCA4BCB2BEAD78DD5CE
:101F8800B7C4E9FFB8C4EAFFEECF00F0EECF01F026
:101F980000C0E9FF01C0EAFFEECFBBF4B7C4E9FF18
:101FA800B8C4EAFFEECF00F0EECF01F0020E002633
:101FB800000E0122B7C4E1FFB8C4E2FF00C0E6FF8B
:101FC80001C0E6FFBB0EC66F040EC76F010EC86FD7
:101FD800000EC96F60D7C00EBE13000EBF133FD0EE
:101FE800BB51000AD8B4FCD6BB516C0AD8B4FDD694
:101FF800BB514C0AD8B4F9D6BB51660AD8B4F7D647
:10200800BB51450AD8B4F5D6BB51650AD8B4F2D647
:10201800BB51670AD8B4F0D6BB516F0AD8B4EED614
:10202800BB51640AD8B4ECD6BB51690AD8B4E8D617
:10203800BB51700AD8B4E5D6BB51580AD8B4E1D61A
:10204800BB51780AD8B4DED6BB51730AD8B4DCD6F3
:10205800BB51630A95E0BB51750ABDE0B3D7000ECA
:10206800BE15006EBF51070B016E00500110D8B4A9
:102078000CEF19F0BFA904D0060EB96F000EBA6FA5
:10208800B7C4E9FFB8C4EAFFEECF00F0EECF01F025
:1020980000C0E9FF01C0EAFFEECFC0F4EECFC1F403
:1020A800EECFC2F4EECFC3F4B7C4E9FFB8C4EAFF79
:1020B800EECF00F0EECF01F0040E0026000E012254
:1020C800B7C4E1FFB8C4E2FF00C0E6FF01C0E6FF05
:1020D800046A056A066A076AC0C400F0C1C401F050
:1020E800C2C402F0C3C403F026EC0CF0010ED8B051
:1020F800000E006E005205E0C27F030EBE13000EF4
:10210800BF13C46BC56BC0C400F0C1C401F0C2C426
:1021180002F0C3C403F0046A056A066A076A95DC1C
:10212800000ED8A4010E006E0052D8B48AD0C3C4E1
:1021380000F0016A026A036AFF0E0016000E01161B
:102148007E0E005E000E015A00C0C4F401C0C5F442
:10215800010E005E000E015A00C0C4F401C0C5F4AF
:10216800030E046E000E056EFEEC07F000C0C4F40A
:1021780001C0C5F40A0E046E000E056EE4EC08F00A
:1021880000C0C4F401C0C5F4800E0118026E800EB0
:10219800025C02E1000E005C05E2010E0401C45F6E
:1021A800000EC55B0401C4510008D26F48EC09F069
:1021B800C0C404F0C1C405F0C2C406F0C3C407F02B
:1021C80027EC01F000C0C6F401C0C7F402C0C8F48F
:1021D80003C0C9F4000E046E000E056E000E066EF4
:1021E8007F0E076EC6C400F0C7C401F0C8C402F071
:1021F800C9C403F026EC0CF0010ED8B0000E006E36
:10220800005205E0010EC45F000EC55B1AD0000E37
:10221800046E000E056E200E066E820E076EC6C492
:1022280000F0C7C401F0C8C402F0C9C403F026EC2A
:102238000CF0000ED8B0010E006E005202E0C44B44
:10224800C52B800E006E800EC519005C02E1C451DA
:10225800000803E3010EBB6F02D0C4C4BBF4BFB1D6
:1022680018D0BFA315D0800EC519006E7F0E005C74
:1022780002E1FC0EC45D0BE3800EC519006E800EF2
:10228800BA19005C02E1B951C45D01E201D001D084
:10229800F1D3B951BA1106E0BFA304D0010EB95F5A
:1022A800000EBA5B000E006EBA51005C02E1B95133
:1022B800080803E2080EBB6F02D0B9C4BBF4C0C45F
:1022C80000F0C1C401F0C2C402F0C3C403F0046A40
:1022D800056A066A076A29EC0DF0000ED8A4010EFB
:1022E800006E0052D8B44BD1C4C4D2F448EC09F003
:1022F80000C004F001C005F002C006F003C007F0FA
:10230800C0C400F0C1C401F0C2C402F0C3C403F0E9
:1023180026EC08F000C0C0F401C0C1F402C0C2F449
:1023280003C0C3F40401BB510008D26F48EC09F0A4
:1023380000C004F001C005F002C006F003C007F0B9
:10234800C0C400F0C1C401F0C2C402F0C3C403F0A9
:1023580026EC08F000C0CCF401C0CDF402C0CEF4E5
:1023680003C0CFF4CCC4C0F4CDC4C1F4CEC4C2F40D
:10237800CFC4C3F4CCC400F0CDC401F0CEC402F085
:10238800CFC403F08DEC0CF0FBEC04F000C004F0BB
:1023980001C005F002C006F003C007F0CCC400F08D
:1023A800CDC401F0CEC402F0CFC403F0F8EC04F0C1
:1023B800000E046E000E056E000E066E7E0E076E91
:1023C80026EC0CF0000ED8B0010E006E00521AE098
:1023D800C0C400F0C1C401F0C2C402F0C3C403F019
:1023E800000E046E000E056E000E066E7E0E076E61
:1023F80006EC02F000C0C0F401C0C1F402C0C2F48F
:1024080003C0C3F4C0C400F0C1C401F0C2C402F0E8
:10241800C3C403F08DEC0CF00401BB51010F096E2D
:102428000A6A000E0A2209C004F00AC005F0000E6C
:102438000ABEFF0E066E076E043604900536063691
:10244800073604360490053606360736220E04246D
:10245800F66E490E0520F76E000E0620F86E09008C
:10246800F5CF05F00900F5CF06F00900F5CF07F024
:102478000900F5CF08F00850035C08E10750025C3A
:1024880005E10650015C02E10550005C1EE3040111
:10249800C0C400F0C1C401F0C2C402F0C3C403F058
:1024A800CD0E046ECC0E056E4C0E066E7B0E076EBE
:1024B80027EC01F000C0C0F401C0C1F402C0C2F4AE
:1024C80003C0C3F4C44BC52B5AD0C0C400F0C1C468
:1024D80001F0C2C402F0C3C403F08DEC0CF0BBC41D
:1024E80004F0000E056E066E076E0436049005367D
:1024F8000636073604360490053606360736220EA9
:102508000424F66E490E0520F76E000E0620F86EBC
:102518000900F5CF05F00900F5CF06F00900F5CF61
:1025280007F00900F5CF08F00850035C08E10750F0
:10253800025C05E10650015C02E10550005C1FE207
:102548000401C0C400F0C1C401F0C2C402F0C3C495
:1025580003F0000E046E000E056E200E066E820E4D
:10256800076E27EC01F000C0C0F401C0C1F402C03E
:10257800C2F403C0C3F4010EC45F000EC55B0401BE
:10258800BFA393D0BFB791D0800E000A006E800E13
:10259800BA19005C02E1B9510A0804E20A0EB96FDF
:1025A800000EBA6FC0C400F0C1C401F0C2C402F08A
:1025B800C3C403F08DEC0CF000C0C6F401C0C7F42E
:1025C80002C0C8F403C0C9F4C651C711C811C91163
:1025D80042E00A0E046E000E056E066E076EC6C453
:1025E80000F0C7C401F0C8C402F0C9C403F00EEC7F
:1025F80005F008C000F009C001F00AC002F00BC0E5
:1026080003F0000E046E031808E10450021805E1F7
:102618000450011802E10050000A1DE1010EB95FE3
:10262800000EBA5B0A0E046E000E056E066E076E8B
:10263800C6C400F0C7C401F0C8C402F0C9C403F09E
:102648000EEC05F000C0C6F401C0C7F402C0C8F41F
:1026580003C0C9F4B9D7800EBA19006E800E005CA9
:1026680002E1BB51B95D21E2B951BB5DD26F48ECC3
:1026780009F000C004F001C005F002C006F003C074
:1026880007F0C0C400F0C1C401F0C2C402F0C3C462
:1026980003F026EC08F000C0C0F401C0C1F402C089
:1026A800C2F403C0C3F4B9C4BBF4050E0401B925D0
:1026B800006E000EBA21016E0050BC5F0150BD5B78
:1026C800B951BA1103E1BFB701D004D0010EBC5F04
:1026D800000EBD5B030EBE15006EBFC401F0000EF8
:1026E80001160050011004E0010EBC5F000EBD5B36
:1026F800BEA539D0BEA312D0BEA103D02D0E006E48
:1027080002D02B0E006EB2C4E1FFB3C4E2FF00C0DA
:10271800E6FFB24BB32BCA4BCB2B0CD0BEA10AD0D1
:10272800B2C4E1FFB3C4E2FF200EE66EB24BB32B96
:10273800CA4BCB2B800E006E800EBD19005C02E1E7
:10274800BC5100080FE2B2C4E1FFB3C4E2FF300E8F
:10275800E66EB24BB32BCA4BCB2B010EBC5F000EFF
:10276800BD5BE8D73AD0BEB718D0800E006E800E99
:10277800BD19005C02E1BC5100080FE2B2C4E1FFE0
:10278800B3C4E2FF200EE66EB24BB32BCA4BCB2B81
:10279800010EBC5F000EBD5BE8D7BEA312D0BEA180
:1027A80003D02D0E006E02D02B0E006EB2C4E1FFD6
:1027B800B3C4E2FF00C0E6FFB24BB32BCA4BCB2B2E
:1027C8000CD0BEA10AD0B2C4E1FFB3C4E2FF200E10
:1027D800E66EB24BB32BCA4BCB2BC0C400F0C1C4BE
:1027E80001F0C2C402F0C3C403F08DEC0CF000C0C9
:1027F800C6F401C0C7F402C0C8F403C0C9F4BBC41E
:1028080000F0000E016E026E036E00360090013675
:102818000236033600360090013602360336220EA1
:102828000024F66E490E0120F76E000E0220F86EA5
:102838000900F5CF04F00900F5CF05F00900F5CF40
:1028480006F00900F5CF07F0C6C400F0C7C401F0D0
:10285800C8C402F0C9C403F00EEC05F0300E00261F
:10286800B2C4E1FFB3C4E2FF00C0E6FFB24BB32B32
:10287800CA4BCB2BB951BA1103E1BFB701D06FD006
:10288800B2C4E1FFB3C4E2FF2E0EE66EB24BB32B27
:10289800CA4BCB2BBB51B95F000EBA5BBB534DE0A3
:1028A800BB07BBC400F0000E016E026E036E00365B
:1028B80000900136023603360036009001360236A3
:1028C8000336220E0024F66E490E0120F76E000E24
:1028D8000220F86E0900F5CF04F00900F5CF05F0E5
:1028E8000900F5CF06F00900F5CF07F0C6C400F0DF
:1028F800C7C401F0C8C402F0C9C403F00EEC05F067
:102908000A0E046E000E056E066E076E0EEC05F0DC
:1029180008C000F009C001F00AC002F00BC003F0C3
:10292800300E0026B2C4E1FFB3C4E2FF00C0E6FFE8
:10293800B24BB32BCA4BCB2BB1D7B951BA110FE05D
:10294800B2C4E1FFB3C4E2FF300EE66EB24BB32B64
:10295800CA4BCB2B010EB95F000EBA5BEED7BEABEC
:102968000BD0B2C4E1FFB3C4E2FF450EE66EB24B32
:10297800B32BCA4BCB2B0AD0B2C4E1FFB3C4E2FFDE
:10298800650EE66EB24BB32BCA4BCB2B800EC51926
:10299800006E800E005C02E1000EC45D11E2C451BD
:1029A8000008C46FC551000EC557B2C4E1FFB3C4D7
:1029B800E2FF2D0EE66EB24BB32BCA4BCB2B0AD0DF
:1029C800B2C4E1FFB3C4E2FF2B0EE66EB24BB32BE9
:1029D800CA4BCB2B0A0E046E000E056EC4C400F061
:1029E800C5C401F0E4EC08F0300E0026B2C4E1FFE3
:1029F800B3C4E2FF00C0E6FF0401B24BB32BCA4BDD
:102A0800CB2B0A0E046E000E056EC4C400F0C5C4BC
:102A180001F0E4EC08F008C000F009C001F0300E45
:102A28000026B2C4E1FFB3C4E2FF00C0E6FF040120
:102A3800B24BB32BCA4BCB2BBEA71AD0800E006E5D
:102A4800800EBD19005C02E1BC51000811E2B2C45D
:102A5800E1FFB3C4E2FF200EE66EB24BB32BCA4BC4
:102A6800CB2B010EBC5F000EBD5BBC51BD11EFE16D
:102A780051EF0DF0BFA3F3D0800EC519006E800E84
:102A8800005C02E1000EC45D0AE2010EC45D006E46
:102A9800000EC559016E0050B95F0150BA5BC0C441
:102AA80000F0C1C401F0C2C402F0C3C403F08DEC4D
:102AB8000CF000C0C6F401C0C7F402C0C8F403C0DB
:102AC800C9F4010EBB6FBB510A0A34E0BBC400F065
:102AD800000E016E026E036E00360090013602365B
:102AE800033600360090013602360336220E0024E3
:102AF800F66E490E0120F76E000E0220F86E0900EE
:102B0800F5CF01F00900F5CF02F00900F5CF03F089
:102B18000900F5CF04F00450C95D08E10350C85D11
:102B280005E10250C75D02E10150C65D01E202D035
:102B3800BB2BC9D7BB51B95DD06F000EBA59D16F45
:102B4800D0C4B9F4D1C4BAF4C6C400F0C7C401F003
:102B5800C8C402F0C9C403F0FBEC04F000C004F0E0
:102B680001C005F002C006F003C007F0C0C400F0C1
:102B7800C1C401F0C2C402F0C3C403F0F8EC04F00D
:102B880000C0CCF401C0CDF402C0CEF403C0CFF431
:102B9800D0C4D2F448EC09F0CCC404F0CDC405F09C
:102BA800CEC406F0CFC407F027EC01F0000E046E87
:102BB800000E056E000E066E7E0E076E06EC02F025
:102BC8008DEC0CF000C0C6F401C0C7F402C0C8F414
:102BD80003C0C9F4B951BA1142E00A0E046E000EDE
:102BE800056E066E076EC6C400F0C7C401F0C8C4FF
:102BF80002F0C9C403F00EEC05F008C000F009C0EB
:102C080001F00AC002F00BC003F0000E046E0318B6
:102C180008E10450021805E10450011802E10050CF
:102C2800000A1DE10A0E046E000E056E066E076EA0
:102C3800C6C400F0C7C401F0C8C402F0C9C403F098
:102C48000EEC05F000C0C6F401C0C7F402C0C8F419
:102C580003C0C9F4010EB95F000EBA5BBBD7800E82
:102C6800006E800EBA19005C02E1B9510C0816E337
:102C7800B9C4D2F484EC06F0C0C404F0C1C405F0B1
:102C8800C2C406F0C3C407F006EC02F000C0C0F4EA
:102C980001C0C1F402C0C2F403C0C3F4C0C400F050
:102CA800C1C401F0C2C402F0C3C403F0046A056AD7
:102CB800066A076A29EC0DF0000ED8A4010E006E12
:102CC8000052D8B477D0C0C400F0C1C401F0C2C467
:102CD80002F0C3C403F08DEC0CF0000E046E031870
:102CE80008E10450021805E10450011802E10050FF
:102CF800000A60E1800E006E800EC519005C02E1DA
:102D0800C451010857E2C4C4D2F448EC09F000C029
:102D180004F001C005F002C006F003C007F0C0C40B
:102D280000F0C1C401F0C2C402F0C3C403F026EC31
:102D380008F05F0E046E700E056E090E066E810EA9
:102D4800076E26EC0CF0010ED8B0000E006E005293
:102D580006E0090E0401C45F000EC55B05D004013E
:102D6800080EC45F000EC55BC4C4D2F448EC09F079
:102D780000C004F001C005F002C006F003C007F06F
:102D8800C0C400F0C1C401F0C2C402F0C3C403F05F
:102D980026EC08F08DEC0CF000C0C6F401C0C7F4B6
:102DA80002C0C8F403C0C9F40401C06BC16BC26B94
:102DB800C36B38D0C0C400F0C1C401F0C2C402F073
:102DC800C3C403F08DEC0CF000C0C6F401C0C7F416
:102DD80002C0C8F403C0C9F4C6C400F0C7C401F0F7
:102DE800C8C402F0C9C403F0FBEC04F000C004F04E
:102DF80001C005F002C006F003C007F0C0C400F02F
:102E0800C1C401F0C2C402F0C3C403F0F8EC04F07A
:102E180000C0C0F401C0C1F402C0C2F403C0C3F4CE
:102E2800C46BC56B010EBB6FBB510A0A34E0BBC44F
:102E380000F0000E016E026E036E0036009001363F
:102E48000236033600360090013602360336220E6B
:102E58000024F66E490E0120F76E000E0220F86E6F
:102E68000900F5CF01F00900F5CF02F00900F5CF10
:102E780003F00900F5CF04F00450C95D08E10350E0
:102E8800C85D05E10250C75D02E10150C65D01E27F
:102E980002D0BB2BC9D7BB51B925006E000EBA2191
:102EA800016EC4510026C55101220050BC5F01507B
:102EB800BD5BBFB704D0B951BA1101E104D0010E0E
:102EC800BC5F000EBD5B030EBE15006EBFC401F0F3
:102ED800000E01160050011004E0010EBC5F000E48
:102EE800BD5BBEA539D0BEA312D0BEA103D02D0EA6
:102EF800006E02D02B0E006EB2C4E1FFB3C4E2FF35
:102F080000C0E6FFB24BB32BCA4BCB2B0CD0BEA1F3
:102F18000AD0B2C4E1FFB3C4E2FF200EE66EB24BA2
:102F2800B32BCA4BCB2B800E006E800EBD19005CF4
:102F380002E1BC5100080FE2B2C4E1FFB3C4E2FFF2
:102F4800300EE66EB24BB32BCA4BCB2B010EBC5FD7
:102F5800000EBD5BE8D73AD0BEB718D0800E006E21
:102F6800800EBD19005C02E1BC5100080FE2B2C43A
:102F7800E1FFB3C4E2FF200EE66EB24BB32BCA4B9F
:102F8800CB2B010EBC5F000EBD5BE8D7BEA312D0F1
:102F9800BEA103D02D0E006E02D02B0E006EB2C45F
:102FA800E1FFB3C4E2FF00C0E6FFB24BB32BCA4B4C
:102FB800CB2B0CD0BEA10AD0B2C4E1FFB3C4E2FF50
:102FC800200EE66EB24BB32BCA4BCB2BBBC400F022
:102FD800BB0700524CE0BBC400F0000E016E026E4D
:102FE800036E003600900136023603360036009034
:102FF800013602360336220E0024F66E490E0120F1
:10300800F76E000E0220F86E0900F5CF04F00900F3
:10301800F5CF05F00900F5CF06F00900F5CF07F068
:10302800C6C400F0C7C401F0C8C402F0C9C403F0A4
:103038000EEC05F00A0E046E000E056E066E076EA5
:103048000EEC05F008C000F009C001F00AC002F05B
:103058000BC003F0300E0026B2C4E1FFB3C4E2FF98
:1030680000C0E6FFB24BB32BCA4BCB2BAFD7800EB9
:10307800006E800EC519005C02E1C45100080FE221
:10308800B2C4E1FFB3C4E2FF300EE66EB24BB32B1D
:10309800CA4BCB2B010EC45F000EC55BE8D7800E70
:1030A800000A006E800EBA19005C02E1B9510808E6
:1030B80003E2080EBB6F02D0B9C4BBF4BB51B95FC1
:1030C800000EBA5BBB5303E1BFB701D00AD0B2C44C
:1030D800E1FFB3C4E2FF2E0EE66EB24BB32BCA4B30
:1030E800CB2BBBC4D2F448EC09F0C0C404F0C1C473
:1030F80005F0C2C406F0C3C407F027EC01F060EC89
:1031080004F000C0C6F401C0C7F402C0C8F403C08C
:10311800C9F4BB534DE0BB07BBC400F0000E016E01
:10312800026E036E00360090013602360336003612
:103138000090013602360336220E0024F66E490E40
:103148000120F76E000E0220F86E0900F5CF04F09A
:103158000900F5CF05F00900F5CF06F00900F5CF15
:1031680007F0C6C400F0C7C401F0C8C402F0C9C45F
:1031780003F00EEC05F00A0E046E000E056E066EE6
:10318800076E0EEC05F008C000F009C001F00AC097
:1031980002F00BC003F0300E0026B2C4E1FFB3C446
:1031A800E2FF00C0E6FFB24BB32BCA4BCB2BB1D723
:1031B800B951BA110FE0B2C4E1FFB3C4E2FF300E57
:1031C800E66EB24BB32BCA4BCB2B010EB95F000E88
:1031D800BA5BEED7BEA71AD0800E006E800EBD195E
:1031E800005C02E1BC51000811E2B2C4E1FFB3C4C3
:1031F800E2FF200EE66EB24BB32BCA4BCB2B010E6F
:10320800BC5F000EBD5BBC51BD11EFE151EF0DF08D
:10321800C00EBE15016EBFC402F0000E0216000EED
:10322800021802E1000E0118D8A48CD0BEA931D032
:10323800B7C4E9FFB8C4EAFFEECF00F0EECF01F063
:1032480000C0E9FF01C0EAFFEECF00F0EECF01F0C9
:10325800EECF02F0EECF03F000C0C6F401C0C7F411
:1032680002C0C8F403C0C9F4B7C4E9FFB8C4EAFF90
:10327800EECF00F0EECF01F0040E0026000E012282
:10328800B7C4E1FFB8C4E2FF00C0E6FF01C0E6FF33
:1032980031D0B7C4E9FFB8C4EAFFEECF00F0EECFF3
:1032A80001F000C0E9FF01C0EAFFEECF00F0EECF69
:1032B80001F0000E01BEFF0E026E036E00C0C6F4E0
:1032C80001C0C7F402C0C8F403C0C9F4B7C4E9FF19
:1032D800B8C4EAFFEECF00F0EECF01F0020E0026F0
:1032E800000E0122B7C4E1FFB8C4E2FF00C0E6FF48
:1032F80001C0E6FF800EC919006E800E005C08E16F
:10330800000EC85D05E1000EC75D02E1000EC65D56
:1033180018E2030EBE13000EBF13006A016A026AA8
:10332800036AC651005EC751015AC851025AC951B1
:10333800035A00C0C6F401C0C7F402C0C8F403C0F1
:10334800C9F45ED0BEA931D0B7C4E9FFB8C4EAFF5A
:10335800EECF00F0EECF01F000C0E9FF01C0EAFFB8
:10336800EECF00F0EECF01F0EECF02F0EECF03F09B
:1033780000C0C6F401C0C7F402C0C8F403C0C9F451
:10338800B7C4E9FFB8C4EAFFEECF00F0EECF01F012
:10339800040E0026000E0122B7C4E1FFB8C4E2FF04
:1033A80000C0E6FF01C0E6FF2BD0B7C4E9FFB8C4F0
:1033B800EAFFEECF00F0EECF01F000C0E9FF01C058
:1033C800EAFFEECF00F0EECF01F000C0C6F401C076
:1033D800C7F4000EC86FC96FB7C4E9FFB8C4EAFFE5
:1033E800EECF00F0EECF01F0020E0026000E012213
:1033F800B7C4E1FFB8C4E2FF00C0E6FF01C0E6FFC2
:10340800000EBA1902E1000EB9190FE1000E006EA4
:10341800C91908E10050C81905E10050C71902E1AF
:10342800C651000A02E1B94BBA2BC00EBE15006E98
:1034380000C005F0AED0010EBB6FBB510A0A34E0E4
:10344800BBC400F0000E016E026E036E00360090E1
:10345800013602360336003600900136023603364E
:10346800220E0024F66E490E0120F76E000E02208F
:10347800F86E0900F5CF01F00900F5CF02F0090058
:10348800F5CF03F00900F5CF04F00450C95D08E159
:103498000350C85D05E10250C75D02E10150C65DF9
:1034A80001E202D0BB2BC9D782D0010EBB6FBB5142
:1034B800080A34E0BBC400F0000E016E026E036E11
:1034C8000036009001360236033600360090013689
:1034D800023603364A0E0024F66E490E0120F76EB6
:1034E800000E0220F86E0900F5CF01F00900F5CFB3
:1034F80002F00900F5CF03F00900F5CF04F00450FD
:10350800C95D08E10350C85D05E10250C75D02E1ED
:103518000150C65D01E202D0BB2BC9D748D0010ECD
:10352800BB6FBB510C0A34E0BBC400F0000E016E47
:10353800026E036E003600900136023603360036FE
:103548000090013602360336F20E0024F66E480E5D
:103558000120F76E000E0220F86E0900F5CF01F089
:103568000900F5CF02F00900F5CF03F00900F5CF07
:1035780004F00450C95D08E10350C85D05E102503C
:10358800C75D02E10150C65D01E202D0BB2BC9D77D
:103598000ED00550000AD8B44ED70550C00AD8B48A
:1035A8004AD70550800A81E00550400AB8E0800EED
:1035B800006E800EBA19005C02E1B951BB5D03E2EE
:1035C800B9C4BBF40DD0800EBA19006E800E005C31
:1035D80002E1BB51B95D04E2BBC4B9F4000EBA6F95
:1035E800BC51BD110EE0030EBE15006EBFC401F044
:1035F800000E01160050011004E0010EBC5F000E21
:10360800BD5B800EBA19006E800EBD19005C02E128
:10361800BC51B95D05E2B951BC5FBA51BD5B02D07E
:10362800BC6BBD6BC40EBE15016EBF51080B026E9C
:103638000250080A02E1400E011808E1BC51BD1110
:1036480004E0010EBC5F000EBD5B1CD0C00EBE15B1
:10365800016EBF51080B026E0250080A02E1800E8B
:10366800011810E1800E006E800EBD19005C02E1A9
:10367800BC51020805E2020EBC5F000EBD5B02D021
:10368800BC6BBD6BBEA55DD0BEA312D0BEA103D0DE
:103698002D0E006E02D02B0E006EB2C4E1FFB3C433
:1036A800E2FF00C0E6FFB24BB32BCA4BCB2B34D0A2
:1036B800BEA10BD0B2C4E1FFB3C4E2FF200EE66E98
:1036C800B24BB32BCA4BCB2B27D0C00EBE15016E05
:1036D800BF51080B026E0250080A02E1800E011861
:1036E8001BE1B2C4E1FFB3C4E2FF300EE66EB24B99
:1036F800B32BCA4BCB2BBEAB03D0580E006E02D0F7
:10370800780E006EB2C4E1FFB3C4E2FF00C0E6FF6A
:10371800B24BB32BCA4BCB2BBC51BD1111E0B2C479
:10372800E1FFB3C4E2FF300EE66EB24BB32BCA4BD7
:10373800CB2B010EBC5F000EBD5BBC51BD11EFE190
:1037480074D0BC51BD1113E0BEB711D0B2C4E1FFB3
:10375800B3C4E2FF200EE66EB24BB32BCA4BCB2BA1
:10376800010EBC5F000EBD5BBC51BD11EFE1BEA3F5
:1037780012D0BEA103D02D0E006E02D02B0E006E0B
:10378800B2C4E1FFB3C4E2FF00C0E6FFB24BB32B03
:10379800CA4BCB2B0CD0BEA10AD0B2C4E1FFB3C434
:1037A800E2FF200EE66EB24BB32BCA4BCB2BC00EFA
:1037B800BE15016EBF51080B026E0250080A02E1E5
:1037C800400E01180BE1B2C4E1FFB3C4E2FF300EB2
:1037D800E66EB24BB32BCA4BCB2B27D0C00EBE150F
:1037E800016EBF51080B026E0250080A02E1800EFA
:1037F80001181BE1B2C4E1FFB3C4E2FF300EE66E6C
:10380800B24BB32BCA4BCB2BBEAB03D0580E006EBA
:1038180002D0780E006EB2C4E1FFB3C4E2FF00C06C
:10382800E6FFB24BB32BCA4BCB2B800E006E800E3B
:10383800BA19005C02E1B951BB5D0BE2B2C4E1FF09
:10384800B3C4E2FF300EE66EB24BB32BCA4BCB2BA0
:10385800ECD7B9C400F0BAC401F0010EB95F000E8C
:10386800BA5B00500110D8B42AD1C00EBE15006E44
:1038780000C0CCF40AD1B9C400F0BAC401F0000EFB
:10388800BABFFF0E026E036E003600900136023694
:10389800033600360090013602360336220E002425
:1038A800F66E490E0120F76E000E0220F86E090030
:1038B800F5CF04F00900F5CF05F00900F5CF06F0C3
:1038C8000900F5CF07F0C6C400F0C7C401F0C8C4AA
:1038D80002F0C9C403F00EEC05F00A0E046E000EE7
:1038E800056E066E076E0EEC05F008C000F009C004
:1038F80001F00AC002F00BC003F0300E0024BB6FC9
:10390800D3D0BEAB45D0B9C400F0BAC401F0000EA4
:10391800BABFFF0E026E036E003600900136023603
:103928000336003600900136023603364A0E00246C
:10393800F66E490E0120F76E000E0220F86E09009F
:10394800F5CF04F00900F5CF05F00900F5CF06F032
:103958000900F5CF07F0C6C400F0C7C401F0C8C419
:1039680002F0C9C403F00EEC05F00F0E0016000EAD
:103978000116021603167B0E0024F66E490E01206E
:10398800F76E000E0220F86E0900F5CFBBF444D0A4
:10399800B9C400F0BAC401F0000EBABFFF0E026E3F
:1039A800036E00360090013602360336003600906A
:1039B8000136023603364A0E0024F66E490E0120FF
:1039C800F76E000E0220F86E0900F5CF04F009002A
:1039D800F5CF05F00900F5CF06F00900F5CF07F09F
:1039E800C6C400F0C7C401F0C8C402F0C9C403F0DB
:1039F8000EEC05F00F0E0016000E01160216031647
:103A08006A0E0024F66E490E0120F76E000E0220A1
:103A1800F86E0900F5CFBBF447D0B9C400F0BAC4BA
:103A280001F0000EBABFFF0E026E036E0036009062
:103A38000136023603360036009001360236033668
:103A4800F20E0024F66E480E0120F76E000E0220DA
:103A5800F86E0900F5CF04F00900F5CF05F009006C
:103A6800F5CF06F00900F5CF07F0C6C400F0C7C4CB
:103A780001F0C8C402F0C9C403F00EEC05F0070E4B
:103A88000014BB6F300EBB270FD0CC51000AD8B43E
:103A9800F2D6CC51C00AD8B4EED6CC51800AD8B4EC
:103AA80030D7CC51400AB9E0B2C4E1FFB3C4E2FF59
:103AB800BBC4E6FFB24BB32BCA4BCB2BCAD6BEA7AF
:103AC8001AD0800E006E800EBD19005C02E1BC5158
:103AD800000811E2B2C4E1FFB3C4E2FF200EE66EB3
:103AE800B24BB32BCA4BCB2B010EBC5F000EBD5B98
:103AF800BC51BD11EFE151EF0DF0CAC400F0CBC4C9
:043B080001F01200B6
:103B0C000C6A0E6A0250D8A49FEF1DF001C002F09F
:103B1C0000C001F0006A0E860250D8A49FEF1DF081
:103B2C0001C002F0016A0E960E880250D8B4B1EFB3
:103B3C001DF00E50035ED8A4D8A0B7EF1DF0D8909E
:103B4C0002BEBDEF1DF0003601360236032EA6EF85
:103B5C001DF0B7EF1DF0010E0C6E1AEC00F0C1EF6A
:103B6C001DF0020E0C6E21EC00F0C1EF1DF0040EE6
:083B7C000C6E2EEC00F01200AB
:103B8400B3C403F00332039E0332039E0332039E45
:103B9400070E026E03C000F0000E016E025005E035
:103BA400003600900136FF0FFAD70401B251002409
:103BB400026E000E0120036E070EB315006E660E32
:103BC4000224046E000E0320056E00C001F0010EF5
:103BD400006E015004E000360090FF0FFBD7001E7A
:103BE40004C0E9FF05C0EAFFEE50001604C0E1FF7F
:0A3BF40005C0E2FF00C0E6FF12006A
:103BFE00B3C403F00332039E0332039E0332039ECB
:103C0E00070E026E03C000F0000E016E025005E0BA
:103C1E00003600900136FF0FFAD70401B25100248E
:103C2E00026E000E0120036E070EB315006E660EB7
:103C3E000224046E000E0320056E00C001F0010E7A
:103C4E00006E015004E000360090FF0FFBD704C059
:103C5E00E9FF05C0EAFFEE50001204C0E1FF05C007
:083C6E00E2FF00C0E6FF1200B6
:063C760084948482120018
:103C7C00030E006EB3C4BAF4000E0401BB6F005007
:103C8C0004E0BA33BA9FFF0FFBD7070E006E000E8D
:103C9C00BB6F005005E0BA37BA91BB37FF0FFAD7AC
:103CAC00B251BA27000EBB23070EB317200EB75D17
:103CBC006EE3B7517E086BE3200EB75D006E016AB0
:103CCC00000E015A050E046E000E056EFEEC07F098
:103CDC000050B4270150B523000E01BEFF0EB623D1
:103CEC00B86B050EB85D53E2B4C4B9F4660EBA25D0
:103CFC00026E000EBB21036EB3C401F0B4C400F01D
:103D0C00015004E000360090FF0FFBD7FF0E001AA5
:103D1C0002C0E9FF03C0EAFFEE50001602C0E1FF4B
:103D2C0003C0E2FF00C0E6FF800EBA25006E000E55
:103D3C00BB21016E660E0024026E000E0120036E84
:103D4C00B3510808006E016A000E015A00C001F060
:103D5C00B9C400F0015004E00032009EFF0FFBD705
:103D6C00FF0E001A02C0E9FF03C0EAFFEE50001676
:103D7C0002C0E1FF03C0E2FF00C0E6FFBA4BBB2B61
:103D8C00010EB427000EB523B623B82BAAD7060E06
:0C3D9C00B225006E016A000E0122120028
:103DA800030E006EB3C4BAF4000E0401BB6F0050DA
:103DB80004E0BA33BA9FFF0FFBD7070E006E000E60
:103DC800BB6F005005E0BA37BA91BB37FF0FFAD77F
:103DD800B251BA27000EBB23070EB317200EB75DEA
:103DE80073E3B7517E0870E3200EB75D006E016A79
:103DF800000E015A050E046E000E056EFEEC07F06B
:103E08000050B4270150B523000E01BEFF0EB623A3
:103E1800B86B050EB85D58E2B4C4F6FFB5C4F7FF39
:103E2800B6C4F8FF0900F5CF04F004C0B9F4660E73
:103E3800BA25026E000EBB21036EB3C401F004C0A4
:103E480000F0015004E000360090FF0FFBD702C0DD
:103E5800E9FF03C0EAFFEE50001202C0E1FF03C011
:103E6800E2FF00C0E6FF800EBA25006E000EBB21FF
:103E7800016E660E0024026E000E0120036EB3511F
:103E88000808006E016A000E015A00C001F0B9C4AA
:103E980000F0015004E00032009EFF0FFBD702C083
:103EA800E9FF03C0EAFFEE50001202C0E1FF03C0C1
:103EB800E2FF00C0E6FFBA4BBB2B010EB427000E91
:103EC800B523B623B82BA5D7060EB225006E016A16
:063ED800000E01221200A1
:063EDE00848484921200AE
:103EE400839A838EB2C481FFB2C481FFB2C481FFBE
:0C3EF400B2C481FFB2C481FF839E1200A3
:0C3F00000E0E0D6E0D2EFED700001200FC
:103F0C00838A838EB2C481FFB2C481FFB2C481FFA5
:0C3F1C00B2C481FFB2C481FF839E12007A
:103F2800B2C400F0B3C401F0B4C402F0B5C403F0E5
:103F3800010E0401B25F000EB35BB45BB55B0050C9
:0C3F480001100210031001E0EBD7120082
:103F5400AA0E0401B06F040EB16FA5C4B2F4A6C4D6
:103F6400B3F4A7C4B4F4A8C4B5F4A9C4B6F4B00EA9
:103F7400B76F040EB86F4CEC0DF000C0AEF401C086
:103F8400AFF40050A525E16E0150A621E26EE66A69
:0A3F9400AEC400F0AFC401F012004B
:103F9E00C26A070EC012C08EA5C400F00036009093
:103FAE00003600900050C212C280A3DFC282C2A2AD
:103FBE0001D0FDD7C4CF01F0006AC3500012000E2D
:063FCE000112C290120076
:103FD400080E056E000E066E000E065C02E1010E70
:103FE400055C59E3A5C400F0A6C401F0000E026EFE
:103FF400036E003600900136023603369E0E00240E
:10400400F66E490E0120F76E000E0220F86E0900CC
:10401400F5CF03F00900F5CF04F0010E055C006E46
:10402400000E0658016E00C002F0010E006E000E74
:10403400016E025005E0003600900136FF0FFAD7FA
:1040440003500016045001160050011003E0010E45
:10405400006E01D0006A00B002D0829A01D0828A38
:104064008384030E0C6E970E0D6E0D2EFED70C2E50
:10407400FCD7000000008394030E0C6E970E0D6EA7
:104084000D2EFED70C2EFCD700000000010E055E9D
:08409400000E065AA1D712002C
:10409C00646A656A040E655C02E1000E645C2CE2E5
:1040AC001550800A14E1156A162A84848482070E3E
:1040BC001614006E00C016F0B80E001200C016F0F8
:1040CC0000C0B2F409DF400E0401B26F05DF1550D9
:1040DC003F0801E3FEDE400E155C01E3C6DD660E13
:1040EC006424E96E000E6520EA6EEECFB2F408DFB0
:0A40FC00152A644A652ACED7120087
:104106000900F5CFE6FF0006FBE10106F9E1120022
:104116000050086E0150006E016A026A036A0B6A5B
:104126000C6A960E036E0A6A00C001F008C000F021
:08413600086A026AE8DC1200CD
:10413E000401AC534FE0ABC4AEF4AE51000849E2FB
:10414E000A0E046E000E056E066E076EA7C400F012
:10415E00A8C401F0A9C402F0AAC403F00EEC05F045
:10416E0008C000F009C001F00AC002F00BC003F055
:10417E00300E0024AD6F0A0E046E000E056E066E34
:10418E00076EA7C400F0A8C401F0A9C402F0AAC427
:10419E0003F00EEC05F000C0A7F401C0A8F402C0B5
:1041AE00A9F403C0AAF4AE05006E060E0002F3CF0A
:1041BE0000F00050A525B26FA6C4B3F4600EB46F24
:1041CE00460EB56F000EB66FADC4B7F4E6DDAE07A2
:1041DE00B4D74ED0ABC4AEF4AE51000849E20A0ECD
:1041EE00046E000E056E066E076EA7C400F0A8C41E
:1041FE0001F0A9C402F0AAC403F00EEC05F008C049
:10420E0000F009C001F00AC002F00BC003F0300E3E
:10421E000024AD6F0A0E046E000E056E066E076E5C
:10422E00A7C400F0A8C401F0A9C402F0AAC403F008
:10423E000EEC05F000C0A7F401C0A8F402C0A9F46A
:10424E0003C0AAF4AE05006E060E0002F3CF00F016
:10425E000050A525B26FA6C4B3F4600EB46F460E1F
:10426E00B56F000EB66FADC4B7F401DDAE07B4D7AF
:10427E00060EAB03F3CF00F0F4CF01F0A5510026EC
:06428E00000E01221200E7
:10429400A7C4E9FFA8C4EAFFEE522BE00401A95326
:1042A40012E0A5C4B2F4A6C4B3F4600EB46F460E13
:1042B400B56F000EB66FA7C4E9FFA8C4EAFFEECF3E
:1042C400B7F470DD11D0A5C4B2F4A6C4B3F4600E83
:1042D400B46F460EB56F000EB66FA7C4E9FFA8C44D
:1042E400EAFFEECFB7F4C8DC060EA527A74BA82B30
:0C42F400CFD7A5C400F0000E016E120030
:104300000401A66BA6517F0816E3A76BA7513F08CF
:1043100010E3A55306E0A6C4B2F4A7C4B3F46FDC5F
:1043200005D0A6C4B2F4A7C4B3F42CDC0401A72BB7
:08433000EDD7A62BE7D7120020
:10433800936A96949692959A959C959E9690848069
:1043480084848482839C100E0401B26F270EB36F9D
:10435800000EB46FB56FE4DDC00EB26FBFDD100E96
:10436800B26F270EB36F000EB46FB56FD9DD400E74
:10437800B26FB4DD100EB26F270EB36F000EB46FBC
:10438800B56FCEDDB80EB26FA9DD100EB26F270E75
:10439800B36F000EB46FB56FC3DD3F0EB26F9EDD15
:0643A800849484921200CF
:1043AE00D0EC24F0BE0E0401A16F9F0EA26F1A0E68
:1043BE00A36F7B0EA46FBD6ABA6AC26A0E0EC16E7F
:1043CE00010E926E806A060E0B6E130E0C6EAD0E03
:1043DE000D6E0D2EFED70C2EFCD70B2EFAD700002D
:1043EE000000966A936A956A946AFF0E806E9DDF4E
:1043FE00A56B7FDFA56BA66B410EA76F000EA86F96
:10440E00010EA96F40DFA56B0A0EA66F4B0EA76FAC
:10441E00000EA86F010EA96F36DF600EA56F0A0E93
:10442E00A66F590EA76F000EA86F010EA96F2BDF96
:10443E00A56B140EA66F5B0EA76F000EA86F010E74
:10444E00A96F21DF600EA56F140EA66F530EA76F16
:10445E00000EA86F010EA96F16DF19DE0401A56B01
:10446E00A66BB1DD8386030E0C6E970E0D6E0D2EB0
:10447E00FED70C2EFCD70000000083960401A56B1E
:10448E0038DFA56BA66B220EA76F000EA86F010E6C
:10449E00A96FF9DEA56B0A0EA66F2C0EA76F000E84
:1044AE00A86F010EA96FEFDE600EA56F0A0EA66F44
:1044BE00170EA76F000EA86F010EA96FE4DEA56B95
:1044CE00140EA66F190EA76F000EA86F010EA96F1E
:1044DE00DADE600EA56F140EA66F3B0EA76F000EF0
:1044EE00A86F010EA96FCFDEA56B52DD00C066F47A
:1044FE0001C067F409DE0A0E046E280E056E200E4A
:10450E00066E770E076E27EC01F000C095F401C021
:10451E0096F402C097F403C098F4330E046E330E73
:10452E00056E530E066E7D0E076E26EC08F000C06B
:10453E0099F401C09AF402C09BF403C09CF4A1C488
:10454E0004F0A2C405F0A3C406F0A4C407F095C4F9
:10455E0000F096C401F097C402F098C403F026EC64
:10456E0008F000C09DF401C09EF402C09FF403C089
:10457E00A0F4680E0401A56F040EA66F920EA76F2D
:10458E00490EA86F000EA96F95C4AAF496C4ABF499
:10459E0097C4ACF498C4ADF4D6DC770EA56F040EB8
:1045AE00A66F8C0EA76F490EA86F000EA96F99C447
:1045BE00AAF49AC4ABF49BC4ACF49CC4ADF4C3DCB3
:1045CE00860EA56F040EA66F980EA76F490EA86FE4
:1045DE00000EA96F9DC4AAF49EC4ABF49FC4ACF4A4
:1045EE00A0C4ADF4B0DC3C0EA56FA66B66C4A7F4F8
:1045FE0067C4A8F4000EA96FAA6F040EAB6F010E6C
:10460E00AC6F96DD3C0EA56F0A0EA66F770EA76FE8
:10461E00040EA86F010EA96F36DE3C0EA56F140EA8
:10462E00A66F860EA76F040EA86F010EA96F2BDE64
:10463E002EDD0B0E0B6E260E0C6E5D0E0D6E0D2E00
:10464E00FED70C2EFCD70B2EFAD70000000016D783
:02465E00FFD784
:1049A00010EE15F04F0E006E010E016E3B0EF66E0E
:0E49B000480EF76E000EF86E83EC20F0120039
:10466000000000000000004F0000000700070014D9
:104670007F147F14242A7F2A122313086462364988
:104680005522500005030000001C22410000412279
:104690001C0014083E081408083E080800503000AA
:1046A00000080808080800606000002010080402E4
:1046B0003E5149453E00427F4000426151494621FA
:1046C00041454B311814127F1027454545393C4A66
:1046D00049493001710905033649494936064949B6
:1046E000291E00363600000056360000000814224D
:1046F0004114141414144122140800020159050233
:10470000324979413E7E1111117E7F494949363E39
:10471000414141227F4141221C7F494949417F0952
:104720000909013E4141497A7F0808087F00417F1D
:1047300041002040413F017F081422417F4040401A
:10474000407F020C027F7F0408107F3E4141413EC2
:104750007F090909063E4151215E7F091929464614
:104760004949493101017F01013F4040403F1F203D
:1047700040201F3F4030403F631408146307087017
:1047800008076151494543007F4141000204081078
:10479000200041417F0004020102044040404040AB
:1047A000000102040020545454787F4844443838AF
:1047B00044444420384444487F3854545418087EB4
:1047C0000901020C5252523E7F0804047800447DD5
:1047D00040002040443D007F1028440000417F40BD
:1047E000007C047C04787C08040478384444443811
:1047F0007C14141408081414147C7C08040408485D
:1048000054545420043F4440203C4040207C1C2011
:1048100040201C3C4030403C44281028440C505060
:10482000503C4464544C44000836410000007F0072
:0B4830000000413608001008100800CE
:01483B00007C
:01483C00007B
:02483D00560023
:09483F00436F6E647563742E0072
:0A4848004144432056616C75650081
:08485200566F6C74616765008C
:07485A00286E756C6C29004B
:0648610075532F636D008A
:0A4867004144432056616C75650062
:08487100566F6C74616765006D
:0648790075532F636D0072
:02487F005600E1
:09488100436F6E647563742E0030
:10488A000000007FCDCC4C7B0AD723786F120375CA
:10489A0017B75171ACC5276EBD37066B95BF566702
:1048AA0077CC2B645F700961FFE65B5D08E53C3CF1
:0448BA006042221B1B
:1048BE000000007F000020820000488500007A88FA
:1048CE0000401C8C0050438F0024749280961896E2
:1048DE0020BC3E99286B6E9CF90215A0EC782DC178
:0448EE00CAF249E2DF
:1048F200010000000800000040000000000200006B
:1049020000100000008000000000040000002000F1
:10491200000000010000000800000040000000004C
:10492200010000000A00000064000000E80300002B
:1049320010270000A086010040420F0080969800D8
:0849420000E1F50500CA9A3BF3
:10494A00010000001000000000010000001000003B
:10495A00000001000000100000000001000000102B
:10496A0030313233343536373839616263646566DB
:01497A00003C
:10497B00303132333435363738394142434445468A
:01498B00002B
:06498C0025322E34660006
:0649920025322E34660000
:0649980025322E346600FA
:02499E005B00BC
:020000040030CA
:0D000100021F1EFF8381FF0FC00FE00F40A4
:00000001FF
