:10000000D3EF21F00000000000EF00F0000000003E
:0A0010000000000000000000F3D71C
:10001C000B820BAE18EF00F00368026801680068F1
:08002C000A360232FF0E120039
:0E003400026A016A006A086A036A000E12007E
:100042000B840BAE2CEF00F0010E036E026A016A04
:0A005200006A0A360232FF0E1200A7
:08005C000AAE029E000E120024
:100064000CB074EF00F00CA21AEF01F00E6A000E4F
:1000740002648BEF00F0F00E0214D8A456EF00F0E7
:10008400023A01380F0B02260138F00B016E0038DA
:100094000F0B01260038F00B006E08380F0B0026FA
:1000A4000838F00B086E0E84D89002BE6FEF00F093
:1000B40008360036013602360E2A02BE6FEF00F013
:1000C40008360036013602360E2A02BE6FEF00F003
:1000D40008360036013602360E2A0E50036410EF3D
:1000E40001F0035E0BBC08AE15EF01F0D880800E62
:1000F40008640030000E002201220222D8A015EF6D
:1001040001F0023201320032034A1AEF01F015EF16
:1001140001F001C002F000C001F008C000F0086A5C
:10012400000E0E860264C2EF00F0F00E0214D8A492
:10013400AAEF00F0023A01380F0B02260138F00B47
:10014400016E00380F0B01260038F00B006E0E8490
:10015400D89002BE6FEF00F00036013602360E2A48
:1001640002BE6FEF00F00036013602360E2A02BEE0
:100174006FEF00F00036013602360E2A6FEF00F002
:1001840001C002F000C001F0006A000E0E960E8855
:100194000264EFEF00F0F00E0214D8A4DAEF00F0DE
:1001A400023A01380F0B02260138F00B016E0E845F
:1001B400D89002BE6FEF00F0013602360E2A02BE5E
:1001C4006FEF00F0013602360E2A02BE6FEF00F028
:1001D400013602360E2A6FEF00F001C002F0016A08
:1001E400000E0E8602641FEF01F0F00E0214D8A474
:1001F400FEEF00F0023A0E84D89002BE6FEF00F0DA
:1002040002360E2A02BE6FEF00F002360E2A02BE3C
:100214006FEF00F002360E2A6FEF00F0010E0C6E45
:100224000EDF22EF01F0020E0C6E16DF22EF01F05A
:10023400040E0C6EF1DE22EF01F0080E0C6EF8DEF7
:020244001200A6
:080246000B6A0B86FF0E12008B
:10024E00086A096A000E07620364ACEF01F00250FF
:10025E0006180A6E075003267E0ED8A03DEF01F059
:10026E00035ED8B0B0EF01F041EF01F0035ED8A00D
:10027E00B4EF01F0028E068E02C00EF001C00BF03C
:10028E0000C00DF000500402F4CF0CF00150050236
:10029E00F4CF00F0F3CF08F00402F3500C26F45024
:1002AE000822000E00220D500502F3500C26F450C9
:1002BE000822000E002202500402F3500826F450C9
:1002CE00002202500502016A000E0122F3500026A0
:1002DE00F45001220D500602F3500826F45000226D
:1002EE00026A000E012202220B500602F350002673
:1002FE00F4500122000E02220E500602F350012687
:10030E00F450022202BE94EF01F008360036013698
:10031E0002360306D8B4B4EF01F0A7EF01F0D8808F
:10032E00800E08640030000E002201220222D8A0A6
:10033E00A7EF01F0023201320032034AB0EF01F0B2
:10034E000AAE029E000EB6EF01F0010E6CDEB6EFA5
:10035E0001F0020E5CDEB6EF01F0040E6BDE120051
:10036E000D6A086A0050D8B4000C04180A6E0ABE52
:10037E000D1E0B6A04AE02D0041E042A00A002D089
:10038E00001E002A005004100A6E0ABE1FD0045030
:10039E00085E003600340836045008260036060E75
:1003AE000C6E00340836045000B0085E00A008261B
:1003BE0000360C2EF6D700A008260BB015D00DAEC9
:1003CE00000C001E002A081E082A000C04AE09D0DC
:1003DE0000BE04D00050086E006AF1D7006A002AF1
:1003EE00000C001E0B2AD3D7082A0450085CD8A490
:0E03FE00E6D7086A002A00AEE2D7FF0C120014
:10040C00025006180E6E086A096A0B6A03500764DC
:10041C00F9EF02F006500A6E068E028E03500B6E38
:10042C000750036E000E0B6449EF02F00B50075E91
:10043C00D8B4EAEF02F0070E0764B8EF02F0075EDB
:10044C0000C008F001C000F002C001F0026A074EC3
:10045C00EAEF02F007648DEF02F0075E00C008F0CF
:10046C0001C000F0016A074EEAEF02F007646BEF7F
:10047C0002F0075E00C008F0006A074EEAEF02F0D7
:10048C00076452EF02F00AC002F005C001F004C08C
:10049C0000F0086A14EF04F0030E07645DEF02F03D
:1004AC00075E08380F0B086E074EEAEF02F0D89083
:1004BC000832074EEAEF02F0D8900832074EEAEF06
:1004CC0002F0D8900832EAEF02F0030E07647CEFDA
:1004DC0002F0075E08380F0B086E0038F00B082688
:1004EC0000380F0B006E074EEAEF02F0D890003286
:1004FC000832074EEAEF02F0D89000320832074E6D
:10050C00EAEF02F0D89000320832EAEF02F0030E64
:10051C000764A4EF02F0075E08380F0B086E003872
:10052C00F00B082600380F0B006E0138F00B00267C
:10053C0001380F0B016E074EEAEF02F0D890013232
:10054C0000320832074EEAEF02F0D8900132003246
:10055C000832074EEAEF02F0D8900132003208322E
:10056C00EAEF02F0030E0764D5EF02F0075E0838DD
:10057C000F0B086E0038F00B082600380F0B006EBE
:10058C000138F00B002601380F0B016E0238F00B0E
:10059C00012602380F0B026E074EEAEF02F0D890DC
:1005AC000232013200320832074EEAEF02F0D890E4
:1005BC000232013200320832074EEAEF02F0D890D4
:1005CC000232013200320832096A000E0EAEDEEF42
:1005DC0003F0081E001E011E021E082A0022012222
:1005EC000222DEEF03F00750D8A4FFEF02F014EF65
:1005FC0004F0096A02C00AF0028E068E0750035CF2
:10060C00076ED8B4D1EF03F0070E07649FEF03F029
:10061C00075E0450096E0550046E0650056E066A9E
:10062C00074ED1EF03F0070E076474EF03F0075E7B
:10063C000450096E0550046E056A074ED1EF03F0A5
:10064C00070E076452EF03F0075E0450096E046A4C
:10065C00074ED1EF03F0070E076439EF03F00AC021
:10066C0002F014EF04F0030E076444EF03F0075E8E
:10067C0009380F0B096E074ED1EF03F0D8900932F1
:10068C00074ED1EF03F0D8900932074ED1EF03F0AB
:10069C00D8900932D1EF03F0030E076463EF03F037
:1006AC00075E09380F0B096E0438F00B0926043865
:1006BC000F0B046E074ED1EF03F0D89004320932C1
:1006CC00074ED1EF03F0D89004320932074ED1EF28
:1006DC0003F0D89004320932D1EF03F0030E076413
:1006EC008BEF03F0075E09380F0B096E0438F00B23
:1006FC00092604380F0B046E0538F00B0426053858
:10070C000F0B056E074ED1EF03F0D8900532043273
:10071C000932074ED1EF03F0D8900532043209327A
:10072C00074ED1EF03F0D890053204320932D1EFE5
:10073C0003F0030E0764BCEF03F0075E09380F0BE0
:10074C00096E0438F00B092604380F0B046E0538BB
:10075C00F00B042605380F0B056E0638F00B05263A
:10076C0006380F0B066E074ED1EF03F0D890063209
:10077C00053204320932074ED1EF03F0D89006321D
:10078C00053204320932074ED1EF03F0D89006320D
:10079C00053204320932086A000E0EAEDEEF03F0A9
:1007AC00091E041E051E061E092A04220522062205
:1007BC00095008260450002205500122065002223E
:1007CC000EBEF5EF03F0D8A004EF04F002320132B4
:1007DC0000320832033E04EF04F00EEF04F0D8B000
:1007EC0009EF04F0000E081E001E011E021E082A4E
:1007FC000022012202220A7E09EF04F0010E0C6E87
:10080C002BDC16EF04F0020E0C6E26DC16EF04F057
:10081C00040E0C6E0EEC00F016EF04F0000E0C6ED5
:02082C001200B8
:10082E00086A080E0C6E003408360450085ED8B004
:0E083E0002D00826D89000360C2EF5D71200F6
:10084C000B800BAE32EF04F0026A0AAEFF0E026EA2
:0C085C00016E006E0A360232FF0E120020
:100868000134083609360450085E0550D8A0053C06
:10087800095E003601360F0E0C6E01340836093653
:10088800045000A006D0085E0550D8A0053C095EBB
:1008980005D008260550D8B0053C09260036013693
:1008A8000C2EEBD700B006D0045008260550D8B05F
:0808B800053C092600001200B6
:1008C0000B6A0C6A086A0350D8B4E4EF04F002C063
:1008D0000AF0028E9E0E035E03AED4EF04F0036CAA
:1008E000080E035CD8A0A1EF04F0036E083600C028
:1008F00008F001C000F002C001F0026A080E035CBB
:10090000D8A0A1EF04F0036E083600C008F001C0C3
:1009100000F0016A080E035CD8A0A1EF04F0036E9A
:10092000083600C008F0006A080E035CD8A0A1EFEA
:1009300004F0036E0836086A0350D8A4D890ADEFCF
:1009400004F00350D8B4ADEF04F0D8900232013275
:1009500000320832032EA5EF04F00BBC08A0BEEF56
:1009600004F0D8A0BEEF04F0082AD8B4002AD8B406
:10097000012AD8B4022A02BEE8EF04F00AAEE4EF7E
:1009800004F0021E011E001E081E082AD8B4002A08
:10099000D8B4012AD8B4022AE4EF04F0026A016A4A
:1009A000006A086AE4EF04F00B800BAEEEEF04F08F
:1009B000026A0AAEEEEF04F0026E016E006E086E7F
:1009C0000A360232EEEF04F00C6A000EEFEF04F08C
:1009D000010E0C6E000E3ADFEFEF04F0FF0E025036
:1009E000036E0150026E0050016E0850006E12003E
:0609F000067E0CDD120082
:1009F6000050086E0150006E0250016E0350026EE8
:100A0600036A0B6A0C6A9E0E036E0A6A020E0C6E6D
:060A160032EC00F01200BA
:100A1C000B6A0A6A096A086A0E6A033408360450BB
:100A2C00085E0550D8A0053C095E0650D8A0063CCF
:100A3C000A5E0750D8A0073C0B5EE86AD8A0010EEE
:100A4C000E5E0336070E0C6E0334083609360A3672
:100A5C000B360E36045003A012D0085E0550D8A0F9
:100A6C00053C095E0650D8A0063C0A5E0750D8A08B
:100A7C00073C0B5EE86AD8A0010E0E5E11D008266A
:100A8C000550D8B0053C09260650D8B0063C0A26BD
:100A9C000750D8B0073C0B26E86AD8B0010E0E26DA
:100AAC0003360C2ED1D70234083609360A360B36EB
:100ABC000E36045003A012D0085E0550D8A0053C99
:100ACC00095E0650D8A0063C0A5E0750D8A0073C29
:100ADC000B5EE86AD8A0010E0E5E11D008260550F8
:100AEC00D8B0053C09260650D8B0063C0A2607505B
:100AFC00D8B0073C0B26E86AD8B0010E0E26023699
:100B0C00070E0C6E0234083609360A360B360E36D2
:100B1C00045002A012D0085E0550D8A0053C095E16
:100B2C000650D8A0063C0A5E0750D8A0073C0B5EC6
:100B3C00E86AD8A0010E0E5E11D008260550D8B078
:100B4C00053C09260650D8B0063C0A260750D8B0FA
:100B5C00073C0B26E86AD8B0010E0E2602360C2E86
:100B6C00D1D70134083609360A360B360E36045006
:100B7C0002A012D0085E0550D8A0053C095E0650B4
:100B8C00D8A0063C0A5E0750D8A0073C0B5EE86A6A
:100B9C00D8A0010E0E5E11D008260550D8B0053C29
:100BAC0009260650D8B0063C0A260750D8B0073C98
:100BBC000B26E86AD8B0010E0E260136070E0C6E15
:100BCC000134083609360A360B360E36045001A0AD
:100BDC0012D0085E0550D8A0053C095E0650D8A07E
:100BEC00063C0A5E0750D8A0073C0B5EE86AD8A00A
:100BFC00010E0E5E11D008260550D8B0053C092612
:100C0C000650D8B0063C0A260750D8B0073C0B2635
:100C1C00E86AD8B0010E0E2601360C2ED1D700345E
:100C2C00083609360A360B360E36045001A012D09F
:100C3C00085E0550D8A0053C095E0650D8A0063CBD
:100C4C000A5E0750D8A0073C0B5EE86AD8A0010EDC
:100C5C000E5E11D008260550D8B0053C092606506A
:100C6C00D8B0063C0A260750D8B0073C0B26E86AD9
:100C7C00D8B0010E0E260036070E0C6E0034083666
:100C8C0009360A360B360E36045000A012D0085E18
:100C9C000550D8A0053C095E0650D8A0063C0A5E5B
:100CAC000750D8A0073C0B5EE86AD8A0010E0E5E78
:100CBC0011D008260550D8B0053C09260650D8B0EE
:100CCC00063C0A260750D8B0073C0B26E86AD8B079
:100CDC00010E0E2600360C2ED1D700B00ED00450CB
:100CEC0008260550D8B0053C09260650D8B0063C5D
:0C0CFC000A260750D8B0073C0B26120057
:100D08006E0E0401AF5DD8A0C6D0640E046EAFC4E9
:100D180000F089DD120E0024056E066A000E062218
:100D280005C000F006C001F0000E06BEFF0E026E00
:100D3800036E003600900136023603360036009006
:100D48000136023603360B0E0024F66E480E0120DB
:100D5800F76E000E0220F86E0900F5CF00F00900CA
:100D6800F5CF01F00900F5CF02F00900F5CF03F047
:100D7800000E046E000E056E000E066E7E0E076EE7
:100D880027EC01F000C0B0F401C0B1F402C0B2F425
:100D980003C0B3F4640E046EAFC400F044DD08C0B1
:100DA80000F00A0E046E3FDD090E0024056E066A87
:100DB800000E062205C000F006C001F0000E06BEB7
:100DC800FF0E026E036E00360090013602360336BF
:100DD800003600900136023603360B0E0024F66EFC
:100DE800480E0120F76E000E0220F86E0900F5CFBC
:100DF80000F00900F5CF01F00900F5CF02F0090075
:100E0800F5CF03F0B0C404F0B1C405F0B2C406F0E5
:100E1800B3C407F027EC01F000C0B0F401C0B1F48E
:100E280002C0B2F403C0B3F40A0E046EAFC400F0FB
:100E3800FADC08C000F000C001F0000E026E036E7C
:100E4800046E0136019002360336043601360190ED
:100E58000236033604360B0E0124F66E480E0220C5
:100E6800F76E000E0320F86E0900F5CF00F00900B8
:100E7800F5CF01F00900F5CF02F00900F5CF03F036
:100E8800B0C404F0B1C405F0B2C406F0B3C407F0AE
:100E980027EC01F01200AF510A087CE20A0E046E3A
:100EA800AFC400F0C0DC090E0024056E066A000E0F
:100EB800062205C000F006C001F0000E06BEFF0EB7
:100EC800026E036E00360090013602360336003695
:100ED80000900136023603360B0E0024F66E480EDB
:100EE8000120F76E000E0220F86E0900F5CF00F021
:100EF8000900F5CF01F00900F5CF02F00900F5CFA0
:100F080003F0000E046E000E056E000E066E7E0ED7
:100F1800076E27EC01F000C0B0F401C0B1F402C0C4
:100F2800B2F403C0B3F40A0E046EAFC400F07BDC65
:100F380008C000F000C001F0000E026E036E046EDF
:100F48000136019002360336043601360190023626
:100F5800033604360B0E0124F66E480E0220F76E97
:100F6800000E0320F86E0900F5CF00F00900F5CF58
:100F780001F00900F5CF02F00900F5CF03F0B0C485
:100F880004F0B1C405F0B2C406F0B3C407F027EC0E
:100F980001F01200AFC400F0000E016E026E036E85
:100FA80000360090013602360336003600900136CE
:100FB800023603360B0E0024F66E480E0120F76E3B
:100FC800000E0220F86E0900F5CF00F00900F5CFF9
:100FD80001F00900F5CF02F00900F5CF03F0000E8B
:100FE800046E000E056E000E066E7E0E076E27EC70
:040FF80001F01200F2
:100FFC000B6A0A6A096A00500402F4CF09F0F3CFB5
:10100C0008F001500502F4CF0BF0F3CF0AF00050BA
:10101C000502F3500926F4500A22E86A0B2201500B
:10102C000402F3500926F4500A22E86A0B2208C085
:10103C0000F009C001F00AC002F00BC003F012006E
:10104C000450000A12E10550000A0FE10650000A94
:10105C000CE10750000A09E1FF0E006EFF0E016E55
:10106C007F0E026EFF0E036E1200086A096A0750AB
:10107C00D8B4D1EF08F00350D8B4D6EF08F0025032
:10108C0006180A6E028E068E0E6A02C008F001C0A7
:10109C000CF000C00DF004500D5E0550D8A0053CBE
:1010AC000C5E0650D8A0063C085E086A0C6A0D6AF5
:1010BC00D8A068EF08F0D890023201320032083222
:1010CC00010E0E6E0750035ED8A075EF08F07E0E71
:1010DC000E240326D8B0DBEF08F07BEF08F07E0E71
:1010EC000E240326D8A0E0EF08F0180E0B6E0D3678
:1010FC000C3608360036013602360E360450005EC9
:10110C000550D8A0053C015E0650D8A0063C025EF6
:10111C0006340E120EA096EF08F00D80A1EF08F029
:10112C00045000260550D8B0053C01260650D8B016
:10113C00062802260D900B2E7DEF08F0C7EF08F065
:10114C00D8900036013602360E360450005E05503B
:10115C00D8A0053C015E0650D8A0063C025E0634C1
:10116C000E10010B0D26D8B00C2AD8B4082AD8A41E
:10117C00C7EF08F008320C320D32032AD8B4DBEF7B
:10118C0008F00AAE089E0850026E0C50016E0D500D
:10119C00006EE3EF08F0010E23EC01F0E3EF08F032
:1011AC00020E1AEC00F0E3EF08F0040E0EEC00F067
:0C11BC00E3EF08F0080E21EC00F0120038
:1011C8000450000A08E10550000A05E1FF0E006E10
:1011D8007F0E016E12000D6A096A086A015000103C
:1011E800D8B4000C015005180A6E0ABE0D1E0B6A11
:1011F80005AE05D0041E051E042AD8B4052A01AE82
:1012080005D0001E011E002AD8B4012A015005107D
:101218000A6E0ABE10D034EC04F00BB020D00DAE2C
:10122800000C001E011E002AD8B4012A081E091E3F
:10123800082AD8B4092A000C05AE0DD001BE07D083
:101248000150096E0050086E016A006AE8D7016A09
:10125800006A002A000C011E001E0B2ADDD7082A8E
:10126800D8B4092A0450085CD8A4D9D70550095C19
:10127800D8A4D5D7096A086A002AD8B4012A01AEC9
:08128800CED70000FF0C12009C
:10129000800E0401AF19006E800E000A005CD8B009
:1012A0006DD1AF510008016E01C0AFF4800E01187E
:1012B000006E800E6E0A005CD8A0C0D0640E046E72
:1012C000AFC400F0B7EC01F0120E0024056E000E62
:1012D00000BEFF0E066E000E062205C000F006C01E
:1012E00001F0000E06BEFF0E026E036E0036009087
:1012F00001360236033600360090013602360336D8
:101300000B0E0024F66E480E0120F76E000E022030
:10131000F86E0900F5CFB0F40900F5CFB1F409007B
:10132000F5CFB2F40900F5CFB3F4640E046EAFC488
:1013300000F0B7EC01F008C000F00A0E046EB7EC44
:1013400001F0090E0024056E000E00BEFF0E066EB1
:10135000000E062205C000F006C001F0000E06BE19
:10136000FF0E026E036E0036009001360236033621
:10137000003600900136023603360B0E0024F66E5E
:10138000480E0120F76E000E0220F86E0900F5CF1E
:1013900000F00900F5CF01F00900F5CF02F00900D7
:1013A000F5CF03F0B0C404F0B1C405F0B2C406F048
:1013B000B3C407F027EC01F000C0B0F401C0B1F4F1
:1013C00002C0B2F403C0B3F40A0E046EAFC400F05E
:1013D000B7EC01F008C000F000C001F0000E00BE44
:1013E000FF0E026E036E046E013601900236033664
:1013F0000436013601900236033604360B0E012402
:10140000F66E480E0220F76E000E0320F86E0900FB
:10141000F5CF00F00900F5CF01F00900F5CF02F09B
:101420000900F5CF03F0B0C404F0B1C405F0B2C4B4
:1014300006F0B3C407F027EC01F01200800E0A0A90
:10144000006E800EAF19005C71E20A0E046EAFC42C
:1014500000F0B7EC01F0090E0024056E000E00BE8E
:10146000FF0E066E000E062205C000F006C001F059
:10147000000E06BEFF0E026E036E003600900136AF
:1014800002360336003600900136023603360B0E64
:101490000024F66E480E0120F76E000E0220F86E52
:1014A0000900F5CFB0F40900F5CFB1F40900F5CF8C
:1014B000B2F40900F5CFB3F40A0E046EAFC400F025
:1014C000B7EC01F008C000F000C001F0000E00BE53
:1014D000FF0E026E036E046E013601900236033673
:1014E0000436013601900236033604360B0E012411
:1014F000F66E480E0220F76E000E0320F86E09000B
:10150000F5CF00F00900F5CF01F00900F5CF02F0AA
:101510000900F5CF03F0B0C404F0B1C405F0B2C4C3
:1015200006F0B3C407F027EC01F01200AFC400F0DE
:10153000000EAFBFFF0E016E026E036E003600900C
:101540000136023603360036009001360236033685
:101550000B0E0024F66E480E0120F76E000E0220DE
:10156000F86E0900F5CF00F00900F5CF01F0090091
:10157000F5CF02F00900F5CF03F01200800EAF198D
:10158000006E800E6E0A005CD8A0C0D0640E046E9F
:10159000AFC400F0B7EC01F0120E0024056E000E8F
:1015A00000BEFF0E066E000E062205C000F006C04B
:1015B00001F0000E06BEFF0E026E036E00360090B4
:1015C0000136023603360036009001360236033605
:1015D0003F0E0024F66E480E0120F76E000E02202A
:1015E000F86E0900F5CFB0F40900F5CFB1F40900A9
:1015F000F5CFB2F40900F5CFB3F4640E046EAFC4B6
:1016000000F0B7EC01F008C000F00A0E046EB7EC71
:1016100001F0090E0024056E000E00BEFF0E066EDE
:10162000000E062205C000F006C001F0000E06BE46
:10163000FF0E026E036E003600900136023603364E
:10164000003600900136023603363F0E0024F66E57
:10165000480E0120F76E000E0220F86E0900F5CF4B
:1016600000F00900F5CF01F00900F5CF02F0090004
:10167000F5CF03F0B0C404F0B1C405F0B2C406F075
:10168000B3C407F027EC01F000C0B0F401C0B1F41E
:1016900002C0B2F403C0B3F40A0E046EAFC400F08B
:1016A000B7EC01F008C000F000C001F0000E00BE71
:1016B000FF0E026E036E046E013601900236033691
:1016C0000436013601900236033604363F0E0124FB
:1016D000F66E480E0220F76E000E0320F86E090029
:1016E000F5CF00F00900F5CF01F00900F5CF02F0C9
:1016F0000900F5CF03F0B0C404F0B1C405F0B2C4E2
:1017000006F0B3C407F027EC01F01200800E0A0ABD
:10171000006E800EAF19005C71E20A0E046EAFC459
:1017200000F0B7EC01F0090E0024056E000E00BEBB
:10173000FF0E066E000E062205C000F006C001F086
:10174000000E06BEFF0E026E036E003600900136DC
:1017500002360336003600900136023603363F0E5D
:101760000024F66E480E0120F76E000E0220F86E7F
:101770000900F5CFB0F40900F5CFB1F40900F5CFB9
:10178000B2F40900F5CFB3F40A0E046EAFC400F052
:10179000B7EC01F008C000F000C001F0000E00BE80
:1017A000FF0E026E036E046E0136019002360336A0
:1017B0000436013601900236033604363F0E01240A
:1017C000F66E480E0220F76E000E0320F86E090038
:1017D000F5CF00F00900F5CF01F00900F5CF02F0D8
:1017E0000900F5CF03F0B0C404F0B1C405F0B2C4F1
:1017F00006F0B3C407F027EC01F01200AFC400F00C
:10180000000EAFBFFF0E016E026E036E0036009039
:1018100001360236033600360090013602360336B2
:101820003F0E0024F66E480E0120F76E000E0220D7
:10183000F86E0900F5CF00F00900F5CF01F00900BE
:0C184000F5CF02F00900F5CF03F0120014
:10184C000A6A0350D8A40A800750D8A40A820A5006
:10185C00D8B489EF0CF0030AD8B442EF0CF00AB0FC
:10186C003DEF0CF006AE87EF0CF085EF0CF002AEFE
:10187C0085EF0CF087EF0CF00250800B0A6E029E85
:10188C000650800B069E0A18D8B453EF0CF00A5081
:10189C00D8B485EF0CF087EF0CF00750035CD8B48C
:1018AC005DEF0CF0D8A079EF0CF07FEF0CF0065048
:1018BC00025CD8B467EF0CF0D8A079EF0CF07FEF96
:1018CC000CF00550015CD8B471EF0CF0D8A079EF96
:1018DC000CF07FEF0CF00450005CD8B489EF0CF0E6
:1018EC00D8B07FEF0CF00A52D8B487EF0CF085EF2C
:1018FC000CF00A52D8B485EF0CF087EF0CF0D880BE
:0E190C001200D8901200D880D8841200120069
:10191A000B6A0C6A0A6A086A0350D8B415EF0DF00C
:10192A00028E9E0E035E03BEA0EF0CF0D8B4A0EFA9
:10193A000CF005EF0DF0036C080E035CD8A0D2EF93
:10194A000CF0036E083600C008F001C000F002C0B7
:10195A0001F0026A080E035CD8A0D2EF0CF0036E05
:10196A00083600C008F001C000F0016A080E035CE6
:10197A00D8A0D2EF0CF0036E083600C008F0006A57
:10198A00080E035CD8A0D2EF0CF0036E0836086A82
:10199A000350D8A4D890DEEF0CF00350D8B4DEEF91
:1019AA000CF0D8900232013200320832032ED6EF00
:1019BA000CF00BBC08A0EFEF0CF0D8A0EFEF0CF086
:1019CA00082AD8B4002AD8B4012AD8B4022A02BEF6
:1019DA0019EF0DF00AAE15EF0DF0021E011E001EE2
:1019EA00081E082AD8B4002AD8B4012AD8B4022A70
:1019FA0015EF0DF0026A016A006A086A15EF0DF028
:101A0A000B800BAE1FEF0DF0026A0AAE1FEF0DF04E
:101A1A00026E016E006E086E0A3602321FEF0DF07A
:101A2A00000E0C6A20EF0DF0010E0C6E26EC04F08D
:101A3A0020EF0DF0FF0E0250036E0150026E0050AF
:081A4A00016E0850006E12004D
:101A520003500718D8A43DEF0DF002500618D8A481
:101A62003DEF0DF001500518D8A43DEF0DF00050E8
:0E1A72000418D8B4D8841200D89412001200C0
:101A80000401AF51390806E3300EAF5D03E3010EE8
:081A9000006E01D0006A120093
:101A98000401A76BA86B9B6B9C6B91C400F092C46C
:101AA80001F093C402F0010E9127000E92239323B4
:101AB80000C0F6FF01C0F7FF02C0F8FF0900F5CF2C
:101AC80000F000C098F40052D8B481EF1DF098518E
:101AD800250A0BE08FC4E1FF90C4E2FF98C4E6FF3B
:101AE8008F4B902BA74BA82BD8D7996B9A6B9B6BD6
:101AF8009C6B23D09B87010E9127000E9223932382
:101B080059D09B81010E9127000E9223932352D026
:101B18009B83010E9127000E922393234BD09C8721
:101B2800010E9127000E9223932344D09B85010E2A
:101B38009127000E922393233DD091C4F6FF92C4BF
:101B4800F7FF93C4F8FF0900F5CF01F001502D0A03
:101B5800D1E091C4F6FF92C4F7FF93C4F8FF0900DF
:101B6800F5CF01F00150200ACCE091C4F6FF92C4F1
:101B7800F7FF93C4F8FF0900F5CF01F001502B0AD5
:101B8800C7E091C4F6FF92C4F7FF93C4F8FF0900B9
:101B9800F5CF01F00150230AC2E091C4F6FF92C4C8
:101BA800F7FF93C4F8FF0900F5CF01F00150300AA0
:101BB800BDE001D09ED79BA301D09B919BA701D0EC
:101BC8009B9591C4F6FF92C4F7FF93C4F8FF0900F0
:101BD800F5CF00F0000E016E00C0AFF44DDF0052EB
:101BE80035E0996B9A6B99C400F09AC401F00A0E1B
:101BF800046E000E056EFEEC07F091C4F6FF92C469
:101C0800F7FF93C4F8FF0900F5CF02F00250002453
:101C1800996F000E01209A6F300E995F000E9A5B43
:101C2800010E9127000E9223932391C4F6FF92C4CC
:101C3800F7FF93C4F8FF0900F5CF00F0000E016E1E
:101C480000C0AFF419DF0052CEE135D091C4F6FFE1
:101C580092C4F7FF93C4F8FF0900F5CF01F00150D3
:101C68002A0A29E194C4E9FF95C4EAFFEECF00F0FF
:101C7800EECF01F000C0E9FF01C0EAFFEECF99F412
:101C8800EECF9AF494C4E9FF95C4EAFFEECF00F0D2
:101C9800EECF01F0020E0026000E012294C4E1FFEF
:101CA80095C4E2FF00C0E6FF01C0E6FF010E9127E0
:101CB800000E9223932391C4F6FF92C4F7FF93C4B6
:101CC800F8FF0900F5CF01F001502E0A71E1010E6D
:101CD8009127000E9223932391C4F6FF92C4F7FF35
:101CE80093C4F8FF0900F5CF01F001502A0A2AE150
:101CF80094C4E9FF95C4EAFFEECF00F0EECF01F0FF
:101D080000C0E9FF01C0EAFFEECF96F4EECF97F4EA
:101D180094C4E9FF95C4EAFFEECF00F0EECF01F0DE
:101D2800020E0026000E012294C4E1FF95C4E2FFD2
:101D380000C0E6FF01C0E6FF010E9127000E9223C6
:101D4800932335D0966B976B91C4F6FF92C4F7FF37
:101D580093C4F8FF0900F5CF00F0000E016E00C033
:101D6800AFF48ADE005223E096C400F097C401F075
:101D78000A0E046E000E056EFEEC07F091C4F6FF25
:101D880092C4F7FF93C4F8FF0900F5CF02F00250A0
:101D98000024966F000E0120976F300E965F000E9C
:101DA800975B010E9127000E92239323CDD703D082
:101DB800966B976B9C8991C400F092C401F093C410
:101DC80002F0010E9127000E9223932300C0F6FF24
:101DD80001C0F7FF02C0F8FF0900F5CF98F400D161
:101DE800A7C400F0A8C401F012009B89E4D79C8521
:101DF80036D19B8B9C8133D19C8331D19B8D2FD144
:101E08002ED19B8B9B8F2BD194C4E9FF95C4EAFFFD
:101E1800EECF00F0EECF01F000C0E9FF01C0EAFF0D
:101E2800EECF00F0EECF01F000C0A3F401C0A4F49F
:101E380094C4E9FF95C4EAFFEECF00F0EECF01F0BD
:101E4800020E0026000E012294C4E1FF95C4E2FFB1
:101E580000C0E6FF01C0E6FF000EA41902E1000E73
:101E6800A31904E13A0EA36F000EA46FA56BA66B2D
:101E7800A551A325E96EA651A421EA6EEE520BE006
:101E8800010EA525006E000EA621016E00C0A5F466
:101E980001C0A6F4EDD7965197110AE0A651975DB7
:101EA80002E1A551965D04E296C4A5F497C4A6F490
:101EB8009A51A65D02E19951A55D05E2A551995F88
:101EC800A6519A5B02D0996B9A6B9BB716D099C4AE
:101ED80000F09AC401F0010E995F000E9A5B005061
:101EE80001100BE08FC4E1FF90C4E2FF200EE66E04
:101EF8008F4B902BA74BA82BEAD7A5C402F0A6C4FA
:101F080003F0010EA55D006E000EA659016E00C01B
:101F1800A5F401C0A6F40250031019E0A3C4E9FF18
:101F2800A4C4EAFF8FC4E1FF90C4E2FFEECFE6FF4E
:101F38008F4B902B010EA325006E000EA421016E7D
:101F480000C0A3F401C0A4F4A74BA82BD6D79BA725
:101F580016D099C400F09AC401F0010E995F000EE2
:101F68009A5B005001100BE08FC4E1FF90C4E2FFC0
:101F7800200EE66E8F4B902BA74BA82BEAD78DD55A
:101F880094C4E9FF95C4EAFFEECF00F0EECF01F06C
:101F980000C0E9FF01C0EAFFEECF98F494C4E9FF5E
:101FA80095C4EAFFEECF00F0EECF01F0020E002656
:101FB800000E012294C4E1FF95C4E2FF00C0E6FFD1
:101FC80001C0E6FF980EA36F040EA46F010EA56F63
:101FD800000EA66F60D7C00E9B13000E9C133FD057
:101FE8009851000AD8B4FCD698516C0AD8B4FDD6DA
:101FF80098514C0AD8B4F9D69851660AD8B4F7D68D
:102008009851450AD8B4F5D69851650AD8B4F2D68D
:102018009851670AD8B4F0D698516F0AD8B4EED65A
:102028009851640AD8B4ECD69851690AD8B4E8D65D
:102038009851700AD8B4E5D69851580AD8B4E1D660
:102048009851780AD8B4DED69851730AD8B4DCD639
:102058009851630A95E09851750ABDE0B3D7000E10
:102068009B15006E9C51070B016E00500110D8B4EF
:102078000CEF19F09CA904D0060E966F000E976F0E
:1020880094C4E9FF95C4EAFFEECF00F0EECF01F06B
:1020980000C0E9FF01C0EAFFEECF9DF4EECF9EF449
:1020A800EECF9FF4EECFA0F494C4E9FF95C4EAFF05
:1020B800EECF00F0EECF01F0040E0026000E012254
:1020C80094C4E1FF95C4E2FF00C0E6FF01C0E6FF4B
:1020D800046A056A066A076A9DC400F09EC401F096
:1020E8009FC402F0A0C403F026EC0CF0010ED8B097
:1020F800000E006E005205E09F7F030E9B13000E3A
:102108009C13A16BA26B9DC400F09EC401F09FC4F8
:1021180002F0A0C403F0046A056A066A076A95DC3F
:10212800000ED8A4010E006E0052D8B48AD0A0C404
:1021380000F0016A026A036AFF0E0016000E01161B
:102148007E0E005E000E015A00C0A1F401C0A2F488
:10215800010E005E000E015A00C0A1F401C0A2F4F5
:10216800030E046E000E056EFEEC07F000C0A1F42D
:1021780001C0A2F40A0E046E000E056EE4EC08F02D
:1021880000C0A1F401C0A2F4800E0118026E800EF6
:10219800025C02E1000E005C05E2010E0401A15F91
:1021A800000EA25B0401A1510008AF6F48EC09F0D2
:1021B8009DC404F09EC405F09FC406F0A0C407F0B7
:1021C80027EC01F000C0A3F401C0A4F402C0A5F4F8
:1021D80003C0A6F4000E046E000E056E000E066E17
:1021E8007F0E076EA3C400F0A4C401F0A5C402F0DA
:1021F800A6C403F026EC0CF0010ED8B0000E006E59
:10220800005205E0010EA15F000EA25B1AD0000E7D
:10221800046E000E056E200E066E820E076EA3C4B5
:1022280000F0A4C401F0A5C402F0A6C403F026EC93
:102238000CF0000ED8B0010E006E005202E0A14B67
:10224800A22B800E006E800EA219005C02E1A15143
:10225800000803E3010E986F02D0A1C498F49CB162
:1022680018D09CA315D0800EA219006E7F0E005CBA
:1022780002E1FC0EA15D0BE3800EA219006E800E38
:102288009719005C02E19651A15D01E201D001D0ED
:10229800F1D39651971106E09CA304D0010E965FE6
:1022A800000E975B000E006E9751005C02E196519C
:1022B800080803E2080E986F02D096C498F49DC4EB
:1022C80000F09EC401F09FC402F0A0C403F0046AA9
:1022D800056A066A076A29EC0DF0000ED8A4010EFB
:1022E800006E0052D8B44BD1A1C4AFF448EC09F049
:1022F80000C004F001C005F002C006F003C007F0FA
:102308009DC400F09EC401F09FC402F0A0C403F075
:1023180026EC08F000C09DF401C09EF402C09FF4B2
:1023280003C0A0F4040198510008AF6F48EC09F00D
:1023380000C004F001C005F002C006F003C007F0B9
:102348009DC400F09EC401F09FC402F0A0C403F035
:1023580026EC08F000C0A9F401C0AAF402C0ABF44E
:1023680003C0ACF4A9C49DF4AAC49EF4ABC49FF402
:10237800ACC4A0F4A9C400F0AAC401F0ABC402F034
:10238800ACC403F08DEC0CF0FBEC04F000C004F0DE
:1023980001C005F002C006F003C007F0A9C400F0B0
:1023A800AAC401F0ABC402F0ACC403F0F8EC04F02A
:1023B800000E046E000E056E000E066E7E0E076E91
:1023C80026EC0CF0000ED8B0010E006E00521AE098
:1023D8009DC400F09EC401F09FC402F0A0C403F0A5
:1023E800000E046E000E056E000E066E7E0E076E61
:1023F80006EC02F000C09DF401C09EF402C09FF4F8
:1024080003C0A0F49DC400F09EC401F09FC402F074
:10241800A0C403F08DEC0CF004019851010F096E73
:102428000A6A000E0A2209C004F00AC005F0000E6C
:102438000ABEFF0E066E076E043604900536063691
:10244800073604360490053606360736CF0E0424C0
:10245800F66E480E0520F76E000E0620F86E09008D
:10246800F5CF05F00900F5CF06F00900F5CF07F024
:102478000900F5CF08F00850035C08E10750025C3A
:1024880005E10650015C02E10550005C1EE3040111
:102498009DC400F09EC401F09FC402F0A0C403F0E4
:1024A800CD0E046ECC0E056E4C0E066E7B0E076EBE
:1024B80027EC01F000C09DF401C09EF402C09FF417
:1024C80003C0A0F4A14BA22B5AD09DC400F09EC417
:1024D80001F09FC402F0A0C403F08DEC0CF098C486
:1024E80004F0000E056E066E076E0436049005367D
:1024F8000636073604360490053606360736CF0EFC
:102508000424F66E480E0520F76E000E0620F86EBD
:102518000900F5CF05F00900F5CF06F00900F5CF61
:1025280007F00900F5CF08F00850035C08E10750F0
:10253800025C05E10650015C02E10550005C1FE207
:1025480004019DC400F09EC401F09FC402F0A0C421
:1025580003F0000E046E000E056E200E066E820E4D
:10256800076E27EC01F000C09DF401C09EF402C084
:102578009FF403C0A0F4010EA15F000EA25B04014A
:102588009CA393D09CB791D0800E000A006E800E59
:102598009719005C02E196510A0804E20A0E966F48
:1025A800000E976F9DC400F09EC401F09FC402F016
:1025B800A0C403F08DEC0CF000C0A3F401C0A4F497
:1025C80002C0A5F403C0A6F4A351A411A511A61135
:1025D80042E00A0E046E000E056E066E076EA3C476
:1025E80000F0A4C401F0A5C402F0A6C403F00EECE8
:1025F80005F008C000F009C001F00AC002F00BC0E5
:1026080003F0000E046E031808E10450021805E1F7
:102618000450011802E10050000A1DE1010E965F06
:10262800000E975B0A0E046E000E056E066E076EAE
:10263800A3C400F0A4C401F0A5C402F0A6C403F02A
:102648000EEC05F000C0A3F401C0A4F402C0A5F488
:1026580003C0A6F4B9D7800E9719006E800E005CEF
:1026680002E19851965D21E29651985DAF6F48EC72
:1026780009F000C004F001C005F002C006F003C074
:1026880007F09DC400F09EC401F09FC402F0A0C4EE
:1026980003F026EC08F000C09DF401C09EF402C0CF
:1026A8009FF403C0A0F496C498F4050E040196257F
:1026B800006E000E9721016E0050995F01509A5BE1
:1026C8009651971103E19CB701D004D0010E995F90
:1026D800000E9A5B030E9B15006E9CC401F0000E61
:1026E80001160050011004E0010E995F000E9A5B7C
:1026F8009BA539D09BA312D09BA103D02D0E006EB1
:1027080002D02B0E006E8FC4E1FF90C4E2FF00C020
:10271800E6FF8F4B902BA74BA82B0CD09BA10AD080
:102728008FC4E1FF90C4E2FF200EE66E8F4B902B22
:10273800A74BA82B800E006E800E9A19005C02E150
:10274800995100080FE28FC4E1FF90C4E2FF300EF8
:10275800E66E8F4B902BA74BA82B010E995F000EAE
:102768009A5BE8D73AD09BB718D0800E006E800EDF
:102778009A19005C02E1995100080FE28FC4E1FF49
:1027880090C4E2FF200EE66E8F4B902BA74BA82B30
:10279800010E995F000E9A5BE8D79BA312D09BA10C
:1027A80003D02D0E006E02D02B0E006E8FC4E1FFF9
:1027B80090C4E2FF00C0E6FF8F4B902BA74BA82BDD
:1027C8000CD09BA10AD08FC4E1FF90C4E2FF200E79
:1027D800E66E8F4B902BA74BA82B9DC400F09EC490
:1027E80001F09FC402F0A0C403F08DEC0CF000C00F
:1027F800A3F401C0A4F402C0A5F403C0A6F498C4CD
:1028080000F0000E016E026E036E00360090013675
:102818000236033600360090013602360336CF0EF4
:102828000024F66E480E0120F76E000E0220F86EA6
:102838000900F5CF04F00900F5CF05F00900F5CF40
:1028480006F00900F5CF07F0A3C400F0A4C401F016
:10285800A5C402F0A6C403F00EEC05F0300E002665
:102868008FC4E1FF90C4E2FF00C0E6FF8F4B902BBE
:10287800A74BA82B9651971103E19CB701D06FD0B5
:102888008FC4E1FF90C4E2FF2E0EE66E8F4B902BB3
:10289800A74BA82B9851965F000E975B98534DE075
:1028A800980798C400F0000E016E026E036E0036A1
:1028B80000900136023603360036009001360236A3
:1028C8000336CF0E0024F66E480E0120F76E000E78
:1028D8000220F86E0900F5CF04F00900F5CF05F0E5
:1028E8000900F5CF06F00900F5CF07F0A3C400F002
:1028F800A4C401F0A5C402F0A6C403F00EEC05F0D0
:102908000A0E046E000E056E066E076E0EEC05F0DC
:1029180008C000F009C001F00AC002F00BC003F0C3
:10292800300E00268FC4E1FF90C4E2FF00C0E6FF2E
:102938008F4B902BA74BA82BB1D7965197110FE02F
:102948008FC4E1FF90C4E2FF300EE66E8F4B902BF0
:10295800A74BA82B010E965F000E975BEED79BAB9B
:102968000BD08FC4E1FF90C4E2FF450EE66E8F4B9B
:10297800902BA74BA82B0AD08FC4E1FF90C4E2FF8D
:10298800650EE66E8F4B902BA74BA82B800EA219D5
:10299800006E800E005C02E1000EA15D11E2A15103
:1029A8000008A16FA251000EA2578FC4E1FF90C486
:1029B800E2FF2D0EE66E8F4B902BA74BA82B0AD06B
:1029C8008FC4E1FF90C4E2FF2B0EE66E8F4B902B75
:1029D800A74BA82B0A0E046E000E056EA1C400F0CA
:1029E800A2C401F0E4EC08F0300E00268FC4E1FF29
:1029F80090C4E2FF00C0E6FF04018F4B902BA74B69
:102A0800A82B0A0E046E000E056EA1C400F0A2C425
:102A180001F0E4EC08F008C000F009C001F0300E45
:102A280000268FC4E1FF90C4E2FF00C0E6FF040166
:102A38008F4B902BA74BA82B9BA71AD0800E006E0C
:102A4800800E9A19005C02E19951000811E28FC4C6
:102A5800E1FF90C4E2FF200EE66E8F4B902BA74B50
:102A6800A82B010E995F000E9A5B99519A11EFE11C
:102A780051EF0DF09CA3F3D0800EA219006E800ECA
:102A8800005C02E1000EA15D0AE2010EA15D006E8C
:102A9800000EA259016E0050965F0150975B9DC4CD
:102AA80000F09EC401F09FC402F0A0C403F08DECB6
:102AB8000CF000C0A3F401C0A4F402C0A5F403C044
:102AC800A6F4010E986F98510A0A34E098C400F0F1
:102AD800000E016E026E036E00360090013602365B
:102AE800033600360090013602360336CF0E002436
:102AF800F66E480E0120F76E000E0220F86E0900EF
:102B0800F5CF01F00900F5CF02F00900F5CF03F089
:102B18000900F5CF04F00450A65D08E10350A55D57
:102B280005E10250A45D02E10150A35D01E202D07B
:102B3800982BC9D79851965DAD6F000E9759AE6F17
:102B4800ADC496F4AEC497F4A3C400F0A4C401F0D5
:102B5800A5C402F0A6C403F0FBEC04F000C004F026
:102B680001C005F002C006F003C007F09DC400F0E4
:102B78009EC401F09FC402F0A0C403F0F8EC04F076
:102B880000C0A9F401C0AAF402C0ABF403C0ACF4BD
:102B9800ADC4AFF448EC09F0A9C404F0AAC405F028
:102BA800ABC406F0ACC407F027EC01F0000E046ECD
:102BB800000E056E000E066E7E0E076E06EC02F025
:102BC8008DEC0CF000C0A3F401C0A4F402C0A5F47D
:102BD80003C0A6F49651971142E00A0E046E000E47
:102BE800056E066E076EA3C400F0A4C401F0A5C468
:102BF80002F0A6C403F00EEC05F008C000F009C00E
:102C080001F00AC002F00BC003F0000E046E0318B6
:102C180008E10450021805E10450011802E10050CF
:102C2800000A1DE10A0E046E000E056E066E076EA0
:102C3800A3C400F0A4C401F0A5C402F0A6C403F024
:102C48000EEC05F000C0A3F401C0A4F402C0A5F482
:102C580003C0A6F4010E965F000E975BBBD7800EEB
:102C6800006E800E9719005C02E196510C0816E37D
:102C780096C4AFF484EC06F09DC404F09EC405F03D
:102C88009FC406F0A0C407F006EC02F000C09DF453
:102C980001C09EF402C09FF403C0A0F49DC400F0DC
:102CA8009EC401F09FC402F0A0C403F0046A056A40
:102CB800066A076A29EC0DF0000ED8A4010E006E12
:102CC8000052D8B477D09DC400F09EC401F09FC4D0
:102CD80002F0A0C403F08DEC0CF0000E046E031893
:102CE80008E10450021805E10450011802E10050FF
:102CF800000A60E1800E006E800EA219005C02E1FD
:102D0800A151010857E2A1C4AFF448EC09F000C092
:102D180004F001C005F002C006F003C007F09DC42E
:102D280000F09EC401F09FC402F0A0C403F026EC9A
:102D380008F05F0E046E700E056E090E066E810EA9
:102D4800076E26EC0CF0010ED8B0000E006E005293
:102D580006E0090E0401A15F000EA25B05D0040184
:102D6800080EA15F000EA25BA1C4AFF448EC09F005
:102D780000C004F001C005F002C006F003C007F06F
:102D88009DC400F09EC401F09FC402F0A0C403F0EB
:102D980026EC08F08DEC0CF000C0A3F401C0A4F4FC
:102DA80002C0A5F403C0A6F404019D6B9E6B9F6B43
:102DB800A06B38D09DC400F09EC401F09FC402F0FF
:102DC800A0C403F08DEC0CF000C0A3F401C0A4F47F
:102DD80002C0A5F403C0A6F4A3C400F0A4C401F083
:102DE800A5C402F0A6C403F0FBEC04F000C004F094
:102DF80001C005F002C006F003C007F09DC400F052
:102E08009EC401F09FC402F0A0C403F0F8EC04F0E3
:102E180000C09DF401C09EF402C09FF403C0A0F45A
:102E2800A16BA26B010E986F98510A0A34E098C4FE
:102E380000F0000E016E026E036E0036009001363F
:102E48000236033600360090013602360336CF0EBE
:102E58000024F66E480E0120F76E000E0220F86E70
:102E68000900F5CF01F00900F5CF02F00900F5CF10
:102E780003F00900F5CF04F00450A65D08E1035003
:102E8800A55D05E10250A45D02E10150A35D01E2E8
:102E980002D0982BC9D798519625006E000E97211D
:102EA800016EA1510026A25101220050995F0150E4
:102EB8009A5B9CB704D09651971101E104D0010E9A
:102EC800995F000E9A5B030E9B15006E9CC401F07F
:102ED800000E01160050011004E0010E995F000E6B
:102EE8009A5B9BA539D09BA312D09BA103D02D0E32
:102EF800006E02D02B0E006E8FC4E1FF90C4E2FF7B
:102F080000C0E6FF8F4B902BA74BA82B0CD09BA1A2
:102F18000AD08FC4E1FF90C4E2FF200EE66E8F4B0B
:102F2800902BA74BA82B800E006E800E9A19005C80
:102F380002E1995100080FE28FC4E1FF90C4E2FF5B
:102F4800300EE66E8F4B902BA74BA82B010E995F86
:102F5800000E9A5BE8D73AD09BB718D0800E006E67
:102F6800800E9A19005C02E1995100080FE28FC4A3
:102F7800E1FF90C4E2FF200EE66E8F4B902BA74B2B
:102F8800A82B010E995F000E9A5BE8D79BA312D07D
:102F98009BA103D02D0E006E02D02B0E006E8FC4A5
:102FA800E1FF90C4E2FF00C0E6FF8F4B902BA74BD8
:102FB800A82B0CD09BA10AD08FC4E1FF90C4E2FFDC
:102FC800200EE66E8F4B902BA74BA82B98C400F0D1
:102FD800980700524CE098C400F0000E016E026E93
:102FE800036E003600900136023603360036009034
:102FF800013602360336CF0E0024F66E480E012045
:10300800F76E000E0220F86E0900F5CF04F00900F3
:10301800F5CF05F00900F5CF06F00900F5CF07F068
:10302800A3C400F0A4C401F0A5C402F0A6C403F030
:103038000EEC05F00A0E046E000E056E066E076EA5
:103048000EEC05F008C000F009C001F00AC002F05B
:103058000BC003F0300E00268FC4E1FF90C4E2FFDE
:1030680000C0E6FF8F4B902BA74BA82BAFD7800E45
:10307800006E800EA219005C02E1A15100080FE267
:103088008FC4E1FF90C4E2FF300EE66E8F4B902BA9
:10309800A74BA82B010EA15F000EA25BE8D7800EFC
:1030A800000A006E800E9719005C02E1965108082C
:1030B80003E2080E986F02D096C498F49851965F70
:1030C800000E975B985303E19CB701D00AD08FC4D8
:1030D800E1FF90C4E2FF2E0EE66E8F4B902BA74BBC
:1030E800A82B98C4AFF448EC09F09DC404F09EC422
:1030F80005F09FC406F0A0C407F027EC01F060ECCF
:1031080004F000C0A3F401C0A4F402C0A5F403C0F5
:10311800A6F498534DE0980798C400F0000E016E8D
:10312800026E036E00360090013602360336003612
:103138000090013602360336CF0E0024F66E480E94
:103148000120F76E000E0220F86E0900F5CF04F09A
:103158000900F5CF05F00900F5CF06F00900F5CF15
:1031680007F0A3C400F0A4C401F0A5C402F0A6C4EB
:1031780003F00EEC05F00A0E046E000E056E066EE6
:10318800076E0EEC05F008C000F009C001F00AC097
:1031980002F00BC003F0300E00268FC4E1FF90C48C
:1031A800E2FF00C0E6FF8F4B902BA74BA82BB1D7AF
:1031B800965197110FE08FC4E1FF90C4E2FF300EE3
:1031C800E66E8F4B902BA74BA82B010E965F000E37
:1031D800975BEED79BA71AD0800E006E800E9A19C7
:1031E800005C02E19951000811E28FC4E1FF90C42C
:1031F800E2FF200EE66E8F4B902BA74BA82B010EFB
:10320800995F000E9A5B99519A11EFE151EF0DF019
:10321800C00E9B15016E9CC402F0000E0216000E33
:10322800021802E1000E0118D8A48CD09BA931D055
:1032380094C4E9FF95C4EAFFEECF00F0EECF01F0A9
:1032480000C0E9FF01C0EAFFEECF00F0EECF01F0C9
:10325800EECF02F0EECF03F000C0A3F401C0A4F457
:1032680002C0A5F403C0A6F494C4E9FF95C4EAFF1C
:10327800EECF00F0EECF01F0040E0026000E012282
:1032880094C4E1FF95C4E2FF00C0E6FF01C0E6FF79
:1032980031D094C4E9FF95C4EAFFEECF00F0EECF39
:1032A80001F000C0E9FF01C0EAFFEECF00F0EECF69
:1032B80001F0000E01BEFF0E026E036E00C0A3F403
:1032C80001C0A4F402C0A5F403C0A6F494C4E9FFA5
:1032D80095C4EAFFEECF00F0EECF01F0020E002613
:1032E800000E012294C4E1FF95C4E2FF00C0E6FF8E
:1032F80001C0E6FF800EA619006E800E005C08E192
:10330800000EA55D05E1000EA45D02E1000EA35DBF
:1033180018E2030E9B13000E9C13006A016A026AEE
:10332800036AA351005EA451015AA551025AA6513D
:10333800035A00C0A3F401C0A4F402C0A5F403C05A
:10334800A6F45ED09BA931D094C4E9FF95C4EAFFE6
:10335800EECF00F0EECF01F000C0E9FF01C0EAFFB8
:10336800EECF00F0EECF01F0EECF02F0EECF03F09B
:1033780000C0A3F401C0A4F402C0A5F403C0A6F4DD
:1033880094C4E9FF95C4EAFFEECF00F0EECF01F058
:10339800040E0026000E012294C4E1FF95C4E2FF4A
:1033A80000C0E6FF01C0E6FF2BD094C4E9FF95C436
:1033B800EAFFEECF00F0EECF01F000C0E9FF01C058
:1033C800EAFFEECF00F0EECF01F000C0A3F401C099
:1033D800A4F4000EA56FA66F94C4E9FF95C4EAFF94
:1033E800EECF00F0EECF01F0020E0026000E012213
:1033F80094C4E1FF95C4E2FF00C0E6FF01C0E6FF08
:10340800000E971902E1000E96190FE1000E006EEA
:10341800A61908E10050A51905E10050A41902E118
:10342800A351000A02E1964B972BC00E9B15006E24
:1034380000C005F0AED0010E986F98510A0A34E02A
:1034480098C400F0000E016E026E036E0036009004
:10345800013602360336003600900136023603364E
:10346800CF0E0024F66E480E0120F76E000E0220E3
:10347800F86E0900F5CF01F00900F5CF02F0090058
:10348800F5CF03F00900F5CF04F00450A65D08E17C
:103498000350A55D05E10250A45D02E10150A35D62
:1034A80001E202D0982BC9D782D0010E986F9851AB
:1034B800080A34E098C400F0000E016E026E036E34
:1034C8000036009001360236033600360090013689
:1034D80002360336F70E0024F66E480E0120F76E0A
:1034E800000E0220F86E0900F5CF01F00900F5CFB3
:1034F80002F00900F5CF03F00900F5CF04F00450FD
:10350800A65D08E10350A55D05E10250A45D02E156
:103518000150A35D01E202D0982BC9D748D0010E13
:10352800986F98510C0A34E098C400F0000E016EB0
:10353800026E036E003600900136023603360036FE
:103548000090013602360336730E0024F66E480EDC
:103558000120F76E000E0220F86E0900F5CF01F089
:103568000900F5CF02F00900F5CF03F00900F5CF07
:1035780004F00450A65D08E10350A55D05E1025082
:10358800A45D02E10150A35D01E202D0982BC9D7E6
:103598000ED00550000AD8B44ED70550C00AD8B48A
:1035A8004AD70550800A81E00550400AB8E0800EED
:1035B800006E800E9719005C02E19651985D03E257
:1035C80096C498F40DD0800E9719006E800E005C9A
:1035D80002E19851965D04E298C496F4000E976F44
:1035E80099519A110EE0030E9B15006E9CC401F0D0
:1035F800000E01160050011004E0010E995F000E44
:103608009A5B800E9719006E800E9A19005C02E191
:103618009951965D05E29651995F97519A5B02D050
:10362800996B9A6BC40E9B15016E9C51080B026E28
:103638000250080A02E1400E011808E199519A1156
:1036480004E0010E995F000E9A5B1CD0C00E9B151A
:10365800016E9C51080B026E0250080A02E1800EAE
:10366800011810E1800E006E800E9A19005C02E1CC
:103678009951020805E2020E995F000E9A5B02D08A
:10368800996B9A6B9BA55DD09BA312D09BA103D08D
:103698002D0E006E02D02B0E006E8FC4E1FF90C479
:1036A800E2FF00C0E6FF8F4B902BA74BA82B34D02E
:1036B8009BA10BD08FC4E1FF90C4E2FF200EE66E01
:1036C8008F4B902BA74BA82B27D0C00E9B15016EB4
:1036D8009C51080B026E0250080A02E1800E011884
:1036E8001BE18FC4E1FF90C4E2FF300EE66E8F4B02
:1036F800902BA74BA82B9BAB03D0580E006E02D083
:10370800780E006E8FC4E1FF90C4E2FF00C0E6FFB0
:103718008F4B902BA74BA82B99519A1111E08FC46E
:10372800E1FF90C4E2FF300EE66E8F4B902BA74B63
:10373800A82B010E995F000E9A5B99519A11EFE13F
:1037480074D099519A1113E09BB711D08FC4E1FF3F
:1037580090C4E2FF200EE66E8F4B902BA74BA82B50
:10376800010E995F000E9A5B99519A11EFE19BA3A4
:1037780012D09BA103D02D0E006E02D02B0E006E2E
:103788008FC4E1FF90C4E2FF00C0E6FF8F4B902B8F
:10379800A74BA82B0CD09BA10AD08FC4E1FF90C4E3
:1037A800E2FF200EE66E8F4B902BA74BA82BC00E86
:1037B8009B15016E9C51080B026E0250080A02E12B
:1037C800400E01180BE18FC4E1FF90C4E2FF300EF8
:1037D800E66E8F4B902BA74BA82B27D0C00E9B15BE
:1037E800016E9C51080B026E0250080A02E1800E1D
:1037F80001181BE18FC4E1FF90C4E2FF300EE66EB2
:103808008F4B902BA74BA82B9BAB03D0580E006E69
:1038180002D0780E006E8FC4E1FF90C4E2FF00C0B2
:10382800E6FF8F4B902BA74BA82B800E006E800EC7
:103838009719005C02E19651985D0BE28FC4E1FF95
:1038480090C4E2FF300EE66E8F4B902BA74BA82B4F
:10385800ECD796C400F097C401F0010E965F000EF5
:10386800975B00500110D8B42AD1C00E9B15006E8A
:1038780000C0A9F40AD196C400F097C401F0000E64
:1038880097BFFF0E026E036E0036009001360236B7
:10389800033600360090013602360336CF0E002478
:1038A800F66E480E0120F76E000E0220F86E090031
:1038B800F5CF04F00900F5CF05F00900F5CF06F0C3
:1038C8000900F5CF07F0A3C400F0A4C401F0A5C413
:1038D80002F0A6C403F00EEC05F00A0E046E000E0A
:1038E800056E066E076E0EEC05F008C000F009C004
:1038F80001F00AC002F00BC003F0300E0024986FEC
:10390800D3D09BAB45D096C400F097C401F0000E0D
:1039180097BFFF0E026E036E003600900136023626
:10392800033600360090013602360336F70E0024BF
:10393800F66E480E0120F76E000E0220F86E0900A0
:10394800F5CF04F00900F5CF05F00900F5CF06F032
:103958000900F5CF07F0A3C400F0A4C401F0A5C482
:1039680002F0A6C403F00EEC05F00F0E0016000ED0
:10397800011602160316280E0024F66E490E0120C1
:10398800F76E000E0220F86E0900F5CF98F444D0C7
:1039980096C400F097C401F0000E97BFFF0E026EA8
:1039A800036E00360090013602360336003600906A
:1039B800013602360336F70E0024F66E480E012053
:1039C800F76E000E0220F86E0900F5CF04F009002A
:1039D800F5CF05F00900F5CF06F00900F5CF07F09F
:1039E800A3C400F0A4C401F0A5C402F0A6C403F067
:1039F8000EEC05F00F0E0016000E01160216031647
:103A0800170E0024F66E490E0120F76E000E0220F4
:103A1800F86E0900F5CF98F447D096C400F097C423
:103A280001F0000E97BFFF0E026E036E0036009085
:103A38000136023603360036009001360236033668
:103A4800730E0024F66E480E0120F76E000E022059
:103A5800F86E0900F5CF04F00900F5CF05F009006C
:103A6800F5CF06F00900F5CF07F0A3C400F0A4C411
:103A780001F0A5C402F0A6C403F00EEC05F0070E91
:103A88000014986F300E98270FD0A951000AD8B4A7
:103A9800F2D6A951C00AD8B4EED6A951800AD8B432
:103AA80030D7A951400AB9E08FC4E1FF90C4E2FFC2
:103AB80098C4E6FF8F4B902BA74BA82BCAD69BA781
:103AC8001AD0800E006E800E9A19005C02E199519E
:103AD800000811E28FC4E1FF90C4E2FF200EE66EF9
:103AE8008F4B902BA74BA82B010E995F000E9A5B6A
:103AF80099519A11EFE151EF0DF0A7C400F0A8C455
:043B080001F01200B6
:103B0C000C6A0E6A0250D8A49FEF1DF001C002F09F
:103B1C0000C001F0006A0E860250D8A49FEF1DF081
:103B2C0001C002F0016A0E960E880250D8B4B1EFB3
:103B3C001DF00E50035ED8A4D8A0B7EF1DF0D8909E
:103B4C0002BEBDEF1DF0003601360236032EA6EF85
:103B5C001DF0B7EF1DF0010E0C6E1AEC00F0C1EF6A
:103B6C001DF0020E0C6E21EC00F0C1EF1DF0040EE6
:083B7C000C6E2EEC00F01200AB
:103B840090C403F00332039E0332039E0332039E68
:103B9400070E026E03C000F0000E016E025005E035
:103BA400003600900136FF0FFAD704018F5100242C
:103BB400026E000E0120036E070E9015006E410E7A
:103BC4000224046E000E0320056E00C001F0010EF5
:103BD400006E015004E000360090FF0FFBD7001E7A
:103BE40004C0E9FF05C0EAFFEE50001604C0E1FF7F
:0A3BF40005C0E2FF00C0E6FF12006A
:103BFE0090C403F00332039E0332039E0332039EEE
:103C0E00070E026E03C000F0000E016E025005E0BA
:103C1E00003600900136FF0FFAD704018F510024B1
:103C2E00026E000E0120036E070E9015006E410EFF
:103C3E000224046E000E0320056E00C001F0010E7A
:103C4E00006E015004E000360090FF0FFBD704C059
:103C5E00E9FF05C0EAFFEE50001204C0E1FF05C007
:083C6E00E2FF00C0E6FF1200B6
:063C760084948482120018
:103C7C00030E006E90C497F4000E0401986F005070
:103C8C0004E09733979FFF0FFBD7070E006E000ED3
:103C9C00986F005005E0973797919837FF0FFAD738
:103CAC008F519727000E9823070E9017200E945DC6
:103CBC006EE394517E086BE3200E945D006E016AF6
:103CCC00000E015A050E046E000E056EFEEC07F098
:103CDC000050912701509223000E01BEFF0E93233A
:103CEC00956B050E955D53E291C496F4410E9725A4
:103CFC00026E000E9821036E90C401F091C400F086
:103D0C00015004E000360090FF0FFBD7FF0E001AA5
:103D1C0002C0E9FF03C0EAFFEE50001602C0E1FF4B
:103D2C0003C0E2FF00C0E6FF800E9725006E000E78
:103D3C009821016E410E0024026E000E0120036ECC
:103D4C0090510808006E016A000E015A00C001F083
:103D5C0096C400F0015004E00032009EFF0FFBD728
:103D6C00FF0E001A02C0E9FF03C0EAFFEE50001676
:103D7C0002C0E1FF03C0E2FF00C0E6FF974B982BA7
:103D8C00010E9127000E92239323952BAAD7060E92
:0C3D9C008F25006E016A000E012212004B
:103DA800030E006E90C497F4000E0401986F005043
:103DB80004E09733979FFF0FFBD7070E006E000EA6
:103DC800986F005005E0973797919837FF0FFAD70B
:103DD8008F519727000E9823070E9017200E945D99
:103DE80073E394517E0870E3200E945D006E016ABF
:103DF800000E015A050E046E000E056EFEEC07F06B
:103E08000050912701509223000E01BEFF0E93230C
:103E1800956B050E955D58E291C4F6FF92C4F7FFC5
:103E280093C4F8FF0900F5CF04F004C096F4410EDE
:103E38009725026E000E9821036E90C401F004C00D
:103E480000F0015004E000360090FF0FFBD702C0DD
:103E5800E9FF03C0EAFFEE50001202C0E1FF03C011
:103E6800E2FF00C0E6FF800E9725006E000E982145
:103E7800016E410E0024026E000E0120036E905167
:103E88000808006E016A000E015A00C001F096C4CD
:103E980000F0015004E00032009EFF0FFBD702C083
:103EA800E9FF03C0EAFFEE50001202C0E1FF03C0C1
:103EB800E2FF00C0E6FF974B982B010E9127000EFA
:103EC80092239323952BA5D7060E8F25006E016AA2
:063ED800000E01221200A1
:063EDE00848484921200AE
:103EE400839A838E8FC481FF8FC481FF8FC481FF27
:083EF4008FC481FF839E1200C0
:0C3EFC000E0E0D6E0D2EFED70000120001
:103F0800838A838E8FC481FF8FC481FF8FC481FF12
:083F18008FC481FF839E12009B
:103F20008FC400F090C401F091C402F092C403F079
:103F3000010E04018F5F000E905B915B925B00505D
:0C3F400001100210031001E0EBD712008A
:103F4C00870E04018D6F040E8E6F82C48FF483C4B0
:103F5C0090F484C491F485C492F486C493F48D0EC9
:103F6C00946F040E956F4CEC0DF000C08BF401C0F7
:103F7C008CF400508225E16E01508321E26EE66ADA
:0A3F8C008BC400F08CC401F0120099
:103F9600C26A070EC012C08E82C400F000360090BE
:103FA600003600900050C212C280A5DFC282C2A2B3
:103FB60001D0FDD7C4CF01F0006AC3500012000E35
:063FC6000112C29012007E
:103FCC00080E056E000E066E000E065C02E1010E78
:103FDC00055C59E382C400F083C401F0000E026E4C
:103FEC00036E003600900136023603364B0E002469
:103FFC00F66E490E0120F76E000E0220F86E0900D5
:10400C00F5CF03F00900F5CF04F0010E055C006E4E
:10401C00000E0658016E00C002F0010E006E000E7C
:10402C00016E025005E0003600900136FF0FFAD702
:10403C0003500016045001160050011003E0010E4D
:10404C00006E01D0006A00B002D0829A01D0828A40
:10405C008384030E0C6E970E0D6E0D2EFED70C2E58
:10406C00FCD7000000008394030E0C6E970E0D6EAF
:10407C000D2EFED70C2EFCD700000000010E055EA5
:08408C00000E065AA1D7120034
:104094000401416B426B040E425D02E1000E415D7E
:1040A4002BE21F50800A13E11F6A392A8484848218
:1040B400070E3914006E00C039F0B80E001200C0AB
:1040C40039F000C08FF40CDF400E8F6F09DF1F50F2
:1040D4003F0801E302DF400E1F5C01E3CADD410E2D
:1040E4004125E96E000E4221EA6EEECF8FF40ADF1D
:0A40F4001F2A414B422BCFD71200C8
:1040FE000900F5CFE6FF0006FBE10106F9E112002B
:10410E000050086E0150006E016A026A036A0B6A63
:10411E000C6A960E036E0A6A00C001F008C000F029
:08412E00086A026AECDC1200D1
:10413600040189534FE088C48BF48B51000849E28F
:104146000A0E046E000E056E066E076E84C400F03D
:1041560085C401F086C402F087C403F00EEC05F0B6
:1041660008C000F009C001F00AC002F00BC003F05D
:10417600300E00248A6F0A0E046E000E056E066E5F
:10418600076E84C400F085C401F086C402F087C4BB
:1041960003F00EEC05F000C084F401C085F402C003
:1041A60086F403C087F48B05006E060E0002F3CF7B
:1041B60000F0005082258F6F83C490F4300E916F0B
:1041C600460E926F000E936F8AC494F4EADD8B0755
:1041D600B4D74ED088C48BF48B51000849E20A0E3E
:1041E600046E000E056E066E076E84C400F085C46C
:1041F60001F086C402F087C403F00EEC05F008C097
:1042060000F009C001F00AC002F00BC003F0300E46
:1042160000248A6F0A0E046E000E056E066E076E87
:1042260084C400F085C401F086C402F087C403F09C
:104236000EEC05F000C084F401C085F402C086F4DB
:1042460003C087F48B05006E060E0002F3CF00F064
:10425600005082258F6F83C490F4300E916F460E06
:10426600926F000E936F8AC494F405DD8B07B4D762
:10427600060E8803F3CF00F0F4CF01F0825100263A
:06428600000E01221200EF
:10428C0084C4E9FF85C4EAFFEE522BE00401865397
:10429C0012E082C48FF483C490F4300E916F460EFA
:1042AC00926F000E936F84C4E9FF85C4EAFFEECFD2
:1042BC0094F474DD11D082C48FF483C490F4300E66
:1042CC00916F460E926F000E936F84C4E9FF85C404
:1042DC00EAFFEECF94F4CCDC060E8227844B852BC0
:0C42EC00CFD782C400F0000E016E12005B
:1042F8000401836B83517F0816E3846B84513F0864
:1043080010E3825306E083C48FF484C490F473DC12
:1043180005D083C48FF484C490F430DC0401842B6A
:08432800EDD7832BE7D712004B
:10433000936A96949692959A959C959E9690848071
:1043400084848482839C100E04018F6F270E906FEB
:10435000000E916F926FE4DDC00E8F6FC3DD100E03
:104360008F6F270E906F000E916F926FD9DD400E08
:104370008F6FB8DD100E8F6F270E906F000E916F4C
:10438000926FCEDDB80E8F6FADDD100E8F6F270EE2
:10439000906F000E916F926FC3DD3F0E8F6FA2DDA5
:0643A000849484921200D7
:1043A600A7EC24F0BE0E04017E6F9F0E7F6F1A0EDF
:1043B600806F7B0E816FBD6ABA6AC26A0E0EC16ECD
:1043C600010E926E806A060E0B6E130E0C6EAD0E0B
:1043D6000D6E0D2EFED70C2EFCD70B2EFAD7000035
:1043E6000000966A936A956A946AFF0E806E9DDF56
:1043F600826B7FDF826B836B150E846F000E856F79
:10440600010E866F40DF826B0A0E836F260E846F65
:10441600000E856F010E866F36DF600E826F0A0E04
:10442600836F2E0E846F000E856F010E866F2BDF55
:10443600826B140E836F300E846F000E856F010E33
:10444600866F21DF600E826F140E836F200E846FDD
:10445600000E856F010E866F16DF19DE826B836B89
:10446600B2DD8386030E0C6E970E0D6E0D2EFED7F3
:104476000C2EFCD70000000083960401826B88DDB9
:1044860000C043F401C044F43FDE0A0E046E280E59
:10449600056E200E066E770E076E27EC01F000C043
:1044A60072F401C073F402C074F403C075F4330EE1
:1044B600046E330E056E530E066E7D0E076E26ECE9
:1044C60008F000C076F401C077F402C078F403C0A7
:1044D60079F47EC404F07FC405F080C406F081C47C
:1044E60007F072C400F073C401F074C402F075C41E
:1044F60003F026EC08F000C07AF401C07BF402C099
:104506007CF403C07DF4450E0401826F040E836FB4
:104516003F0E846F490E856F000E866F72C487F456
:1045260073C488F474C489F475C48AF40CDD540E1B
:10453600826F040E836F390E846F490E856F000EED
:10454600866F76C487F477C488F478C489F479C40E
:104556008AF4F9DC630E826F040E836F450E846F56
:10456600490E856F000E866F7AC487F47BC488F483
:104576007CC489F47DC48AF4E6DC3C0E826F836BCE
:1045860043C484F444C485F4000E866F876F040E1A
:10459600886F010E896FCCDD3C0E826F0A0E836F29
:1045A600540E846F040E856F010E866F6CDE3C0E12
:1045B600826F140E836F630E846F040E856F010E77
:1045C600866F61DE64DD0B0E0B6E260E0C6E5D0EC5
:1045D6000D6E0D2EFED70C2EFCD70B2EFAD7000033
:1045E60000003C0E826F836B43C484F444C485F49C
:1045F600000E866F876F040E886F896B99DD3C0EFF
:10460600826F0A0E836F450E846F040E856F866B6C
:104616003ADE3C0E826F140E836F630E846F040EB7
:0A462600856F866B30DE29D7FFD7C1
:10494E0010EE15F02C0E006E010E016EA30EF66E1B
:0E495E00480EF76E000EF86E7FEC20F012008F
:10463000000000000000004F000000070007001409
:104640007F147F14242A7F2A1223130864623649B8
:104650005522500005030000001C224100004122A9
:104660001C0014083E081408083E080800503000DA
:104670000008080808080060600000201008040214
:104680003E5149453E00427F40004261514946212A
:1046900041454B311814127F1027454545393C4A96
:1046A00049493001710905033649494936064949E6
:1046B000291E00363600000056360000000814227D
:1046C0004114141414144122140800020159050263
:1046D000324979413E7E1111117E7F494949363E6A
:1046E000414141227F4141221C7F494949417F0983
:1046F0000909013E4141497A7F0808087F00417F4E
:1047000041002040413F017F081422417F4040404A
:10471000407F020C027F7F0408107F3E4141413EF2
:104720007F090909063E4151215E7F091929464644
:104730004949493101017F01013F4040403F1F206D
:1047400040201F3F4030403F631408146307087047
:1047500008076151494543007F41410002040810A8
:10476000200041417F0004020102044040404040DB
:10477000000102040020545454787F4844443838DF
:1047800044444420384444487F3854545418087EE4
:104790000901020C5252523E7F0804047800447D05
:1047A00040002040443D007F1028440000417F40ED
:1047B000007C047C04787C08040478384444443841
:1047C0007C14141408081414147C7C08040408488D
:1047D00054545420043F4440203C4040207C1C2042
:1047E00040201C3C4030403C44281028440C505091
:1047F000503C4464544C44000836410000007F00A3
:0B4800000000413608001008100800FE
:10480B000000007FCDCC4C7B0AD723786F12037549
:10481B0017B75171ACC5276EBD37066B95BF566781
:10482B0077CC2B645F700961FFE65B5D08E53C3C70
:04483B006042221B9A
:10483F000000007F000020820000488500007A8879
:10484F0000401C8C0050438F002474928096189661
:10485F0020BC3E99286B6E9CF90215A0EC782DC1F7
:04486F00CAF249E25E
:1048730001000000080000004000000000020000EA
:104883000010000000800000000004000000200071
:1048930000000001000000080000004000000000CC
:0A48A3004144432056616C75650026
:0148AD00000A
:0648AE0075532F636D003D
:0848B400566F6C74616765002A
:0248BC005600A4
:0948BE00436F6E647563742E00F3
:0148C70000F0
:0748C800286E756C6C2900DD
:1048CF00010000000A00000064000000E80300007F
:1048DF0010270000A086010040420F00809698002C
:0848EF0000E1F50500CA9A3B47
:1048F700010000001000000000010000001000008F
:10490700000001000000100000000001000000107E
:10491700303132333435363738396162636465662E
:01492700008F
:1049280030313233343536373839414243444546DD
:01493800007E
:0649390025322E34660059
:06493F0025322E34660053
:0649450025322E3466004D
:02494B005B000F
:020000040030CA
:0D000100021F1EFF8381FF0FC00FE00F40A4
:00000001FF
