:1000000070EF21F00000000000EF00F000000000A1
:0A0010000000000000000000F3D71C
:10001C000B820BAE18EF00F00368026801680068F1
:08002C000A360232FF0E120039
:0E003400026A016A006A086A036A000E12007E
:100042000B840BAE2CEF00F0010E036E026A016A04
:0A005200006A0A360232FF0E1200A7
:08005C000AAE029E000E120024
:100064000CB074EF00F00CA21AEF01F00E6A000E4F
:1000740002648BEF00F0F00E0214D8A456EF00F0E7
:10008400023A01380F0B02260138F00B016E0038DA
:100094000F0B01260038F00B006E08380F0B0026FA
:1000A4000838F00B086E0E84D89002BE6FEF00F093
:1000B40008360036013602360E2A02BE6FEF00F013
:1000C40008360036013602360E2A02BE6FEF00F003
:1000D40008360036013602360E2A0E50036410EF3D
:1000E40001F0035E0BBC08AE15EF01F0D880800E62
:1000F40008640030000E002201220222D8A015EF6D
:1001040001F0023201320032034A1AEF01F015EF16
:1001140001F001C002F000C001F008C000F0086A5C
:10012400000E0E860264C2EF00F0F00E0214D8A492
:10013400AAEF00F0023A01380F0B02260138F00B47
:10014400016E00380F0B01260038F00B006E0E8490
:10015400D89002BE6FEF00F00036013602360E2A48
:1001640002BE6FEF00F00036013602360E2A02BEE0
:100174006FEF00F00036013602360E2A6FEF00F002
:1001840001C002F000C001F0006A000E0E960E8855
:100194000264EFEF00F0F00E0214D8A4DAEF00F0DE
:1001A400023A01380F0B02260138F00B016E0E845F
:1001B400D89002BE6FEF00F0013602360E2A02BE5E
:1001C4006FEF00F0013602360E2A02BE6FEF00F028
:1001D400013602360E2A6FEF00F001C002F0016A08
:1001E400000E0E8602641FEF01F0F00E0214D8A474
:1001F400FEEF00F0023A0E84D89002BE6FEF00F0DA
:1002040002360E2A02BE6FEF00F002360E2A02BE3C
:100214006FEF00F002360E2A6FEF00F0010E0C6E45
:100224000EDF22EF01F0020E0C6E16DF22EF01F05A
:10023400040E0C6EF1DE22EF01F0080E0C6EF8DEF7
:020244001200A6
:10024600025006180E6E086A096A0B6A03500764A4
:1002560016EF02F006500A6E068E028E03500B6EE3
:100266000750036E000E0B6466EF01F00B50075E3D
:10027600D8B407EF02F0070E0764D5EF01F0075E6A
:1002860000C008F001C000F002C001F0026A074E8B
:1002960007EF02F00764AAEF01F0075E00C008F05E
:1002A60001C000F0016A074E07EF02F0076488EF0D
:1002B60001F0075E00C008F0006A074E07EF02F083
:1002C60007646FEF01F00AC002F005C001F004C038
:1002D60000F0086A30EF03F0030E07647AEF01F0CE
:1002E600075E08380F0B086E074E07EF02F0D8902E
:1002F6000832074E07EF02F0D8900832074E07EF94
:1003060002F0D890083207EF02F0030E076499EF67
:1003160001F0075E08380F0B086E0038F00B082650
:1003260000380F0B006E074E07EF02F0D890003230
:100336000832074E07EF02F0D89000320832074E17
:1003460007EF02F0D8900032083207EF02F0030EF2
:100356000764C1EF01F0075E08380F0B086E00381E
:10036600F00B082600380F0B006E0138F00B002644
:1003760001380F0B016E074E07EF02F0D8900132DD
:1003860000320832074E07EF02F0D89001320032F1
:100396000832074E07EF02F0D890013200320832D9
:1003A60007EF02F0030E0764F2EF01F0075E08386C
:1003B6000F0B086E0038F00B082600380F0B006E86
:1003C6000138F00B002601380F0B016E0238F00BD6
:1003D600012602380F0B026E074E07EF02F0D89087
:1003E6000232013200320832074E07EF02F0D8908F
:1003F6000232013200320832074E07EF02F0D8907F
:100406000232013200320832096A000E0EAEFBEFEC
:1004160002F0081E001E011E021E082A00220122EA
:100426000222FBEF02F00750D8A41CEF02F030EFD7
:1004360003F0096A02C00AF0028E068E0750035CBA
:10044600076ED8B4EEEF02F0070E0764BCEF02F0B9
:10045600075E0450096E0550046E0650056E066A66
:10046600074EEEEF02F0070E076491EF02F0075E0B
:100476000450096E0550046E056A074EEEEF02F051
:10048600070E07646FEF02F0075E0450096E046AF8
:10049600074EEEEF02F0070E076456EF02F00AC0B1
:1004A60002F030EF03F0030E076461EF02F0075E1F
:1004B60009380F0B096E074EEEEF02F0D89009329D
:1004C600074EEEEF02F0D8900932074EEEEF02F03B
:1004D600D8900932EEEF02F0030E076480EF02F0C7
:1004E600075E09380F0B096E0438F00B092604382D
:1004F6000F0B046E074EEEEF02F0D890043209326D
:10050600074EEEEF02F0D89004320932074EEEEFB6
:1005160002F0D89004320932EEEF02F0030E0764BF
:10052600A8EF02F0075E09380F0B096E0438F00BCE
:10053600092604380F0B046E0538F00B042605381F
:100546000F0B056E074EEEEF02F0D890053204321F
:100556000932074EEEEF02F0D89005320432093226
:10056600074EEEEF02F0D890053204320932EEEF74
:1005760002F0030E0764D9EF02F0075E09380F0B8D
:10058600096E0438F00B092604380F0B046E053883
:10059600F00B042605380F0B056E0638F00B052602
:1005A60006380F0B066E074EEEEF02F0D8900632B5
:1005B600053204320932074EEEEF02F0D8900632C9
:1005C600053204320932074EEEEF02F0D8900632B9
:1005D600053204320932086A000E0EAEFBEF02F055
:1005E600091E041E051E061E092A042205220622CD
:1005F6000950082604500022055001220650022206
:100606000EBE12EF03F0D8A021EF03F00232013242
:1006160000320832033E21EF03F02BEF03F0D8B08F
:1006260026EF03F0000E081E001E011E021E082AF9
:100636000022012202220A7E26EF03F0010E0C6E32
:100646000EDD32EF03F0020E0C6E09DD32EF03F021
:10065600040E0C6EE0DC32EF03F0000E0C6E12009E
:100666000134083609360450085E0550D8A0053C0A
:10067600095E003601360F0E0C6E01340836093657
:10068600045000A006D0085E0550D8A0053C095EBF
:1006960005D008260550D8B0053C09260036013697
:1006A6000C2EEBD700B006D0045008260550D8B063
:0806B600053C092600001200BA
:1006BE000B800BAE6BEF03F0026A0AAEFF0E026EFA
:0C06CE00016E006E0A360232FF0E1200B0
:0806DA000B6A0B86FF0E1200F3
:1006E200086A080E0C6E003408360450085ED8B052
:0E06F20002D00826D89000360C2EF5D7120044
:100700000D6A086A0050D8B4000C04180A6E0ABEBC
:100710000D1E0B6A04AE02D0041E042A00A002D0F3
:10072000001E002A005004100A6E0ABE1FD004509A
:10073000085E003600340836045008260036060EDF
:100740000C6E00340836045000B0085E00A0082685
:1007500000360C2EF6D700A008260BB015D00DAE33
:10076000000C001E002A081E082A000C04AE09D046
:1007700000BE04D00050086E006AF1D7006A002A5B
:10078000000C001E0B2AD3D7082A0450085CD8A4FA
:0E079000E6D7086A002A00AEE2D7FF0C12007E
:10079E00086A096A000E0762036454EF04F00250FF
:1007AE0006180A6E075003267E0ED8A0E5EF03F05A
:1007BE00035ED8B059EF04F0E9EF03F0035ED8A062
:1007CE005EEF04F0028E068E02C00EF001C00BF03A
:1007DE0000C00DF000500402F4CF0CF001500502E1
:1007EE00F4CF00F0F3CF08F00402F3500C26F450CF
:1007FE000822000E00220D500502F3500C26F45074
:10080E000822000E002202500402F3500826F45073
:10081E00002202500502016A000E0122F35000264A
:10082E00F45001220D500602F3500826F450002217
:10083E00026A000E012202220B500602F35000261D
:10084E00F4500122000E02220E500602F350012631
:10085E00F450022202BE3CEF04F008360036013698
:10086E0002360306D8B45EEF04F04FEF04F0D880E2
:10087E00800E08640030000E002201220222D8A051
:10088E004FEF04F0023201320032034A59EF04F006
:10089E000AAE029E000E61EF04F0010E1AEC00F09B
:1008AE0061EF04F0020E0EEC00F061EF04F0040EA6
:0608BE0021EC00F0120025
:1008C4000A6A0350D8A40A800750D8A40A820A509E
:1008D400D8B4C5EF04F0030AD8B47EEF04F00AB02C
:1008E40079EF04F006AEC3EF04F0C1EF04F002AEFA
:1008F400C1EF04F0C3EF04F00250800B0A6E029EB5
:100904000650800B069E0A18D8B48FEF04F00A50E4
:10091400D8B4C1EF04F0C3EF04F00750035CD8B4BB
:1009240099EF04F0D8A0B5EF04F0BBEF04F0065043
:10093400025CD8B4A3EF04F0D8A0B5EF04F0BBEF89
:1009440004F00550015CD8B4ADEF04F0D8A0B5EFC5
:1009540004F0BBEF04F00450005CD8B4C5EF04F01D
:10096400D8B0BBEF04F00A52D8B4C3EF04F0C1EF1F
:1009740004F00A52D8B4C1EF04F0C3EF04F0D880F5
:0E0984001200D8901200D880D8841200120001
:060992008482849412002F
:0609980084848492120029
:10099E000450000A12E10550000A0FE10650000A49
:1009AE000CE10750000A09E1FF0E006EFF0E016E0A
:1009BE007F0E026EFF0E036E1200086A096A075060
:1009CE00D8B47AEF05F00350D8B47EEF05F002509C
:1009DE0006180A6E028E068E0E6A02C008F001C05C
:1009EE000CF000C00DF004500D5E0550D8A0053C73
:1009FE000C5E0650D8A0063C085E086A0C6A0D6AAA
:100A0E00D8A011EF05F0D890023201320032083230
:100A1E00010E0E6E0750035ED8A01EEF05F07E0E7F
:100A2E000E240326D8B083EF05F024EF05F07E0EDA
:100A3E000E240326D8A088EF05F0180E0B6E0D3687
:100A4E000C3608360036013602360E360450005E7D
:100A5E000550D8A0053C015E0650D8A0063C025EAB
:100A6E0006340E120EA03FEF05F00D804AEF05F092
:100A7E00045000260550D8B0053C01260650D8B0CB
:100A8E00062802260D900B2E26EF05F070EF05F0CE
:100A9E00D8900036013602360E360450005E0550F0
:100AAE00D8A0053C015E0650D8A0063C025E063476
:100ABE000E10010B0D26D8B00C2AD8B4082AD8A4D3
:100ACE0070EF05F008320C320D32032AD8B483EFE2
:100ADE0005F00AAE089E0850026E0C50016E0D50C5
:100AEE00006E8BEF05F0010EF1DD8BEF05F0020EBF
:100AFE001AEC00F08BEF05F0040E0EEC00F08BEF0D
:0A0B0E0005F0080E21EC00F01200C3
:100B18000450000A08E10550000A05E1FF0E006EC6
:100B28007F0E016E12000D6A096A086A01500010F2
:100B3800D8B4000C015005180A6E0ABE0D1E0B6AC7
:100B480005AE05D0041E051E042AD8B4052A01AE38
:100B580005D0001E011E002AD8B4012A0150051034
:100B68000A6E0ABE10D07BDD0BB020D00DAE000C93
:100B7800001E011E002AD8B4012A081E091E082AD0
:100B8800D8B4092A000C05AE0DD001BE07D001501B
:100B9800096E0050086E016A006AE8D7016A006AA7
:100BA800002A000C011E001E0B2ADDD7082AD8B423
:100BB800092A0450085CD8A4D9D70550095CD8A4E0
:100BC800D5D7096A086A002AD8B4012A01AECED757
:060BD8000000FF0C1200FA
:100BDE000B6A0C6A086A0350D8B473EF06F002C0B1
:100BEE000AF0028E9E0E035E03AE63EF06F0036CF8
:100BFE00080E035CD8A030EF06F0036E083600C076
:100C0E0008F001C000F002C001F0026A080E035C99
:100C1E00D8A030EF06F0036E083600C008F001C011
:100C2E0000F0016A080E035CD8A030EF06F0036EE8
:100C3E00083600C008F0006A080E035CD8A030EF3A
:100C4E0006F0036E0836086A0350D8A4D8903CEF1D
:100C5E0006F00350D8B43CEF06F0D89002320132C1
:100C6E0000320832032E34EF06F00BBC08A04DEF15
:100C7E0006F0D8A04DEF06F0082AD8B4002AD8B452
:100C8E00012AD8B4022A02BE77EF06F00AAE73EF3D
:100C9E0006F0021E011E001E081E082AD8B4002AE5
:100CAE00D8B4012AD8B4022A73EF06F0026A016A98
:100CBE00006A086A73EF06F00B800BAE7DEF06F04C
:100CCE00026A0AAE7DEF06F0026E016E006E086ECD
:100CDE000A3602327DEF06F00C6A000E7EEF06F049
:100CEE00010E0C6E000EE4DC7EEF06F0FF0E0250DD
:100CFE00036E0150026E0050016E0850006E12001D
:100D0E00838A838E9AC481FF9AC481FF9AC481FF1D
:080D1E009AC481FF839E1200BC
:100D260004019A51390806E3300E9A5D03E3010E79
:080D3600006E01D0006A1200FA
:100D3E00839A838E9AC481FF9AC481FF9AC481FFDD
:080D4E009AC481FF839E12008C
:100D560003500718D8A4BFEF06F002500618D8A40F
:100D6600BFEF06F001500518D8A4BFEF06F00050FB
:0E0D76000418D8B4D8841200D89412001200C9
:100D84000B6A0A6A096A00500402F4CF09F0F3CF2F
:100D940008F001500502F4CF0BF0F3CF0AF0005035
:100DA4000502F3500926F4500A22E86A0B22015086
:100DB4000402F3500926F4500A22E86A0B2208C000
:100DC40000F009C001F00AC002F00BC003F01200E9
:100DD4000050086E0150006E0250016E0350026E06
:100DE400036A0B6A0C6A9E0E036E0A6A020E0C6E8C
:060DF40032EC00F01200D9
:100DFA00800E04019A19006E800E000A005CD8B0B9
:100E0A0068D19A510008016E01C09AF4800E011847
:100E1A00006E800E6E0A005CD8A0BBD0640E046E11
:100E2A009AC400F068DC120E0024056E000E00BEA3
:100E3A00FF0E066E000E062205C000F006C001F085
:100E4A00000E06BEFF0E026E036E003600900136DB
:100E5A000236033600360090013602360336EB0EB0
:100E6A000024F66E460E0120F76E000E0220F86E80
:100E7A000900F5CF9BF40900F5CF9CF40900F5CFE2
:100E8A009DF40900F5CF9EF4640E046E9AC400F036
:100E9A0032DC08C000F00A0E046E2DDC090E0024B4
:100EAA00056E000E00BEFF0E066E000E062205C07D
:100EBA0000F006C001F0000E06BEFF0E026E036EC1
:100ECA0000360090013602360336003600900136AD
:100EDA0002360336EB0E0024F66E460E0120F76E3C
:100EEA00000E0220F86E0900F5CF00F00900F5CFD8
:100EFA0001F00900F5CF02F00900F5CF03F09BC419
:100F0A0004F09CC405F09DC406F09EC407F042DCC0
:100F1A0000C09BF401C09CF402C09DF403C09EF47F
:100F2A000A0E046E9AC400F080EC03F008C000F0C8
:100F3A0000C001F0000E00BEFF0E026E036E046ECA
:100F4A000136019002360336043601360190023624
:100F5A0003360436EB0E0124F66E460E0220F76EB7
:100F6A00000E0320F86E0900F5CF00F00900F5CF56
:100F7A0001F00900F5CF02F00900F5CF03F09BC498
:100F8A0004F09CC405F09DC406F09EC407F002DC80
:100F9A001200800E0A0A006E800E9A19005C71E235
:100FAA000A0E046E9AC400F080EC03F0090E0024C5
:100FBA00056E000E00BEFF0E066E000E062205C06C
:100FCA0000F006C001F0000E06BEFF0E026E036EB0
:100FDA00003600900136023603360036009001369C
:100FEA0002360336EB0E0024F66E460E0120F76E2B
:100FFA00000E0220F86E0900F5CF9BF40900F5CF28
:10100A009CF40900F5CF9DF40900F5CF9EF40A0E71
:10101A00046E9AC400F080EC03F008C000F000C02F
:10102A0001F0000E00BEFF0E026E036E046E013662
:10103A000190023603360436013601900236033631
:10104A000436EB0E0124F66E460E0220F76E000EF1
:10105A000320F86E0900F5CF00F00900F5CF01F082
:10106A000900F5CF02F00900F5CF03F09BC404F0A4
:10107A009CC405F09DC406F09EC407F0CFEC03F0B3
:10108A0012009AC400F0000E9ABFFF0E016E026EA3
:10109A00036E0036009001360236033600360090A1
:1010AA00013602360336EB0E0024F66E460E012098
:1010BA00F76E000E0220F86E0900F5CF00F0090065
:1010CA00F5CF01F00900F5CF02F00900F5CF03F0E2
:1010DA001200800E9A19006E800E6E0A005CD8A06B
:1010EA00C0D0640E046E9AC400F080EC03F0120EB5
:1010FA000024056E000E00BEFF0E066E000E0622CC
:10110A0005C000F006C001F0000E06BEFF0E026E1A
:10111A00036E003600900136023603360036009020
:10112A000136023603361F0E0024F66E470E0120E2
:10113A00F76E000E0220F86E0900F5CF9BF4090045
:10114A00F5CF9CF40900F5CF9DF40900F5CF9EF484
:10115A00640E046E9AC400F080EC03F008C000F03C
:10116A000A0E046E80EC03F0090E0024056E000ED0
:10117A0000BEFF0E066E000E062205C000F006C075
:10118A0001F0000E06BEFF0E026E036E00360090DE
:10119A00013602360336003600900136023603362F
:1011AA001F0E0024F66E470E0120F76E000E022075
:1011BA00F86E0900F5CF00F00900F5CF01F009003B
:1011CA00F5CF02F00900F5CF03F09BC404F09CC4EC
:1011DA0005F09DC406F09EC407F0CFEC03F000C0F2
:1011EA009BF401C09CF402C09DF403C09EF40A0E55
:1011FA00046E9AC400F080EC03F008C000F000C04E
:10120A0001F0000E00BEFF0E026E036E046E013680
:10121A00019002360336043601360190023603364F
:10122A0004361F0E0124F66E470E0220F76E000EDA
:10123A000320F86E0900F5CF00F00900F5CF01F0A0
:10124A000900F5CF02F00900F5CF03F09BC404F0C2
:10125A009CC405F09DC406F09EC407F0CFEC03F0D1
:10126A001200800E0A0A006E800E9A19005C71E262
:10127A000A0E046E9AC400F080EC03F0090E0024F2
:10128A00056E000E00BEFF0E066E000E062205C099
:10129A0000F006C001F0000E06BEFF0E026E036EDD
:1012AA0000360090013602360336003600900136C9
:1012BA00023603361F0E0024F66E470E0120F76E23
:1012CA00000E0220F86E0900F5CF9BF40900F5CF55
:1012DA009CF40900F5CF9DF40900F5CF9EF40A0E9F
:1012EA00046E9AC400F080EC03F008C000F000C05D
:1012FA0001F0000E00BEFF0E026E036E046E013690
:10130A00019002360336043601360190023603365E
:10131A0004361F0E0124F66E470E0220F76E000EE9
:10132A000320F86E0900F5CF00F00900F5CF01F0AF
:10133A000900F5CF02F00900F5CF03F09BC404F0D1
:10134A009CC405F09DC406F09EC407F0CFEC03F0E0
:10135A0012009AC400F0000E9ABFFF0E016E026ED0
:10136A00036E0036009001360236033600360090CE
:10137A000136023603361F0E0024F66E470E012090
:10138A00F76E000E0220F86E0900F5CF00F0090092
:10139A00F5CF01F00900F5CF02F00900F5CF03F00F
:0213AA0012002F
:1013AC000B6A0C6A0A6A086A0350D8B45EEF0AF03A
:1013BC00028E9E0E035E03BEE9EF09F0D8B4E9EF8E
:1013CC0009F04EEF0AF0036C080E035CD8A01BEF7B
:1013DC000AF0036E083600C008F001C000F002C02D
:1013EC0001F0026A080E035CD8A01BEF0AF0036E32
:1013FC00083600C008F001C000F0016A080E035C5A
:10140C00D8A01BEF0AF0036E083600C008F0006A83
:10141C00080E035CD8A01BEF0AF0036E0836086AAE
:10142C000350D8A4D89027EF0AF00350D8B427EF74
:10143C000AF0D8900232013200320832032E1FEF2C
:10144C000AF00BBC08A038EF0AF0D8A038EF0AF06D
:10145C00082AD8B4002AD8B4012AD8B4022A02BE69
:10146C0062EF0AF00AAE5EEF0AF0021E011E001EC9
:10147C00081E082AD8B4002AD8B4012AD8B4022AE3
:10148C005EEF0AF0026A016A006A086A5EEF0AF00F
:10149C000B800BAE68EF0AF0026A0AAE68EF0AF036
:1014AC00026E016E006E086E0A36023268EF0AF0A8
:1014BC00000E0C6A69EF0AF0010E0C6E5FEC03F083
:1014CC0069EF0AF0FF0E0250036E0150026E0050DD
:0814DC00016E0850006E1200C1
:1014E4006E0E04019A5DD8A0CAD0640E046E9AC42C
:1014F40000F071EC03F0120E0024056E066A000E73
:10150400062205C000F006C001F0000E06BEFF0E64
:10151400026E036E00360090013602360336003642
:101524000090013602360336EB0E0024F66E460EAA
:101534000120F76E000E0220F86E0900F5CF00F0CE
:101544000900F5CF01F00900F5CF02F00900F5CF4D
:1015540003F0000E046E000E056E000E066E7E0E85
:10156400076ECFEC03F000C09BF401C09CF402C0F2
:101574009DF403C09EF4640E046E9AC400F071ECF2
:1015840003F008C000F00A0E046E71EC03F0090EBB
:101594000024056E066A000E062205C000F006C08F
:1015A40001F0000E06BEFF0E026E036E00360090C0
:1015B4000136023603360036009001360236033611
:1015C400EB0E0024F66E460E0120F76E000E02208C
:1015D400F86E0900F5CF00F00900F5CF01F009001D
:1015E400F5CF02F00900F5CF03F09BC404F09CC4CE
:1015F40005F09DC406F09EC407F0CFEC03F000C0D4
:101604009BF401C09CF402C09DF403C09EF40A0E36
:10161400046E9AC400F071EC03F008C000F000C03E
:1016240001F0000E026E036E046E01360190023664
:101634000336043601360190023603360436EB0EC7
:101644000124F66E460E0220F76E000E0320F86E9B
:101654000900F5CF00F00900F5CF01F00900F5CF3E
:1016640002F00900F5CF03F09BC404F09CC405F01C
:101674009DC406F09EC407F0CFEC03F012009A510B
:101684000A087EE20A0E046E9AC400F071EC03F0BC
:10169400090E0024056E066A000E062205C000F03D
:1016A40006C001F0000E06BEFF0E026E036E003689
:1016B40000900136023603360036009001360236B9
:1016C4000336EB0E0024F66E460E0120F76E000E74
:1016D4000220F86E0900F5CF00F00900F5CF01F003
:1016E4000900F5CF02F00900F5CF03F0000E046EF7
:1016F400000E056E000E066E7E0E076ECFEC03F034
:1017040000C09BF401C09CF402C09DF403C09EF48D
:101714000A0E046E9AC400F071EC03F008C000F0E5
:1017240000C001F0000E026E036E046E01360190DB
:101734000236033604360136019002360336043687
:10174400EB0E0124F66E460E0220F76E000E032007
:10175400F86E0900F5CF00F00900F5CF01F009009B
:10176400F5CF02F00900F5CF03F09BC404F09CC44C
:1017740005F09DC406F09EC407F0CFEC03F0120000
:101784009AC400F0000E016E026E036E00360090E3
:10179400013602360336003600900136023603362F
:1017A400EB0E0024F66E460E0120F76E000E0220AA
:1017B400F86E0900F5CF00F00900F5CF01F009003B
:1017C400F5CF02F00900F5CF03F0000E046E000E11
:1017D400056E000E066E7E0E076ECFEC03F012004F
:1017E4000B6A0A6A096A086A0E6A033408360450E6
:1017F400085E0550D8A0053C095E0650D8A0063CFA
:101804000A5E0750D8A0073C0B5EE86AD8A0010E18
:101814000E5E0336070E0C6E0334083609360A369C
:101824000B360E36045003A012D0085E0550D8A023
:10183400053C095E0650D8A0063C0A5E0750D8A0B5
:10184400073C0B5EE86AD8A0010E0E5E11D0082694
:101854000550D8B0053C09260650D8B0063C0A26E7
:101864000750D8B0073C0B26E86AD8B0010E0E2604
:1018740003360C2ED1D70234083609360A360B3615
:101884000E36045003A012D0085E0550D8A0053CC3
:10189400095E0650D8A0063C0A5E0750D8A0073C53
:1018A4000B5EE86AD8A0010E0E5E11D00826055022
:1018B400D8B0053C09260650D8B0063C0A26075085
:1018C400D8B0073C0B26E86AD8B0010E0E260236C3
:1018D400070E0C6E0234083609360A360B360E36FD
:1018E400045002A012D0085E0550D8A0053C095E41
:1018F4000650D8A0063C0A5E0750D8A0073C0B5EF1
:10190400E86AD8A0010E0E5E11D008260550D8B0A2
:10191400053C09260650D8B0063C0A260750D8B024
:10192400073C0B26E86AD8B0010E0E2602360C2EB0
:10193400D1D70134083609360A360B360E36045030
:1019440002A012D0085E0550D8A0053C095E0650DE
:10195400D8A0063C0A5E0750D8A0073C0B5EE86A94
:10196400D8A0010E0E5E11D008260550D8B0053C53
:1019740009260650D8B0063C0A260750D8B0073CC2
:101984000B26E86AD8B0010E0E260136070E0C6E3F
:101994000134083609360A360B360E36045001A0D7
:1019A40012D0085E0550D8A0053C095E0650D8A0A8
:1019B400063C0A5E0750D8A0073C0B5EE86AD8A034
:1019C400010E0E5E11D008260550D8B0053C09263C
:1019D4000650D8B0063C0A260750D8B0073C0B2660
:1019E400E86AD8B0010E0E2601360C2ED1D7003489
:1019F400083609360A360B360E36045001A012D0CA
:101A0400085E0550D8A0053C095E0650D8A0063CE7
:101A14000A5E0750D8A0073C0B5EE86AD8A0010E06
:101A24000E5E11D008260550D8B0053C0926065094
:101A3400D8B0063C0A260750D8B0073C0B26E86A03
:101A4400D8B0010E0E260036070E0C6E0034083690
:101A540009360A360B360E36045000A012D0085E42
:101A64000550D8A0053C095E0650D8A0063C0A5E85
:101A74000750D8A0073C0B5EE86AD8A0010E0E5EA2
:101A840011D008260550D8B0053C09260650D8B018
:101A9400063C0A260750D8B0073C0B26E86AD8B0A3
:101AA400010E0E2600360C2ED1D700B00ED00450F5
:101AB40008260550D8B0053C09260650D8B0063C87
:0C1AC4000A260750D8B0073C0B26120081
:081AD000067E23EC01F0120078
:101AD800030E006E7BC482F4000E0401836F005075
:101AE80004E08233829FFF0FFBD7070E006E000EC3
:101AF800836F005005E0823782918337FF0FFAD752
:101B08007A518227000E8323070E7B17200E7F5DF4
:101B180073E37F517E0870E3200E7F5D006E016ADB
:101B2800000E015A050E046E000E056EC2EC06F09A
:101B380000507C2701507D23000E01BEFF0E7E233E
:101B4800806B050E805D58E27CC4F6FF7DC4F7FF0C
:101B58007EC4F8FF0900F5CF04F004C081F43F0EFD
:101B68008225026E000E8321036E7BC401F004C03F
:101B780000F0015004E000360090FF0FFBD702C0D0
:101B8800E9FF03C0EAFFEE50001202C0E1FF03C004
:101B9800E2FF00C0E6FF800E8225006E000E832162
:101BA800016E3F0E0024026E000E0120036E7B5171
:101BB8000808006E016A000E015A00C001F081C4D5
:101BC80000F0015004E00032009EFF0FFBD702C076
:101BD800E9FF03C0EAFFEE50001202C0E1FF03C0B4
:101BE800E2FF00C0E6FF824B832B010E7C27000E2C
:101BF8007D237E23802BA5D7060E7A25006E016AE9
:061C0800000E0122120093
:101C0E00030E006E7BC482F4000E0401836F00503D
:101C1E0004E08233829FFF0FFBD7070E006E000E8B
:101C2E00836F005005E0823782918337FF0FFAD71A
:101C3E007A518227000E8323070E7B17200E7F5DBD
:101C4E0077E37F517E0874E3200E7F5D006E016A9C
:101C5E00000E015A050E046E000E056EC2EC06F063
:101C6E0000507C2701507D23000E01BEFF0E7E2307
:101C7E00806B050E805D5CE27CC4F6FF7DC4F7FFD1
:101C8E007EC4F8FF0900F5CF04F004C081F43F0EC6
:101C9E008225026E000E8321036E7BC401F004C008
:101CAE0000F0015004E000360090FF0FFBD7FF0E4E
:101CBE00001A02C0E9FF03C0EAFFEE50001602C090
:101CCE00E1FF03C0E2FF00C0E6FF800E8225006E3A
:101CDE00000E8321016E3F0E0024026E000E0120C5
:101CEE00036E7B510808006E016A000E015A00C097
:101CFE0001F081C400F0015004E00032009EFF0F9D
:101D0E00FBD7FF0E001A02C0E9FF03C0EAFFEE5038
:101D1E00001602C0E1FF03C0E2FF00C0E6FF824BE7
:101D2E00832B010E7C27000E7D237E23802BA1D7D3
:0E1D3E00060E7A25006E016A000E01221200C8
:101D4C000401926B936B866B876B7CC400F07DC433
:101D5C0001F07EC402F0010E7C27000E7D237E2351
:101D6C0000C0F6FF01C0F7FF02C0F8FF0900F5CF75
:101D7C0000F000C083F40052D8B4DFEF1EF08351A2
:101D8C00250A0BE07AC4E1FF7BC4E2FF83C4E6FFC3
:101D9C007A4B7B2B924B932BD8D7846B856B866BB2
:101DAC00876B23D08687010E7C27000E7D237E2334
:101DBC0059D08681010E7C27000E7D237E2352D0C4
:101DCC008683010E7C27000E7D237E234BD08787D4
:101DDC00010E7C27000E7D237E2344D08685010EC8
:101DEC007C27000E7D237E233DD07CC4F6FF7DC472
:101DFC00F7FF7EC4F8FF0900F5CF01F001502D0A62
:101E0C00D1E07CC4F6FF7DC4F7FF7EC4F8FF090067
:101E1C00F5CF01F00150200ACCE07CC4F6FF7DC464
:101E2C00F7FF7EC4F8FF0900F5CF01F001502B0A33
:101E3C00C7E07CC4F6FF7DC4F7FF7EC4F8FF090041
:101E4C00F5CF01F00150230AC2E07CC4F6FF7DC43B
:101E5C00F7FF7EC4F8FF0900F5CF01F00150300AFE
:101E6C00BDE001D09ED786A301D0869186A701D074
:101E7C0086957CC4F6FF7DC4F7FF7EC4F8FF09008D
:101E8C00F5CF00F0000E016E00C09AF493EC06F052
:101E9C00005236E0846B856B84C400F085C401F07D
:101EAC000A0E046E000E056EC2EC06F07CC4F6FF42
:101EBC007DC4F7FF7EC4F8FF0900F5CF02F0025095
:101ECC000024846F000E0120856F300E845F000E9D
:101EDC00855B010E7C27000E7D237E237CC4F6FFE0
:101EEC007DC4F7FF7EC4F8FF0900F5CF00F0000EAB
:101EFC00016E00C09AF493EC06F00052CDE135D09F
:101F0C007CC4F6FF7DC4F7FF7EC4F8FF0900F5CF53
:101F1C0001F001502A0A29E17FC4E9FF80C4EAFFDD
:101F2C00EECF00F0EECF01F000C0E9FF01C0EAFFF8
:101F3C00EECF84F4EECF85F47FC4E9FF80C4EAFFD2
:101F4C00EECF00F0EECF01F0020E0026000E0122C3
:101F5C007FC4E1FF80C4E2FF00C0E6FF01C0E6FFE2
:101F6C00010E7C27000E7D237E237CC4F6FF7DC4EE
:101F7C00F7FF7EC4F8FF0900F5CF01F001502E0ADF
:101F8C0072E1010E7C27000E7D237E237CC4F6FFBC
:101F9C007DC4F7FF7EC4F8FF0900F5CF01F00150B6
:101FAC002A0A2AE17FC4E9FF80C4EAFFEECF00F0E1
:101FBC00EECF01F000C0E9FF01C0EAFFEECF81F4E3
:101FCC00EECF82F47FC4E9FF80C4EAFFEECF00F0CD
:101FDC00EECF01F0020E0026000E01227FC4E1FFBD
:101FEC0080C4E2FF00C0E6FF01C0E6FF010E7C27C3
:101FFC00000E7D237E2336D0816B826B7CC4F6FF72
:10200C007DC4F7FF7EC4F8FF0900F5CF00F0000E89
:10201C00016E00C09AF493EC06F0005223E081C4E8
:10202C0000F082C401F00A0E046E000E056EC2ECC4
:10203C0006F07CC4F6FF7DC4F7FF7EC4F8FF0900F0
:10204C00F5CF02F002500024816F000E0120826F48
:10205C00300E815F000E825B010E7C27000E7D230B
:10206C007E23CCD703D0816B826B87897CC400F034
:10207C007DC401F07EC402F0010E7C27000E7D238E
:10208C007E2300C0F6FF01C0F7FF02C0F8FF090075
:10209C00F5CF83F400D192C400F093C401F0120088
:1020AC008689E4D7878536D1868B878133D1878320
:1020BC0031D1868D2FD12ED1868B868F2BD17FC49B
:1020CC00E9FF80C4EAFFEECF00F0EECF01F000C0D4
:1020DC00E9FF01C0EAFFEECF00F0EECF01F000C047
:1020EC008EF401C08FF47FC4E9FF80C4EAFFEECF09
:1020FC0000F0EECF01F0020E0026000E01227FC48C
:10210C00E1FF80C4E2FF00C0E6FF01C0E6FF000E65
:10211C008F1902E1000E8E1904E1380E8E6F000E3D
:10212C008F6F906B916B90518E25E96E91518F2131
:10213C00EA6EEE520BE0010E9025006E000E91211E
:10214C00016E00C090F401C091F4EDD78151821161
:10215C000AE09151825D02E19051815D04E281C4FB
:10216C0090F482C491F48551915D02E18451905DAB
:10217C0005E29051845F9151855B02D0846B856B35
:10218C0086B716D084C400F085C401F0010E845FBC
:10219C00000E855B005001100BE07AC4E1FF7BC49C
:1021AC00E2FF200EE66E7A4B7B2B924B932BEAD7F9
:1021BC0090C402F091C403F0010E905D006E000E0D
:1021CC009159016E00C090F401C091F402500310BB
:1021DC0019E08EC4E9FF8FC4EAFF7AC4E1FF7BC427
:1021EC00E2FFEECFE6FF7A4B7B2B010E8E25006EC5
:1021FC00000E8F21016E00C08EF401C08FF4924B43
:10220C00932BD6D786A716D084C400F085C401F0D2
:10221C00010E845F000E855B005001100BE07AC448
:10222C00E1FF7BC4E2FF200EE66E7A4B7B2B924BD8
:10223C00932BEAD78AD57FC4E9FF80C4EAFFEECF9F
:10224C0000F0EECF01F000C0E9FF01C0EAFFEECFD5
:10225C0083F47FC4E9FF80C4EAFFEECF00F0EECF39
:10226C0001F0020E0026000E01227FC4E1FF80C4A3
:10227C00E2FF00C0E6FF01C0E6FF830E8E6F040E86
:10228C008F6F010E906F000E916F60D7C00E86138A
:10229C00000E87133FD08351000AD8B4FCD683516B
:1022AC006C0AD8B4FDD683514C0AD8B4F9D68351F4
:1022BC00660AD8B4F7D68351450AD8B4F5D68351FB
:1022CC00650AD8B4F2D68351670AD8B4F0D68351D4
:1022DC006F0AD8B4EED68351640AD8B4ECD68351C5
:1022EC00690AD8B4E8D68351700AD8B4E5D68351BC
:1022FC00580AD8B4E1D68351780AD8B4DED68351C3
:10230C00730AD8B4DCD68351630A95E08351750AFD
:10231C00BDE0B3D7000E8615006E8751070B016E1A
:10232C0000500110D8B46AEF1AF087A904D0060E39
:10233C00816F000E826F7FC4E9FF80C4EAFFEECF8D
:10234C0000F0EECF01F000C0E9FF01C0EAFFEECFD4
:10235C0088F4EECF89F4EECF8AF4EECF8BF47FC401
:10236C00E9FF80C4EAFFEECF00F0EECF01F0040EDF
:10237C000026000E01227FC4E1FF80C4E2FF00C0F2
:10238C00E6FF01C0E6FF046A056A066A076A88C4AC
:10239C0000F089C401F08AC402F08BC403F062EC33
:1023AC0004F0010ED8B0000E006E005205E08A7FDA
:1023BC00030E8613000E87138C6B8D6B88C400F094
:1023CC0089C401F08AC402F08BC403F0046A056A64
:1023DC00066A076AABEC06F0000ED8A4010E006E7C
:1023EC000052D8B48AD08BC400F0016A026A036A26
:1023FC00FF0E0016000E01167E0E005E000E015A36
:10240C0000C08CF401C08DF4010E005E000E015A68
:10241C0000C08CF401C08DF4030E046E000E056E2A
:10242C00C2EC06F000C08CF401C08DF40A0E046EF0
:10243C00000E056E8CEC05F000C08CF401C08DF420
:10244C00800E0118026E800E025C02E1000E005C30
:10245C0005E2010E04018C5F000E8D5B04018C51B2
:10246C0000089A6FFDEC06F088C404F089C405F0EE
:10247C008AC406F08BC407F0CFEC03F000C08EF4D6
:10248C0001C08FF402C090F403C091F4000E046EEE
:10249C00000E056E000E066E7F0E076E8EC400F0E9
:1024AC008FC401F090C402F091C403F062EC04F00C
:1024BC00010ED8B0000E006E005205E0010E8C5FCC
:1024CC00000E8D5B1AD0000E046E000E056E200EF1
:1024DC00066E820E076E8EC400F08FC401F090C49D
:1024EC0002F091C403F062EC04F0000ED8B0010EBF
:1024FC00006E005202E08C4B8D2B800E006E800E15
:10250C008D19005C02E18C51000803E3010E836F0E
:10251C0002D08CC483F487B118D087A315D0800E59
:10252C008D19006E7F0E005C02E1FC0E8C5D0BE3DE
:10253C00800E8D19006E800E8219005C02E18151B3
:10254C008C5D01E201D001D0F1D38151821106E002
:10255C0087A304D0010E815F000E825B000E006E1B
:10256C008251005C02E18151080803E2080E836F7E
:10257C0002D081C483F488C400F089C401F08AC4F9
:10258C0002F08BC403F0046A056A066A076AABECB6
:10259C0006F0000ED8A4010E006E0052D8B44BD138
:1025AC008CC49AF4FDEC06F000C004F001C005F0F8
:1025BC0002C006F003C007F088C400F089C401F023
:1025CC008AC402F08BC403F0CFEC04F000C088F492
:1025DC0001C089F402C08AF403C08BF40401835156
:1025EC0000089A6FFDEC06F000C004F001C005F085
:1025FC0002C006F003C007F088C400F089C401F0E3
:10260C008AC402F08BC403F0CFEC04F000C094F445
:10261C0001C095F402C096F403C097F494C488F4F6
:10262C0095C489F496C48AF497C48BF494C400F0CE
:10263C0095C401F096C402F097C403F0D6EC09F0EF
:10264C00EAEC06F000C004F001C005F002C006F090
:10265C0003C007F094C400F095C401F096C402F0D6
:10266C0097C403F068EC0DF0000E046E000E056EBE
:10267C00000E066E7E0E076E62EC04F0000ED8B0F3
:10268C00010E006E00521AE088C400F089C401F0FB
:10269C008AC402F08BC403F0000E046E000E056EAB
:1026AC00000E066E7E0E076E23EC01F000C088F45F
:1026BC0001C089F402C08AF403C08BF488C400F012
:1026CC0089C401F08AC402F08BC403F0D6EC09F083
:1026DC0004018351010F096E0A6A000E0A2209C017
:1026EC0004F00AC005F0000E0ABEFF0E066E076E5F
:1026FC000436049005360636073604360490053643
:10270C0006360736AD0E0424F66E470E0520F76E1E
:10271C00000E0620F86E0900F5CF05F00900F5CF84
:10272C0006F00900F5CF07F00900F5CF08F00850C6
:10273C00035C08E10750025C05E10650015C02E114
:10274C000550005C1EE3040188C400F089C401F04C
:10275C008AC402F08BC403F0CD0E046ECC0E056E51
:10276C004C0E066E7B0E076ECFEC03F000C088F4A7
:10277C0001C089F402C08AF403C08BF48C4B8D2BFE
:10278C005AD088C400F089C401F08AC402F08BC40A
:10279C0003F0D6EC09F083C404F0000E056E066E4F
:1027AC00076E043604900536063607360436049058
:1027BC00053606360736AD0E0424F66E470E052098
:1027CC00F76E000E0620F86E0900F5CF05F0090033
:1027DC00F5CF06F00900F5CF07F00900F5CF08F0AA
:1027EC000850035C08E10750025C05E10650015CEF
:1027FC0002E10550005C1FE2040188C400F089C4AA
:10280C0001F08AC402F08BC403F0000E046E000EBB
:10281C00056E200E066E820E076ECFEC03F000C024
:10282C0088F401C089F402C08AF403C08BF4010E51
:10283C008C5F000E8D5B040187A393D087B791D07A
:10284C00800E000A006E800E8219005C02E181513C
:10285C000A0804E20A0E816F000E826F88C400F031
:10286C0089C401F08AC402F08BC403F0D6EC09F0E1
:10287C0000C08EF401C08FF402C090F403C091F438
:10288C008E518F119011911142E00A0E046E000EC0
:10289C00056E066E076E8EC400F08FC401F090C4F6
:1028AC0002F091C403F0F2EC0BF008C000F009C088
:1028BC0001F00AC002F00BC003F0000E046E031806
:1028CC0008E10450021805E10450011802E100501F
:1028DC00000A1DE1010E815F000E825B0A0E046E80
:1028EC00000E056E066E076E8EC400F08FC401F0EC
:1028FC0090C402F091C403F0F2EC0BF000C08EF423
:10290C0001C08FF402C090F403C091F4B9D7800ECB
:10291C008219006E800E005C02E18351815D21E220
:10292C008151835D9A6FFDEC06F000C004F001C08C
:10293C0005F002C006F003C007F088C400F089C49B
:10294C0001F08AC402F08BC403F0CFEC04F000C099
:10295C0088F401C089F402C08AF403C08BF481C4EA
:10296C0083F4050E04018125006E000E8221016E98
:10297C000050845F0150855B8151821103E187B760
:10298C0001D004D0010E845F000E855B030E86150A
:10299C00006E87C401F0000E01160050011004E017
:1029AC00010E845F000E855B86A539D086A312D0FC
:1029BC0086A103D02D0E006E02D02B0E006E7AC4B1
:1029CC00E1FF7BC4E2FF00C0E6FF7A4B7B2B924B0E
:1029DC00932B0CD086A10AD07AC4E1FF7BC4E2FF12
:1029EC00200EE66E7A4B7B2B924B932B800E006E57
:1029FC00800E8519005C02E1845100080FE27AC454
:102A0C00E1FF7BC4E2FF300EE66E7A4B7B2B924BE0
:102A1C00932B010E845F000E855BE8D73AD086B706
:102A2C0018D0800E006E800E8519005C02E1845176
:102A3C0000080FE27AC4E1FF7BC4E2FF200EE66ED1
:102A4C007A4B7B2B924B932B010E845F000E855B94
:102A5C00E8D786A312D086A103D02D0E006E02D02B
:102A6C002B0E006E7AC4E1FF7BC4E2FF00C0E6FFD0
:102A7C007A4B7B2B924B932B0CD086A10AD07AC429
:102A8C00E1FF7BC4E2FF200EE66E7A4B7B2B924B70
:102A9C00932B88C400F089C401F08AC402F08BC463
:102AAC0003F0D6EC09F000C08EF401C08FF402C024
:102ABC0090F403C091F483C400F0000E016E026E1A
:102ACC00036E003600900136023603360036009055
:102ADC00013602360336AD0E0024F66E470E012089
:102AEC00F76E000E0220F86E0900F5CF04F0090015
:102AFC00F5CF05F00900F5CF06F00900F5CF07F08A
:102B0C008EC400F08FC401F090C402F091C403F0A5
:102B1C00F2EC0BF0300E00267AC4E1FF7BC4E2FF2E
:102B2C0000C0E6FF7A4B7B2B924B932B8151821189
:102B3C0003E187B701D06FD07AC4E1FF7BC4E2FF19
:102B4C002E0EE66E7A4B7B2B924B932B8351815F2F
:102B5C00000E825B83534DE0830783C400F0000EAC
:102B6C00016E026E036E003600900136023603369B
:102B7C0000360090013602360336AD0E0024F66E98
:102B8C00470E0120F76E000E0220F86E0900F5CFFB
:102B9C0004F00900F5CF05F00900F5CF06F00900A7
:102BAC00F5CF07F08EC400F08FC401F090C402F092
:102BBC0091C403F0F2EC0BF00A0E046E000E056EDD
:102BCC00066E076EF2EC0BF008C000F009C001F0C5
:102BDC000AC002F00BC003F0300E00267AC4E1FFED
:102BEC007BC4E2FF00C0E6FF7A4B7B2B924B932B0E
:102BFC00B1D7815182110FE07AC4E1FF7BC4E2FFAF
:102C0C00300EE66E7A4B7B2B924B932B010E815F31
:102C1C00000E825BEED786AB0BD07AC4E1FF7BC48F
:102C2C00E2FF450EE66E7A4B7B2B924B932B0AD030
:102C3C007AC4E1FF7BC4E2FF650EE66E7A4B7B2B18
:102C4C00924B932B800E8D19006E800E005C02E16E
:102C5C00000E8C5D11E28C5100088C6F8D51000EB2
:102C6C008D577AC4E1FF7BC4E2FF2D0EE66E7A4BE2
:102C7C007B2B924B932B0AD07AC4E1FF7BC4E2FFEF
:102C8C002B0EE66E7A4B7B2B924B932B0A0E046E1B
:102C9C00000E056E8CC400F08DC401F08CEC05F0B8
:102CAC00300E00267AC4E1FF7BC4E2FF00C0E6FFD1
:102CBC0004017A4B7B2B924B932B0A0E046E000E65
:102CCC00056E8CC400F08DC401F08CEC05F008C0CE
:102CDC0000F009C001F0300E00267AC4E1FF7BC47D
:102CEC00E2FF00C0E6FF04017A4B7B2B924B932B47
:102CFC0086A71AD0800E006E800E8519005C02E14A
:102D0C008451000811E27AC4E1FF7BC4E2FF200E7B
:102D1C00E66E7A4B7B2B924B932B010E845F000E4D
:102D2C00855B84518511EFE1ABEF0EF087A3F3D0F7
:102D3C00800E8D19006E800E005C02E1000E8C5D21
:102D4C000AE2010E8C5D006E000E8D59016E005072
:102D5C00815F0150825B88C400F089C401F08AC491
:102D6C0002F08BC403F0D6EC09F000C08EF401C065
:102D7C008FF402C090F403C091F4010E836F835161
:102D8C000A0A34E083C400F0000E016E026E036E7A
:102D9C0000360090013602360336003600900136BC
:102DAC0002360336AD0E0024F66E470E0120F76E88
:102DBC00000E0220F86E0900F5CF01F00900F5CFE6
:102DCC0002F00900F5CF03F00900F5CF04F0045030
:102DDC00915D08E10350905D05E102508F5D02E1C9
:102DEC0001508E5D01E202D0832BC9D78351815DE6
:102DFC00986F000E8259996F98C481F499C482F42B
:102E0C008EC400F08FC401F090C402F091C403F0A2
:102E1C00EAEC06F000C004F001C005F002C006F0B8
:102E2C0003C007F088C400F089C401F08AC402F022
:102E3C008BC403F068EC0DF000C094F401C095F461
:102E4C0002C096F403C097F498C49AF4FDEC06F013
:102E5C0094C404F095C405F096C406F097C407F02A
:102E6C00CFEC03F0000E046E000E056E000E066E25
:102E7C007E0E076E23EC01F0D6EC09F000C08EF448
:102E8C0001C08FF402C090F403C091F481518211FF
:102E9C0042E00A0E046E000E056E066E076E8EC4BE
:102EAC0000F08FC401F090C402F091C403F0F2EC76
:102EBC000BF008C000F009C001F00AC002F00BC012
:102ECC0003F0000E046E031808E10450021805E12B
:102EDC000450011802E10050000A1DE10A0E046EB4
:102EEC00000E056E066E076E8EC400F08FC401F0E6
:102EFC0090C402F091C403F0F2EC0BF000C08EF41D
:102F0C0001C08FF402C090F403C091F4010E815FF4
:102F1C00000E825BBBD7800E006E800E8219005CA7
:102F2C0002E181510C0816E381C49AF472EC0AF0A8
:102F3C0088C404F089C405F08AC406F08BC407F079
:102F4C0023EC01F000C088F401C089F402C08AF4BB
:102F5C0003C08BF488C400F089C401F08AC402F069
:102F6C008BC403F0046A056A066A076AABEC06F0C8
:102F7C00000ED8A4010E006E0052D8B477D088C4CD
:102F8C0000F089C401F08AC402F08BC403F0D6ECC3
:102F9C0009F0000E046E031808E10450021805E154
:102FAC000450011802E10050000A60E1800E006E2E
:102FBC00800E8D19005C02E18C51010857E28CC423
:102FCC009AF4FDEC06F000C004F001C005F002C05C
:102FDC0006F003C007F088C400F089C401F08AC46D
:102FEC0002F08BC403F0CFEC04F05F0E046E700E95
:102FFC00056E090E066E810E076E62EC04F0010E72
:10300C00D8B0000E006E005206E0090E04018C5F71
:10301C00000E8D5B05D00401080E8C5F000E8D5BDD
:10302C008CC49AF4FDEC06F000C004F001C005F06D
:10303C0002C006F003C007F088C400F089C401F098
:10304C008AC402F08BC403F0CFEC04F0D6EC09F088
:10305C0000C08EF401C08FF402C090F403C091F450
:10306C000401886B896B8A6B8B6B38D088C400F039
:10307C0089C401F08AC402F08BC403F0D6EC09F0C9
:10308C0000C08EF401C08FF402C090F403C091F420
:10309C008EC400F08FC401F090C402F091C403F010
:1030AC00EAEC06F000C004F001C005F002C006F026
:1030BC0003C007F088C400F089C401F08AC402F090
:1030CC008BC403F068EC0DF000C088F401C089F4E7
:1030DC0002C08AF403C08BF48C6B8D6B010E836F72
:1030EC0083510A0A34E083C400F0000E016E026EB4
:1030FC00036E00360090013602360336003600901F
:10310C00013602360336AD0E0024F66E470E012052
:10311C00F76E000E0220F86E0900F5CF01F00900E1
:10312C00F5CF02F00900F5CF03F00900F5CF04F05C
:10313C000450915D08E10350905D05E102508F5DF4
:10314C0002E101508E5D01E202D0832BC9D783517D
:10315C008125006E000E8221016E8C5100268D514E
:10316C0001220050845F0150855B87B704D08151E8
:10317C00821101E104D0010E845F000E855B030E09
:10318C008615006E87C401F0000E01160050011068
:10319C0004E0010E845F000E855B86A539D086A302
:1031AC0012D086A103D02D0E006E02D02B0E006E15
:1031BC007AC4E1FF7BC4E2FF00C0E6FF7A4B7B2BB5
:1031CC00924B932B0CD086A10AD07AC4E1FF7BC41E
:1031DC00E2FF200EE66E7A4B7B2B924B932B800EEC
:1031EC00006E800E8519005C02E1845100080FE22C
:1031FC007AC4E1FF7BC4E2FF300EE66E7A4B7B2B88
:10320C00924B932B010E845F000E855BE8D73AD06E
:10321C0086B718D0800E006E800E8519005C02E116
:10322C00845100080FE27AC4E1FF7BC4E2FF200E58
:10323C00E66E7A4B7B2B924B932B010E845F000E28
:10324C00855BE8D786A312D086A103D02D0E006E25
:10325C0002D02B0E006E7AC4E1FF7BC4E2FF00C0EB
:10326C00E6FF7A4B7B2B924B932B0CD086A10AD08A
:10327C007AC4E1FF7BC4E2FF200EE66E7A4B7B2B17
:10328C00924B932B83C400F0830700524CE083C411
:10329C0000F0000E016E026E036E003600900136D7
:1032AC000236033600360090013602360336AD0E78
:1032BC000024F66E470E0120F76E000E0220F86E09
:1032CC000900F5CF04F00900F5CF05F00900F5CFA2
:1032DC0006F00900F5CF07F08EC400F08FC401F0A2
:1032EC0090C402F091C403F0F2EC0BF00A0E046EE1
:1032FC00000E056E066E076EF2EC0BF008C000F0C7
:10330C0009C001F00AC002F00BC003F0300E002619
:10331C007AC4E1FF7BC4E2FF00C0E6FF7A4B7B2B53
:10332C00924B932BAFD7800E006E800E8D19005CE4
:10333C0002E18C5100080FE27AC4E1FF7BC4E2FF8A
:10334C00300EE66E7A4B7B2B924B932B010E8C5FDF
:10335C00000E8D5BE8D7800E000A006E800E82197D
:10336C00005C02E18151080803E2080E836F02D071
:10337C0081C483F48351815F000E825B835303E12C
:10338C0087B701D00AD07AC4E1FF7BC4E2FF2E0ECE
:10339C00E66E7A4B7B2B924B932B83C49AF4FDEC09
:1033AC0006F088C404F089C405F08AC406F08BC406
:1033BC0007F0CFEC03F0EFEC05F000C08EF401C089
:1033CC008FF402C090F403C091F483534DE0830753
:1033DC0083C400F0000E016E026E036E0036009086
:1033EC0001360236033600360090013602360336BB
:1033FC00AD0E0024F66E470E0120F76E000E022073
:10340C00F86E0900F5CF04F00900F5CF05F00900BE
:10341C00F5CF06F00900F5CF07F08EC400F08FC48D
:10342C0001F090C402F091C403F0F2EC0BF00A0E20
:10343C00046E000E056E066E076EF2EC0BF008C003
:10344C0000F009C001F00AC002F00BC003F0300E0E
:10345C0000267AC4E1FF7BC4E2FF00C0E6FF7A4B92
:10346C007B2B924B932BB1D7815182110FE07AC4F5
:10347C00E1FF7BC4E2FF300EE66E7A4B7B2B924B66
:10348C00932B010E815F000E825BEED786A71AD0BC
:10349C00800E006E800E8519005C02E184510008DC
:1034AC0011E27AC4E1FF7BC4E2FF200EE66E7A4B98
:1034BC007B2B924B932B010E845F000E855B84510A
:1034CC008511EFE1ABEF0EF0C00E8615016E87C4CF
:1034DC0002F0000E0216000E021802E1000E011896
:1034EC00D8A48CD086A931D07FC4E9FF80C4EAFF70
:1034FC00EECF00F0EECF01F000C0E9FF01C0EAFF13
:10350C00EECF00F0EECF01F0EECF02F0EECF03F0F5
:10351C0000C08EF401C08FF402C090F403C091F48B
:10352C007FC4E9FF80C4EAFFEECF00F0EECF01F0DC
:10353C00040E0026000E01227FC4E1FF80C4E2FFCE
:10354C0000C0E6FF01C0E6FF31D07FC4E9FF80C4B4
:10355C00EAFFEECF00F0EECF01F000C0E9FF01C0B2
:10356C00EAFFEECF00F0EECF01F0000E01BEFF0E31
:10357C00026E036E00C08EF401C08FF402C090F492
:10358C0003C091F47FC4E9FF80C4EAFFEECF00F0E2
:10359C00EECF01F0020E0026000E01227FC4E1FFE7
:1035AC0080C4E2FF00C0E6FF01C0E6FF800E911967
:1035BC00006E800E005C08E1000E905D05E1000ECF
:1035CC008F5D02E1000E8E5D18E2030E8613000E75
:1035DC008713006A016A026A036A8E51005E8F517A
:1035EC00015A9051025A9151035A00C08EF401C0F5
:1035FC008FF402C090F403C091F45ED086A931D050
:10360C007FC4E9FF80C4EAFFEECF00F0EECF01F0FB
:10361C0000C0E9FF01C0EAFFEECF00F0EECF01F0F1
:10362C00EECF02F0EECF03F000C08EF401C08FF4A9
:10363C0002C090F403C091F47FC4E9FF80C4EAFF98
:10364C00EECF00F0EECF01F0040E0026000E0122AA
:10365C007FC4E1FF80C4E2FF00C0E6FF01C0E6FFCB
:10366C002BD07FC4E9FF80C4EAFFEECF00F0EECF91
:10367C0001F000C0E9FF01C0EAFFEECF00F0EECF91
:10368C0001F000C08EF401C08FF4000E906F916FAA
:10369C007FC4E9FF80C4EAFFEECF00F0EECF01F06B
:1036AC00020E0026000E01227FC4E1FF80C4E2FF5F
:1036BC0000C0E6FF01C0E6FF000E821902E1000E19
:1036CC0081190FE1000E006E911908E1005090195C
:1036DC0005E100508F1902E18E51000A02E1814B85
:1036EC00822BC00E8615006E00C005F0AED0010E08
:1036FC00836F83510A0A34E083C400F0000E016E1C
:10370C00026E036E00360090013602360336003628
:10371C000090013602360336AD0E0024F66E470ECD
:10372C000120F76E000E0220F86E0900F5CF01F0B3
:10373C000900F5CF02F00900F5CF03F00900F5CF31
:10374C0004F00450915D08E10350905D05E10250D6
:10375C008F5D02E101508E5D01E202D0832BC9D74F
:10376C0082D0010E836F8351080A34E083C400F0C9
:10377C00000E016E026E036E0036009001360236AA
:10378C00033600360090013602360336D50E00247F
:10379C00F66E470E0120F76E000E0220F86E09003F
:1037AC00F5CF01F00900F5CF02F00900F5CF03F0D9
:1037BC000900F5CF04F00450915D08E10350905DD1
:1037CC0005E102508F5D02E101508E5D01E202D0F5
:1037DC00832BC9D748D0010E836F83510C0A34E078
:1037EC0083C400F0000E016E026E036E0036009072
:1037FC0001360236033600360090013602360336A7
:10380C00530E0024F66E470E0120F76E000E0220B8
:10381C00F86E0900F5CF01F00900F5CF02F00900B0
:10382C00F5CF03F00900F5CF04F00450915D08E1E9
:10383C000350905D05E102508F5D02E101508E5DF9
:10384C0001E202D0832BC9D70ED00550000AD8B4A0
:10385C004ED70550C00AD8B44AD70550800A81E02B
:10386C000550400AB8E0800E006E800E8219005C94
:10387C0002E18151835D03E281C483F40DD0800E9B
:10388C008219006E800E005C02E18351815D04E2BE
:10389C0083C481F4000E826F845185110EE0030EF7
:1038AC008615006E87C401F0000E01160050011041
:1038BC0004E0010E845F000E855B800E8219006EA1
:1038CC00800E8519005C02E18451815D05E2815115
:1038DC00845F8251855B02D0846B856BC40E861528
:1038EC00016E8751080B026E0250080A02E1400E6D
:1038FC00011808E18451851104E0010E845F000E6B
:10390C00855B1CD0C00E8615016E8751080B026EAC
:10391C000250080A02E1800E011810E1800E006EC0
:10392C00800E8519005C02E18451020805E2020E4A
:10393C00845F000E855B02D0846B856B86A55DD0A1
:10394C0086A312D086A103D02D0E006E02D02B0EB2
:10395C00006E7AC4E1FF7BC4E2FF00C0E6FF7A4B45
:10396C007B2B924B932B34D086A10BD07AC4E1FFE6
:10397C007BC4E2FF200EE66E7A4B7B2B924B932B93
:10398C0027D0C00E8615016E8751080B026E0250AF
:10399C00080A02E1800E01181BE17AC4E1FF7BC426
:1039AC00E2FF300EE66E7A4B7B2B924B932B86AB61
:1039BC0003D0580E006E02D0780E006E7AC4E1FF70
:1039CC007BC4E2FF00C0E6FF7A4B7B2B924B932B20
:1039DC008451851111E07AC4E1FF7BC4E2FF300E03
:1039EC00E66E7A4B7B2B924B932B010E845F000E71
:1039FC00855B84518511EFE174D08451851113E0FE
:103A0C0086B711D07AC4E1FF7BC4E2FF200EE66ECC
:103A1C007A4B7B2B924B932B010E845F000E855BB4
:103A2C0084518511EFE186A312D086A103D02D0E0F
:103A3C00006E02D02B0E006E7AC4E1FF7BC4E2FF55
:103A4C0000C0E6FF7A4B7B2B924B932B0CD086A1BC
:103A5C000AD07AC4E1FF7BC4E2FF200EE66E7A4BFB
:103A6C007B2B924B932BC00E8615016E8751080B46
:103A7C00026E0250080A02E1400E01180BE17AC4F2
:103A8C00E1FF7BC4E2FF300EE66E7A4B7B2B924B50
:103A9C00932B27D0C00E8615016E8751080B026E32
:103AAC000250080A02E1800E01181BE17AC4E1FF02
:103ABC007BC4E2FF300EE66E7A4B7B2B924B932B42
:103ACC0086AB03D0580E006E02D0780E006E7AC40E
:103ADC00E1FF7BC4E2FF00C0E6FF7A4B7B2B924BED
:103AEC00932B800E006E800E8219005C02E18151D6
:103AFC00835D0BE27AC4E1FF7BC4E2FF300EE66E1D
:103B0C007A4B7B2B924B932BECD781C400F082C465
:103B1C0001F0010E815F000E825B00500110D8B4E1
:103B2C002AD1C00E8615006E00C094F40AD181C44F
:103B3C0000F082C401F0000E82BFFF0E026E036E15
:103B4C0000360090013602360336003600900136FE
:103B5C0002360336AD0E0024F66E470E0120F76ECA
:103B6C00000E0220F86E0900F5CF04F00900F5CF25
:103B7C0005F00900F5CF06F00900F5CF07F08EC46B
:103B8C0000F08FC401F090C402F091C403F0F2EC89
:103B9C000BF00A0E046E000E056E066E076EF2EC4C
:103BAC000BF008C000F009C001F00AC002F00BC015
:103BBC0003F0300E0024836FD3D086AB45D081C484
:103BCC0000F082C401F0000E82BFFF0E026E036E85
:103BDC00003600900136023603360036009001366E
:103BEC0002360336D50E0024F66E470E0120F76E12
:103BFC00000E0220F86E0900F5CF04F00900F5CF95
:103C0C0005F00900F5CF06F00900F5CF07F08EC4DA
:103C1C0000F08FC401F090C402F091C403F0F2ECF8
:103C2C000BF00F0E0016000E011602160316060EF0
:103C3C000024F66E480E0120F76E000E0220F86E7E
:103C4C000900F5CF83F444D081C400F082C401F0A4
:103C5C00000E82BFFF0E026E036E0036009001361E
:103C6C000236033600360090013602360336D50E86
:103C7C000024F66E470E0120F76E000E0220F86E3F
:103C8C000900F5CF04F00900F5CF05F00900F5CFD8
:103C9C0006F00900F5CF07F08EC400F08FC401F0D8
:103CAC0090C402F091C403F0F2EC0BF00F0E00166E
:103CBC00000E011602160316F50E0024F66E470EC2
:103CCC000120F76E000E0220F86E0900F5CF83F488
:103CDC0047D081C400F082C401F0000E82BFFF0EF9
:103CEC00026E036E00360090013602360336003643
:103CFC000090013602360336530E0024F66E470E42
:103D0C000120F76E000E0220F86E0900F5CF04F0CA
:103D1C000900F5CF05F00900F5CF06F00900F5CF45
:103D2C0007F08EC400F08FC401F090C402F091C46F
:103D3C0003F0F2EC0BF0070E0014836F300E8327A8
:103D4C000FD09451000AD8B4F2D69451C00AD8B40A
:103D5C00EED69451800AD8B430D79451400AB9E0C9
:103D6C007AC4E1FF7BC4E2FF83C4E6FF7A4B7B2B72
:103D7C00924B932BCAD686A71AD0800E006E800E5B
:103D8C008519005C02E18451000811E27AC4E1FF5C
:103D9C007BC4E2FF200EE66E7A4B7B2B924B932B6F
:103DAC00010E845F000E855B84518511EFE1ABEF52
:0C3DBC000EF092C400F093C401F012005D
:103DC8007AC400F07BC401F07CC402F07DC403F027
:103DD800010E04017A5F000E7B5B7C5B7D5B00500B
:0C3DE80001100210031001E0EBD71200E4
:103DF4000C6A0E6A0250D8A413EF1FF001C002F03F
:103E040000C001F0006A0E860250D8A413EF1FF020
:103E140001C002F0016A0E960E880250D8B425EF54
:103E24001FF00E50035ED8A4D8A02BEF1FF0D8903B
:103E340002BE31EF1FF0003601360236032E1AEFB0
:103E44001FF02BEF1FF0010E0C6E1AEC00F035EF93
:103E54001FF0020E0C6E21EC00F035EF1FF0040E83
:083E64000C6E2EEC00F01200C0
:0C3E6C000E0E0D6E0D2EFED70000120091
:103E780004013F6B406B040E405D02E1000E3F5DA4
:103E880030E23650800A15E1366A372A8484848203
:103E9800070E3714006E00C037F0B80E001200C0CD
:103EA80037F000C09AF49FEC06F0400E9A6F9FEC32
:103EB80006F036503F0802E3CCEC04F0400E365CC6
:103EC80002E3C9EC04F03F0E3F25E96E000E4021E5
:103ED800EA6EEECF9AF487EC06F0362A3F4B402B79
:043EE800CAD7120023
:103EEC00720E0401786F040E796F6DC47AF46EC48F
:103EFC007BF46FC47CF470C47DF471C47EF4780ED2
:103F0C007F6F040E806FA6EC0EF000C076F401C03B
:103F1C0077F400506D25E16E01506E21E26EE66A79
:0A3F2C0076C400F077C401F0120023
:103F36006FC4E9FF70C4EAFFEE522DE0040171532D
:103F460013E06DC47AF46EC47BF4100E7C6F450EDC
:103F56007D6F000E7E6F6FC4E9FF70C4EAFFEECF7F
:103F66007FF46CEC0DF012D06DC47AF46EC47BF461
:103F7600100E7C6F450E7D6F000E7E6F6FC4E9FFDD
:103F860070C4EAFFEECF7FF407EC0EF0060E6D2745
:103F96006F4B702BCDD76DC400F0000E016E120072
:103FA60004016E6B6F6B040E6F5D02E1000E6E5DB9
:103FB6000BE23F0E6E25E16E000E6F21E26E6DC4C0
:0C3FC600E6FF6E4B6F2BEFD754DF1200AC
:103FD200C26A070EC012C08E6DC400F00036009097
:103FE200003600900050C212C2803FDFC282C2A2DD
:103FF20001D0FDD7C4CF01F0006AC3500012000EF9
:064002000112C290120041
:10400800080E056E000E066E000E065C02E1010E3B
:10401800055C59E36DC400F06EC401F0000E026E39
:10402800036E00360090013602360336230E002454
:10403800F66E480E0120F76E000E0220F86E090099
:10404800F5CF03F00900F5CF04F0010E055C006E12
:10405800000E0658016E00C002F0010E006E000E40
:10406800016E025005E0003600900136FF0FFAD7C6
:1040780003500016045001160050011003E0010E11
:10408800006E01D0006A00B002D0829A01D0828A04
:104098008384030E0C6E970E0D6E0D2EFED70C2E1C
:1040A800FCD7000000008394030E0C6E970E0D6E73
:1040B8000D2EFED70C2EFCD700000000010E055E69
:0840C800000E065AA1D71200F8
:1040D0000050086E0150006E016A026A036A0B6AA2
:1040E0000C6A960E036E0A6A00C001F008C000F068
:0840F000086A026A7FDE12007B
:1040F8000401745350E073C476F4765100084AE220
:104108000A0E046E000E056E066E076E6FC400F090
:1041180070C401F071C402F072C403F0F2EC0BF049
:1041280008C000F009C001F00AC002F00BC003F09B
:10413800300E0024756F0A0E046E000E056E066EB2
:10414800076E6FC400F070C401F071C402F072C44D
:1041580003F0F2EC0BF000C06FF401C070F402C081
:1041680071F403C072F47605006E060E0002F3CFF8
:1041780000F000506D257A6F6EC47BF4100E7C6FD2
:10418800450E7D6F000E7E6F75C47FF46CEC0DF0EC
:104198007607B3D74FD073C476F4765100084AE255
:1041A8000A0E046E000E056E066E076E6FC400F0F0
:1041B80070C401F071C402F072C403F0F2EC0BF0A9
:1041C80008C000F009C001F00AC002F00BC003F0FB
:1041D800300E0024756F0A0E046E000E056E066E12
:1041E800076E6FC400F070C401F071C402F072C4AD
:1041F80003F0F2EC0BF000C06FF401C070F402C0E1
:1042080071F403C072F47605006E060E0002F3CF57
:1042180000F000506D257A6F6EC47BF4100E7C6F31
:10422800450E7D6F000E7E6F75C47FF407EC0EF0AF
:104238007607B3D7060E7303F3CF00F0F4CF01F07F
:0A4248006D510026000E0122120045
:10425200939096949692959A959C959E969084802A
:1042620084848482839A100E04017A6F270E7B6FF6
:10427200000E7C6F7D6FA7DDC00E9A6F9FEC06F07B
:10428200100E7A6F270E7B6F000E7C6F7D6F9BDDA9
:10429200400E9A6F9FEC06F0100E7A6F270E7B6F1E
:1042A200000E7C6F7D6F8FDDB80E9A6F9FEC06F06B
:1042B200100E7A6F270E7B6F000E7C6F7D6F83DD91
:0E42C2003F0E9A6F9FEC06F0849484921200D7
:1042D0000900F5CFE6FF0006FBE10106F9E1120057
:1042E00013EC24F0BE0E0401696F9F0E6A6F1A0E64
:1042F0006B6F7D0E6C6FBD6ABA6AC26A0E0EC16EBC
:10430000010E926E806A060E0B6E130E0C6EAD0ED1
:104310000D6E0D2EFED70C2EFCD70B2EFAD70000FB
:104320000000966A936A956A946AFF0E806E91DF28
:104330006D6B39DE6D6B6E6B220E6F6F000E706FE2
:10434000010E716FF8DD6D6B0A0E6E6F2B0E6F6FC5
:10435000000E706F010E716FEEDD5F0E6D6F0A0E55
:104360006E6F200E6F6F000E706F010E716FE3DDC8
:104370006D6B140E6E6F150E6F6F000E706F010E69
:10438000716FD9DD5F0E6D6F140E6E6F1A0E6F6F49
:10439000000E706F010E716FCEDD6EDD6D6B6E6B9A
:1043A00033DE8386030E0C6E970E0D6E0D2EFED738
:1043B0000C2EFCD700000000839604016D6B09DE13
:1043C00000C041F401C042F483DE000E046E000E12
:1043D000056E200E066E770E076ECFEC03F000C060
:1043E00061F401C062F402C063F403C064F469C400
:1043F00004F06AC405F06BC406F06CC407F0CFEC9F
:1044000004F000C065F401C066F402C067F403C0A4
:1044100068F4430E04016D6F040E6E6F170E6F6F1C
:10442000480E706F000E716F61C472F462C473F451
:1044300063C474F464C475F459DD520E6D6F040ED8
:104440006E6F1D0E6F6F480E706F000E716F65C43A
:1044500072F466C473F467C474F468C475F446DD1A
:104460003C0E6D6F6E6B41C46FF442C470F4000E6D
:10447000716F726F040E736F010E746F3DDE3C0E30
:104480006D6F0A0E6E6F430E6F6F040E706F010E2C
:10449000716F51DD3C0E6D6F140E6E6F520E6F6FAB
:1044A000040E706F010E716F46DDE6DC0B0E0B6EB5
:1044B000260E0C6E5D0E0D6E0D2EFED70C2EFCD74B
:1044C0000B2EFAD7000000003C0E6D6F6E6B41C4DE
:1044D0006FF442C470F4000E716F726F040E736F4C
:1044E000746B0ADE3C0E6D6F0A0E6E6F430E6F6FBB
:1044F000040E706F716B1FDD3C0E6D6F140E6E6FCE
:10450000520E6F6F040E706F716B15DD56D7FFD7AB
:1048260010EE15F02A0E006E010E016E830EF66E66
:0E483600470EF76E000EF86E68EC21F01200CF
:10451000000000000000004F00000007000700142A
:104520007F147F14242A7F2A1223130864623649D9
:104530005522500005030000001C224100004122CA
:104540001C0014083E081408083E080800503000FB
:104550000008080808080060600000201008040235
:104560003E5149453E00427F40004261514946214B
:1045700041454B311814127F1027454545393C4AB7
:104580004949300171090503364949493606494907
:10459000291E00363600000056360000000814229E
:1045A0004114141414144122140800020159050284
:1045B000324979413E7E1111117E7F494949363E8B
:1045C000414141227F4141221C7F494949417F09A4
:1045D0000909013E4141497A7F0808087F00417F6F
:1045E00041002040413F017F081422417F4040406C
:1045F000407F020C027F7F0408107F3E4141413E14
:104600007F090909063E4151215E7F091929464665
:104610004949493101017F01013F4040403F1F208E
:1046200040201F3F4030403F631408146307087068
:1046300008076151494543007F41410002040810C9
:10464000200041417F0004020102044040404040FC
:10465000000102040020545454787F484444383800
:1046600044444420384444487F3854545418087E05
:104670000901020C5252523E7F0804047800447D26
:1046800040002040443D007F1028440000417F400E
:10469000007C047C04787C08040478384444443862
:1046A0007C14141408081414147C7C0804040848AE
:1046B00054545420043F4440203C4040207C1C2063
:1046C00040201C3C4030403C44281028440C5050B2
:1046D000503C4464544C44000836410000007F00C4
:0B46E000000041360800100810080020
:1046EB000000007FCDCC4C7B0AD723786F1203756B
:1046FB0017B75171ACC5276EBD37066B95BF5667A3
:10470B0077CC2B645F700961FFE65B5D08E53C3C91
:04471B006042221BBB
:10471F000000007F000020820000488500007A889A
:10472F0000401C8C0050438F002474928096189682
:10473F0020BC3E99286B6E9CF90215A0EC782DC118
:04474F00CAF249E27F
:10475300010000000800000040000000000200000B
:104763000010000000800000000004000000200092
:1047730000000001000000080000004000000000ED
:0547830053203D200061
:064788006D532F636D006C
:02478E005600D3
:0947900056616C7565203D2000A6
:0B479900566F6C74616765203D2000C6
:0147A4000014
:0147A5000013
:0747A600286E756C6C290000
:1047AD00010000000A00000064000000E8030000A2
:1047BD0010270000A086010040420F00809698004F
:0847CD0000E1F50500CA9A3B6A
:1047D50001000000100000000001000000100000B2
:1047E50000000100000010000000000100000010A2
:1047F5003031323334353637383961626364656652
:0148050000B2
:104806003031323334353637383941424344454600
:0148160000A1
:0648170025322E3466007C
:06481D0025322E34660076
:024823005B0038
:020000040030CA
:0D000100021F1EFF8381FF0FC00FE00F40A4
:00000001FF
